{"abi":[{"type":"constructor","inputs":[{"name":"initialOwner","type":"address","internalType":"address"},{"name":"initialOracle","type":"address","internalType":"address"}],"stateMutability":"nonpayable"},{"type":"function","name":"NULL_REFERRER","inputs":[],"outputs":[{"name":"","type":"address","internalType":"address"}],"stateMutability":"view"},{"type":"function","name":"authorizeOracle","inputs":[{"name":"oracle","type":"address","internalType":"address"}],"outputs":[],"stateMutability":"nonpayable"},{"type":"function","name":"batchRegister","inputs":[{"name":"users","type":"address[]","internalType":"address[]"},{"name":"referrer","type":"address","internalType":"address"},{"name":"groupId","type":"bytes32","internalType":"bytes32"}],"outputs":[],"stateMutability":"nonpayable"},{"type":"function","name":"getAncestors","inputs":[{"name":"user","type":"address","internalType":"address"},{"name":"groupId","type":"bytes32","internalType":"bytes32"},{"name":"maxLevels","type":"uint256","internalType":"uint256"}],"outputs":[{"name":"","type":"address[]","internalType":"address[]"}],"stateMutability":"view"},{"type":"function","name":"getAuthorizedOracles","inputs":[],"outputs":[{"name":"","type":"address[]","internalType":"address[]"}],"stateMutability":"view"},{"type":"function","name":"getChildren","inputs":[{"name":"referrer","type":"address","internalType":"address"},{"name":"groupId","type":"bytes32","internalType":"bytes32"}],"outputs":[{"name":"","type":"address[]","internalType":"address[]"}],"stateMutability":"view"},{"type":"function","name":"getReferrer","inputs":[{"name":"user","type":"address","internalType":"address"},{"name":"groupId","type":"bytes32","internalType":"bytes32"}],"outputs":[{"name":"","type":"address","internalType":"address"}],"stateMutability":"view"},{"type":"function","name":"getRoot","inputs":[],"outputs":[{"name":"","type":"address","internalType":"address"}],"stateMutability":"view"},{"type":"function","name":"isAuthorizedOracle","inputs":[{"name":"oracle","type":"address","internalType":"address"}],"outputs":[{"name":"","type":"bool","internalType":"bool"}],"stateMutability":"view"},{"type":"function","name":"isRegistered","inputs":[{"name":"user","type":"address","internalType":"address"},{"name":"groupId","type":"bytes32","internalType":"bytes32"}],"outputs":[{"name":"","type":"bool","internalType":"bool"}],"stateMutability":"view"},{"type":"function","name":"owner","inputs":[],"outputs":[{"name":"","type":"address","internalType":"address"}],"stateMutability":"view"},{"type":"function","name":"register","inputs":[{"name":"user","type":"address","internalType":"address"},{"name":"referrer","type":"address","internalType":"address"},{"name":"groupId","type":"bytes32","internalType":"bytes32"}],"outputs":[],"stateMutability":"nonpayable"},{"type":"function","name":"renounceOwnership","inputs":[],"outputs":[],"stateMutability":"nonpayable"},{"type":"function","name":"transferOwnership","inputs":[{"name":"newOwner","type":"address","internalType":"address"}],"outputs":[],"stateMutability":"nonpayable"},{"type":"function","name":"unauthorizeOracle","inputs":[{"name":"oracle","type":"address","internalType":"address"}],"outputs":[],"stateMutability":"nonpayable"},{"type":"event","name":"OracleAuthorized","inputs":[{"name":"oracle","type":"address","indexed":true,"internalType":"address"}],"anonymous":false},{"type":"event","name":"OracleUnauthorized","inputs":[{"name":"oracle","type":"address","indexed":true,"internalType":"address"}],"anonymous":false},{"type":"event","name":"OwnershipTransferred","inputs":[{"name":"previousOwner","type":"address","indexed":true,"internalType":"address"},{"name":"newOwner","type":"address","indexed":true,"internalType":"address"}],"anonymous":false},{"type":"event","name":"UserRegistered","inputs":[{"name":"user","type":"address","indexed":true,"internalType":"address"},{"name":"referrer","type":"address","indexed":true,"internalType":"address"}],"anonymous":false},{"type":"error","name":"AlreadyRegistered","inputs":[]},{"type":"error","name":"CycleDetected","inputs":[]},{"type":"error","name":"InvalidReferrer","inputs":[]},{"type":"error","name":"OwnableInvalidOwner","inputs":[{"name":"owner","type":"address","internalType":"address"}]},{"type":"error","name":"OwnableUnauthorizedAccount","inputs":[{"name":"account","type":"address","internalType":"address"}]},{"type":"error","name":"UnauthorizedOracle","inputs":[]}],"bytecode":{"object":"0x6080346101a157601f610d8f38819003918201601f19168301916001600160401b0383118484101761017a5780849260409485528339810103126101a157610052602061004b836101a5565b92016101a5565b6001600160a01b0390911690811561018e575f80546001600160a01b031981168417825560405193916001600160a01b03909116907f8be0079c531659141344cd1fd0a4f28419497f9722a3daafe3b4186f6b6457e09080a36001600160a01b0316806100c7575b50610bd590816101ba8239f35b805f52600360205260405f20600160ff198254161790556004546801000000000000000081101561017a5760018101806004558110156101665760045f9081527f8a35acfbc15ff81a39ae7d344fd709f28e8600b4aa8c65c6b64bfe7fe36bd19b9190910180546001600160a01b031916831790557f5a7a3f71a35f5e2589980d29d1c6d8c75e39657751190874081e55208bae24b79080a25f6100ba565b634e487b7160e01b5f52603260045260245ffd5b634e487b7160e01b5f52604160045260245ffd5b631e4fbdf760e01b5f525f60045260245ffd5b5f80fd5b51906001600160a01b03821682036101a15756fe60806040526004361015610011575f80fd5b5f3560e01c80630f13b7631461065957806349bcd2481461063e5780635ca1e1651461063e578063622be01c1461059257806366695b1e1461050b57806369b15fce146104b65780636e138c8414610439578063715018a6146103e257806376bba3be1461027d57806377ccfd4b146102335780638da5cb5b1461020c578063bfe609da146101cf578063d65ad69414610183578063e96dc26a146101475763f2fde38b146100be575f80fd5b34610143576020366003190112610143576100d7610727565b6100df610978565b6001600160a01b03168015610130575f80546001600160a01b03198116831782556001600160a01b0316907f8be0079c531659141344cd1fd0a4f28419497f9722a3daafe3b4186f6b6457e09080a3005b631e4fbdf760e01b5f525f60045260245ffd5b5f80fd5b346101435760603660031901126101435761017f610173610166610727565b6044359060243590610856565b60405191829182610753565b0390f35b346101435760403660031901126101435761019c610727565b6024355f9081526001602090815260408083206001600160a01b0394851684528252918290205491519190921615158152f35b34610143576020366003190112610143576001600160a01b036101f0610727565b165f526003602052602060ff60405f2054166040519015158152f35b34610143575f366003190112610143575f546040516001600160a01b039091168152602090f35b346101435760403660031901126101435761024c610727565b6024355f9081526001602090815260408083206001600160a01b039485168452825291829020549151919092168152f35b3461014357602036600319011261014357610296610727565b61029e610978565b6001600160a01b03165f8181526003602052604090205460ff166102be57005b5f818152600360205260408120805460ff191690555b60045490818110156103db57826102ea82610795565b905460039190911b1c6001600160a01b03161461030b5760019150016102d4565b5f1982019182116103c75761033d61032561036193610795565b905460039190911b1c6001600160a01b031691610795565b81546001600160a01b0393841660039290921b91821b9390911b1916919091179055565b60045480156103b3575f190161037681610795565b81549060018060a01b039060031b1b191690556004555b7fdd4fdcea7474ec44ed60a0e33a8b3e1a80b4002026a6bc5b8e6e97bd883641335f80a2005b634e487b7160e01b5f52603160045260245ffd5b634e487b7160e01b5f52601160045260245ffd5b505061038d565b34610143575f366003190112610143576103fa610978565b5f80546001600160a01b0319811682556001600160a01b03167f8be0079c531659141344cd1fd0a4f28419497f9722a3daafe3b4186f6b6457e08280a3005b34610143575f3660031901126101435760405180602060045491828152019060045f527f8a35acfbc15ff81a39ae7d344fd709f28e8600b4aa8c65c6b64bfe7fe36bd19b905f5b8181106104975761017f85610173818703826107d6565b82546001600160a01b0316845260209093019260019283019201610480565b34610143576060366003190112610143576104cf610727565b6104d761073d565b90335f52600360205260ff60405f205416156104fc576104fa916044359161099e565b005b63db8d1fb760e01b5f5260045ffd5b3461014357604036600319011261014357610524610727565b6024355f52600260205260405f209060018060a01b03165f5260205260405f206040519081602082549182815201915f5260205f20905f5b8181106105735761017f85610173818703826107d6565b82546001600160a01b031684526020909301926001928301920161055c565b346101435760603660031901126101435760043567ffffffffffffffff8111610143573660238201121561014357806004013567ffffffffffffffff8111610143573660248260051b84010111610143576105eb61073d565b9160443590335f52600360205260ff60405f205416156104fc575f5b838110156104fa57600581901b820160240135906001600160a01b038216820361014357610638848760019461099e565b01610607565b34610143575f36600319011261014357602060405160018152f35b3461014357602036600319011261014357610672610727565b61067a610978565b6001600160a01b03811690811561071857815f52600360205260ff60405f205416156106a257005b815f52600360205260405f20600160ff1982541617905560045490600160401b8210156107045761033d8260016106de940160045560046107c1565b7f5a7a3f71a35f5e2589980d29d1c6d8c75e39657751190874081e55208bae24b75f80a2005b634e487b7160e01b5f52604160045260245ffd5b630c22084560e31b5f5260045ffd5b600435906001600160a01b038216820361014357565b602435906001600160a01b038216820361014357565b60206040818301928281528451809452019201905f5b8181106107765750505090565b82516001600160a01b0316845260209384019390920191600101610769565b6004548110156107ad5760045f5260205f2001905f90565b634e487b7160e01b5f52603260045260245ffd5b80548210156107ad575f5260205f2001905f90565b90601f8019910116810190811067ffffffffffffffff82111761070457604052565b67ffffffffffffffff81116107045760051b60200190565b9061081a826107f8565b61082760405191826107d6565b8281528092610838601f19916107f8565b0190602036910137565b80518210156107ad5760209160051b010190565b6001600160a01b0316928315801561096e575b6109525761087683610810565b905f94835f52600160205260405f20905f5260205260405f2060018060a01b039054165b6001600160a01b031680151580610947575b8061093e575b156108f657806108c28785610842565b525f84815260016020908152604080832093835292905220546001600160a01b0316945f1981146103c7576001019461089a565b50925092905061090581610810565b905f5b818110610916575090925050565b6001906001600160a01b0361092b8288610842565b51166109378286610842565b5201610908565b508486106108b2565b5060018114156108ac565b925050506040516109646020826107d6565b5f81525f36813790565b5060018414610869565b5f546001600160a01b0316330361098b57565b63118cdaa760e01b5f523360045260245ffd5b90916001600160a01b03821691908215610718575f8181526001602090815260408083208684529091529020546001600160a01b0316610ab9576001600160a01b0384169384156107185783851461071857600185141580610aa8575b6107185781610a0a9184610b46565b610a9957805f52600160205260405f20835f5260205260405f20846bffffffffffffffffffffffff60a01b8254161790555f52600260205260405f20835f5260205260405f2090815491600160401b831015610704578261033d916001610a73950181556107c1565b7f2138b9314634f9fdd5e49bee3eaf17ca557b6637524d0db759711c3bfcd3d8505f80a3565b639146c72360e01b5f5260045ffd5b50610ab38282610ac8565b156109fb565b630ea075bf60e21b5f5260045ffd5b6001600160a01b03811660011480610b3e575b610b37575f8281526001602090815260408083206001600160a01b038581168552925290912054161580159290610b1157505090565b9091505f52600260205260405f209060018060a01b03165f5260205260405f2054151590565b5050600190565b506001610adb565b92905b6001600160a01b03168015610b97576001600160a01b0384168114610b8e575f83815260016020908152604080832093835292905220546001600160a01b0316610b49565b50915050600190565b509150505f9056fea26469706673582212200a6371b54c9fc9a50961612686625ac7e2f29c597e3a108f88114b70bd74aaaa64736f6c634300081a0033","linkReferences":{}},"methodIdentifiers":{"NULL_REFERRER()":"49bcd248","authorizeOracle(address)":"0f13b763","batchRegister(address[],address,bytes32)":"622be01c","getAncestors(address,bytes32,uint256)":"e96dc26a","getAuthorizedOracles()":"6e138c84","getChildren(address,bytes32)":"66695b1e","getReferrer(address,bytes32)":"77ccfd4b","getRoot()":"5ca1e165","isAuthorizedOracle(address)":"bfe609da","isRegistered(address,bytes32)":"d65ad694","owner()":"8da5cb5b","register(address,address,bytes32)":"69b15fce","renounceOwnership()":"715018a6","transferOwnership(address)":"f2fde38b","unauthorizeOracle(address)":"76bba3be"},"id":33}