{"abi":[{"type":"constructor","inputs":[{"name":"initialOwner","type":"address","internalType":"address"},{"name":"allowlistEnabled","type":"bool","internalType":"bool"},{"name":"initialOracle","type":"address","internalType":"address"}],"stateMutability":"nonpayable"},{"type":"function","name":"NULL_REFERRER","inputs":[],"outputs":[{"name":"","type":"address","internalType":"address"}],"stateMutability":"view"},{"type":"function","name":"allowReferrer","inputs":[{"name":"referrer","type":"address","internalType":"address"}],"outputs":[],"stateMutability":"nonpayable"},{"type":"function","name":"authorizeOracle","inputs":[{"name":"oracle","type":"address","internalType":"address"}],"outputs":[],"stateMutability":"nonpayable"},{"type":"function","name":"batchRegister","inputs":[{"name":"users","type":"address[]","internalType":"address[]"},{"name":"referrer","type":"address","internalType":"address"},{"name":"groupId","type":"bytes32","internalType":"bytes32"}],"outputs":[],"stateMutability":"nonpayable"},{"type":"function","name":"disallowReferrer","inputs":[{"name":"referrer","type":"address","internalType":"address"}],"outputs":[],"stateMutability":"nonpayable"},{"type":"function","name":"getAncestors","inputs":[{"name":"user","type":"address","internalType":"address"},{"name":"groupId","type":"bytes32","internalType":"bytes32"},{"name":"maxLevels","type":"uint256","internalType":"uint256"}],"outputs":[{"name":"","type":"address[]","internalType":"address[]"}],"stateMutability":"view"},{"type":"function","name":"getAuthorizedOracles","inputs":[],"outputs":[{"name":"","type":"address[]","internalType":"address[]"}],"stateMutability":"view"},{"type":"function","name":"getChildren","inputs":[{"name":"referrer","type":"address","internalType":"address"},{"name":"groupId","type":"bytes32","internalType":"bytes32"}],"outputs":[{"name":"","type":"address[]","internalType":"address[]"}],"stateMutability":"view"},{"type":"function","name":"getReferrer","inputs":[{"name":"user","type":"address","internalType":"address"},{"name":"groupId","type":"bytes32","internalType":"bytes32"}],"outputs":[{"name":"","type":"address","internalType":"address"}],"stateMutability":"view"},{"type":"function","name":"getRoot","inputs":[],"outputs":[{"name":"","type":"address","internalType":"address"}],"stateMutability":"view"},{"type":"function","name":"isAllowedReferrer","inputs":[{"name":"referrer","type":"address","internalType":"address"}],"outputs":[{"name":"","type":"bool","internalType":"bool"}],"stateMutability":"view"},{"type":"function","name":"isAllowlistEnabled","inputs":[],"outputs":[{"name":"","type":"bool","internalType":"bool"}],"stateMutability":"view"},{"type":"function","name":"isAuthorizedOracle","inputs":[{"name":"oracle","type":"address","internalType":"address"}],"outputs":[{"name":"","type":"bool","internalType":"bool"}],"stateMutability":"view"},{"type":"function","name":"isRegistered","inputs":[{"name":"user","type":"address","internalType":"address"},{"name":"groupId","type":"bytes32","internalType":"bytes32"}],"outputs":[{"name":"","type":"bool","internalType":"bool"}],"stateMutability":"view"},{"type":"function","name":"owner","inputs":[],"outputs":[{"name":"","type":"address","internalType":"address"}],"stateMutability":"view"},{"type":"function","name":"register","inputs":[{"name":"user","type":"address","internalType":"address"},{"name":"referrer","type":"address","internalType":"address"},{"name":"groupId","type":"bytes32","internalType":"bytes32"}],"outputs":[],"stateMutability":"nonpayable"},{"type":"function","name":"renounceOwnership","inputs":[],"outputs":[],"stateMutability":"nonpayable"},{"type":"function","name":"setAllowlistEnabled","inputs":[{"name":"enabled","type":"bool","internalType":"bool"}],"outputs":[],"stateMutability":"nonpayable"},{"type":"function","name":"transferOwnership","inputs":[{"name":"newOwner","type":"address","internalType":"address"}],"outputs":[],"stateMutability":"nonpayable"},{"type":"function","name":"unauthorizeOracle","inputs":[{"name":"oracle","type":"address","internalType":"address"}],"outputs":[],"stateMutability":"nonpayable"},{"type":"event","name":"OracleAuthorized","inputs":[{"name":"oracle","type":"address","indexed":true,"internalType":"address"}],"anonymous":false},{"type":"event","name":"OracleUnauthorized","inputs":[{"name":"oracle","type":"address","indexed":true,"internalType":"address"}],"anonymous":false},{"type":"event","name":"OwnershipTransferred","inputs":[{"name":"previousOwner","type":"address","indexed":true,"internalType":"address"},{"name":"newOwner","type":"address","indexed":true,"internalType":"address"}],"anonymous":false},{"type":"event","name":"ReferrerAllowed","inputs":[{"name":"referrer","type":"address","indexed":true,"internalType":"address"}],"anonymous":false},{"type":"event","name":"ReferrerDisallowed","inputs":[{"name":"referrer","type":"address","indexed":true,"internalType":"address"}],"anonymous":false},{"type":"event","name":"UserRegistered","inputs":[{"name":"user","type":"address","indexed":true,"internalType":"address"},{"name":"referrer","type":"address","indexed":true,"internalType":"address"}],"anonymous":false},{"type":"error","name":"AlreadyRegistered","inputs":[]},{"type":"error","name":"CycleDetected","inputs":[]},{"type":"error","name":"InvalidReferrer","inputs":[]},{"type":"error","name":"OwnableInvalidOwner","inputs":[{"name":"owner","type":"address","internalType":"address"}]},{"type":"error","name":"OwnableUnauthorizedAccount","inputs":[{"name":"account","type":"address","internalType":"address"}]},{"type":"error","name":"ReferrerNotAllowed","inputs":[]},{"type":"error","name":"UnauthorizedOracle","inputs":[]}],"bytecode":{"object":"0x6080346101f957601f610fe938819003918201601f19168301916001600160401b038311848410176101d2578084926060946040528339810103126101f957610047816101fd565b6020820151918215158093036101f957604061006391016101fd565b6001600160a01b039091169182156101e6575f80546001600160a01b031981168517825560405194916001600160a01b03909116907f8be0079c531659141344cd1fd0a4f28419497f9722a3daafe3b4186f6b6457e09080a36004805460ff9290921660ff1992831617905560015f81905260036020527fa15bc60c955c405d20d9149c709e2460f1c2d9a497496a7f46004d1772c3054c80549092161790556001600160a01b03168061011f575b50610dd790816102128239f35b805f52600560205260405f20600160ff19825416179055600654680100000000000000008110156101d25760018101806006558110156101be5760065f9081527ff652222313e28459528d920b65115c16c04f3efc82aaedc97be59f3f377c0d3f9190910180546001600160a01b031916831790557f5a7a3f71a35f5e2589980d29d1c6d8c75e39657751190874081e55208bae24b79080a25f610112565b634e487b7160e01b5f52603260045260245ffd5b634e487b7160e01b5f52604160045260245ffd5b631e4fbdf760e01b5f525f60045260245ffd5b5f80fd5b51906001600160a01b03821682036101f95756fe60806040526004361015610011575f80fd5b5f3560e01c80630f13b763146107f85780631736c59e1461077c57806349bcd248146107615780635ca1e16514610761578063622be01c146106b557806366695b1e1461062e57806369b15fce146105d95780636dfce94c146105ac5780636e138c841461052f578063715018a6146104d857806376bba3be1461037357806377ccfd4b146103295780638da5cb5b14610302578063bcd5addb1461029d578063bfe609da14610260578063d146fd1b1461023e578063d65ad694146101f2578063d7644ba2146101ba578063e96dc26a1461017e5763f2fde38b146100f5575f80fd5b3461017a57602036600319011261017a5761010e6108b7565b610116610b36565b6001600160a01b03168015610167575f80546001600160a01b03198116831782556001600160a01b0316907f8be0079c531659141344cd1fd0a4f28419497f9722a3daafe3b4186f6b6457e09080a3005b631e4fbdf760e01b5f525f60045260245ffd5b5f80fd5b3461017a57606036600319011261017a576101b66101aa61019d6108b7565b6044359060243590610a14565b604051918291826108e3565b0390f35b3461017a57602036600319011261017a5760043580151580910361017a576101e0610b36565b60ff8019600454169116176004555f80f35b3461017a57604036600319011261017a5761020b6108b7565b6024355f9081526001602090815260408083206001600160a01b0394851684528252918290205491519190921615158152f35b3461017a575f36600319011261017a57602060ff600454166040519015158152f35b3461017a57602036600319011261017a576001600160a01b036102816108b7565b165f526005602052602060ff60405f2054166040519015158152f35b3461017a57602036600319011261017a576102b66108b7565b6102be610b36565b6001600160a01b03165f818152600360205260408120805460ff191690557f2647f26cd7e99a6962d26a202946d415396386b336ad686ad80540f890c172489080a2005b3461017a575f36600319011261017a575f546040516001600160a01b039091168152602090f35b3461017a57604036600319011261017a576103426108b7565b6024355f9081526001602090815260408083206001600160a01b039485168452825291829020549151919092168152f35b3461017a57602036600319011261017a5761038c6108b7565b610394610b36565b6001600160a01b03165f8181526005602052604090205460ff166103b457005b5f818152600560205260408120805460ff191690555b60065490818110156104d157826103e082610925565b905460039190911b1c6001600160a01b0316146104015760019150016103ca565b5f1982019182116104bd5761043361041b61045793610925565b905460039190911b1c6001600160a01b031691610925565b81546001600160a01b0393841660039290921b91821b9390911b1916919091179055565b60065480156104a9575f190161046c81610925565b81549060018060a01b039060031b1b191690556006555b7fdd4fdcea7474ec44ed60a0e33a8b3e1a80b4002026a6bc5b8e6e97bd883641335f80a2005b634e487b7160e01b5f52603160045260245ffd5b634e487b7160e01b5f52601160045260245ffd5b5050610483565b3461017a575f36600319011261017a576104f0610b36565b5f80546001600160a01b0319811682556001600160a01b03167f8be0079c531659141344cd1fd0a4f28419497f9722a3daafe3b4186f6b6457e08280a3005b3461017a575f36600319011261017a5760405180602060065491828152019060065f527ff652222313e28459528d920b65115c16c04f3efc82aaedc97be59f3f377c0d3f905f5b81811061058d576101b6856101aa81870382610966565b82546001600160a01b0316845260209093019260019283019201610576565b3461017a57602036600319011261017a5760206105cf6105ca6108b7565b610988565b6040519015158152f35b3461017a57606036600319011261017a576105f26108b7565b6105fa6108cd565b90335f52600560205260ff60405f2054161561061f5761061d9160443591610b5c565b005b63db8d1fb760e01b5f5260045ffd5b3461017a57604036600319011261017a576106476108b7565b6024355f52600260205260405f209060018060a01b03165f5260205260405f206040519081602082549182815201915f5260205f20905f5b818110610696576101b6856101aa81870382610966565b82546001600160a01b031684526020909301926001928301920161067f565b3461017a57606036600319011261017a5760043567ffffffffffffffff811161017a573660238201121561017a57806004013567ffffffffffffffff811161017a573660248260051b8401011161017a5761070e6108cd565b9160443590335f52600560205260ff60405f2054161561061f575f5b8381101561061d57600581901b820160240135906001600160a01b038216820361017a5761075b8487600194610b5c565b0161072a565b3461017a575f36600319011261017a57602060405160018152f35b3461017a57602036600319011261017a576107956108b7565b61079d610b36565b6001600160a01b031680156107e957805f52600360205260405f20600160ff198254161790557f5474237ee6ac656b06436c20b20119512a0fa485f10e32134137743509f137755f80a2005b630c22084560e31b5f5260045ffd5b3461017a57602036600319011261017a576108116108b7565b610819610b36565b6001600160a01b0381169081156107e957815f52600560205260ff60405f2054161561084157005b815f52600560205260405f20600160ff1982541617905560065490600160401b8210156108a35761043382600161087d94016006556006610951565b7f5a7a3f71a35f5e2589980d29d1c6d8c75e39657751190874081e55208bae24b75f80a2005b634e487b7160e01b5f52604160045260245ffd5b600435906001600160a01b038216820361017a57565b602435906001600160a01b038216820361017a57565b60206040818301928281528451809452019201905f5b8181106109065750505090565b82516001600160a01b03168452602093840193909201916001016108f9565b60065481101561093d5760065f5260205f2001905f90565b634e487b7160e01b5f52603260045260245ffd5b805482101561093d575f5260205f2001905f90565b90601f8019910116810190811067ffffffffffffffff8211176108a357604052565b60ff60045416156109b0576001600160a01b03165f9081526003602052604090205460ff1690565b50600190565b67ffffffffffffffff81116108a35760051b60200190565b906109d8826109b6565b6109e56040519182610966565b82815280926109f6601f19916109b6565b0190602036910137565b805182101561093d5760209160051b010190565b6001600160a01b03169283158015610b2c575b610b1057610a34836109ce565b905f94835f52600160205260405f20905f5260205260405f2060018060a01b039054165b6001600160a01b031680151580610b05575b80610afc575b15610ab45780610a808785610a00565b525f84815260016020908152604080832093835292905220546001600160a01b0316945f1981146104bd5760010194610a58565b509250929050610ac3816109ce565b905f5b818110610ad4575090925050565b6001906001600160a01b03610ae98288610a00565b5116610af58286610a00565b5201610ac6565b50848610610a70565b506001811415610a6a565b92505050604051610b22602082610966565b5f81525f36813790565b5060018414610a27565b5f546001600160a01b03163303610b4957565b63118cdaa760e01b5f523360045260245ffd5b90916001600160a01b038216919082156107e9575f8181526001602090815260408083208684529091529020546001600160a01b0316610cbb576001600160a01b0384169384156107e9578385146107e957600185141580610caa575b6107e95760ff6004541680610ca2575b80610c8b575b610c7c5781610bde9184610d48565b610c6d57805f52600160205260405f20835f5260205260405f20846bffffffffffffffffffffffff60a01b8254161790555f52600260205260405f20835f5260205260405f2090815491600160401b8310156108a35782610433916001610c4795018155610951565b7f2138b9314634f9fdd5e49bee3eaf17ca557b6637524d0db759711c3bfcd3d8505f80a3565b639146c72360e01b5f5260045ffd5b630d09bb8b60e31b5f5260045ffd5b50845f52600360205260ff60405f20541615610bcf565b506001610bc9565b50610cb58282610cca565b15610bb9565b630ea075bf60e21b5f5260045ffd5b6001600160a01b03811660011480610d40575b610d39575f8281526001602090815260408083206001600160a01b038581168552925290912054161580159290610d1357505090565b9091505f52600260205260405f209060018060a01b03165f5260205260405f2054151590565b5050600190565b506001610cdd565b92905b6001600160a01b03168015610d99576001600160a01b0384168114610d90575f83815260016020908152604080832093835292905220546001600160a01b0316610d4b565b50915050600190565b509150505f9056fea264697066735822122097d1228708bf2d8200c13198aecfdd55f8d881958a22529d21256169c7b36aa264736f6c634300081a0033","linkReferences":{}},"methodIdentifiers":{"NULL_REFERRER()":"49bcd248","allowReferrer(address)":"1736c59e","authorizeOracle(address)":"0f13b763","batchRegister(address[],address,bytes32)":"622be01c","disallowReferrer(address)":"bcd5addb","getAncestors(address,bytes32,uint256)":"e96dc26a","getAuthorizedOracles()":"6e138c84","getChildren(address,bytes32)":"66695b1e","getReferrer(address,bytes32)":"77ccfd4b","getRoot()":"5ca1e165","isAllowedReferrer(address)":"6dfce94c","isAllowlistEnabled()":"d146fd1b","isAuthorizedOracle(address)":"bfe609da","isRegistered(address,bytes32)":"d65ad694","owner()":"8da5cb5b","register(address,address,bytes32)":"69b15fce","renounceOwnership()":"715018a6","setAllowlistEnabled(bool)":"d7644ba2","transferOwnership(address)":"f2fde38b","unauthorizeOracle(address)":"76bba3be"},"id":30}