{"abi":[{"type":"constructor","inputs":[{"name":"initialOwner","type":"address","internalType":"address"},{"name":"root","type":"address","internalType":"address"},{"name":"allowlistEnabled","type":"bool","internalType":"bool"},{"name":"initialOracle","type":"address","internalType":"address"}],"stateMutability":"nonpayable"},{"type":"function","name":"allowReferrer","inputs":[{"name":"referrer","type":"address","internalType":"address"}],"outputs":[],"stateMutability":"nonpayable"},{"type":"function","name":"authorizeOracle","inputs":[{"name":"oracle","type":"address","internalType":"address"}],"outputs":[],"stateMutability":"nonpayable"},{"type":"function","name":"batchRegister","inputs":[{"name":"users","type":"address[]","internalType":"address[]"},{"name":"referrer","type":"address","internalType":"address"},{"name":"groupId","type":"bytes32","internalType":"bytes32"}],"outputs":[],"stateMutability":"nonpayable"},{"type":"function","name":"disallowReferrer","inputs":[{"name":"referrer","type":"address","internalType":"address"}],"outputs":[],"stateMutability":"nonpayable"},{"type":"function","name":"getAncestors","inputs":[{"name":"user","type":"address","internalType":"address"},{"name":"groupId","type":"bytes32","internalType":"bytes32"},{"name":"maxLevels","type":"uint256","internalType":"uint256"}],"outputs":[{"name":"","type":"address[]","internalType":"address[]"}],"stateMutability":"view"},{"type":"function","name":"getAuthorizedOracles","inputs":[],"outputs":[{"name":"","type":"address[]","internalType":"address[]"}],"stateMutability":"view"},{"type":"function","name":"getChildren","inputs":[{"name":"referrer","type":"address","internalType":"address"},{"name":"groupId","type":"bytes32","internalType":"bytes32"}],"outputs":[{"name":"","type":"address[]","internalType":"address[]"}],"stateMutability":"view"},{"type":"function","name":"getReferrer","inputs":[{"name":"user","type":"address","internalType":"address"},{"name":"groupId","type":"bytes32","internalType":"bytes32"}],"outputs":[{"name":"","type":"address","internalType":"address"}],"stateMutability":"view"},{"type":"function","name":"getRoot","inputs":[],"outputs":[{"name":"","type":"address","internalType":"address"}],"stateMutability":"view"},{"type":"function","name":"isAllowedReferrer","inputs":[{"name":"referrer","type":"address","internalType":"address"}],"outputs":[{"name":"","type":"bool","internalType":"bool"}],"stateMutability":"view"},{"type":"function","name":"isAllowlistEnabled","inputs":[],"outputs":[{"name":"","type":"bool","internalType":"bool"}],"stateMutability":"view"},{"type":"function","name":"isAuthorizedOracle","inputs":[{"name":"oracle","type":"address","internalType":"address"}],"outputs":[{"name":"","type":"bool","internalType":"bool"}],"stateMutability":"view"},{"type":"function","name":"isRegistered","inputs":[{"name":"user","type":"address","internalType":"address"},{"name":"groupId","type":"bytes32","internalType":"bytes32"}],"outputs":[{"name":"","type":"bool","internalType":"bool"}],"stateMutability":"view"},{"type":"function","name":"owner","inputs":[],"outputs":[{"name":"","type":"address","internalType":"address"}],"stateMutability":"view"},{"type":"function","name":"register","inputs":[{"name":"user","type":"address","internalType":"address"},{"name":"referrer","type":"address","internalType":"address"},{"name":"groupId","type":"bytes32","internalType":"bytes32"}],"outputs":[],"stateMutability":"nonpayable"},{"type":"function","name":"renounceOwnership","inputs":[],"outputs":[],"stateMutability":"nonpayable"},{"type":"function","name":"setAllowlistEnabled","inputs":[{"name":"enabled","type":"bool","internalType":"bool"}],"outputs":[],"stateMutability":"nonpayable"},{"type":"function","name":"transferOwnership","inputs":[{"name":"newOwner","type":"address","internalType":"address"}],"outputs":[],"stateMutability":"nonpayable"},{"type":"function","name":"unauthorizeOracle","inputs":[{"name":"oracle","type":"address","internalType":"address"}],"outputs":[],"stateMutability":"nonpayable"},{"type":"event","name":"OracleAuthorized","inputs":[{"name":"oracle","type":"address","indexed":true,"internalType":"address"}],"anonymous":false},{"type":"event","name":"OracleUnauthorized","inputs":[{"name":"oracle","type":"address","indexed":true,"internalType":"address"}],"anonymous":false},{"type":"event","name":"OwnershipTransferred","inputs":[{"name":"previousOwner","type":"address","indexed":true,"internalType":"address"},{"name":"newOwner","type":"address","indexed":true,"internalType":"address"}],"anonymous":false},{"type":"event","name":"ReferrerAllowed","inputs":[{"name":"referrer","type":"address","indexed":true,"internalType":"address"}],"anonymous":false},{"type":"event","name":"ReferrerDisallowed","inputs":[{"name":"referrer","type":"address","indexed":true,"internalType":"address"}],"anonymous":false},{"type":"event","name":"UserRegistered","inputs":[{"name":"user","type":"address","indexed":true,"internalType":"address"},{"name":"referrer","type":"address","indexed":true,"internalType":"address"}],"anonymous":false},{"type":"error","name":"AlreadyRegistered","inputs":[]},{"type":"error","name":"CycleDetected","inputs":[]},{"type":"error","name":"InvalidReferrer","inputs":[]},{"type":"error","name":"OwnableInvalidOwner","inputs":[{"name":"owner","type":"address","internalType":"address"}]},{"type":"error","name":"OwnableUnauthorizedAccount","inputs":[{"name":"account","type":"address","internalType":"address"}]},{"type":"error","name":"ReferrerNotAllowed","inputs":[]},{"type":"error","name":"UnauthorizedOracle","inputs":[]}],"bytecode":{"object":"0x60803461021557601f61108638819003918201601f19168301916001600160401b038311848410176101d2578084926080946040528339810103126102155761004781610219565b61005360208301610219565b916040810151908115158092036102155760606100709101610219565b6001600160a01b03909216928315610202575f80546001600160a01b031981168617825560405195916001600160a01b03909116907f8be0079c531659141344cd1fd0a4f28419497f9722a3daafe3b4186f6b6457e09080a3600480546001600160a81b031916600883901b610100600160a81b03161760ff909316929092179091556001600160a01b0316806101e6575b506001600160a01b03168061011f575b50610e58908161022e8239f35b805f52600560205260405f20600160ff19825416179055600654680100000000000000008110156101d25760018101806006558110156101be5760065f9081527ff652222313e28459528d920b65115c16c04f3efc82aaedc97be59f3f377c0d3f9190910180546001600160a01b031916831790557f5a7a3f71a35f5e2589980d29d1c6d8c75e39657751190874081e55208bae24b79080a25f610112565b634e487b7160e01b5f52603260045260245ffd5b634e487b7160e01b5f52604160045260245ffd5b5f52600360205260405f20600160ff198254161790555f610102565b631e4fbdf760e01b5f525f60045260245ffd5b5f80fd5b51906001600160a01b03821682036102155756fe60806040526004361015610011575f80fd5b5f3560e01c80630f13b763146107fe5780631736c59e146107825780635ca1e16514610756578063622be01c146106aa57806366695b1e1461062357806369b15fce146105ce5780636dfce94c146105a15780636e138c8414610524578063715018a6146104cd57806376bba3be1461036857806377ccfd4b1461031e5780638da5cb5b146102f7578063bcd5addb14610292578063bfe609da14610255578063d146fd1b14610233578063d65ad694146101e7578063d7644ba2146101af578063e96dc26a146101735763f2fde38b146100ea575f80fd5b3461016f57602036600319011261016f576101036108bd565b61010b610b56565b6001600160a01b0316801561015c575f80546001600160a01b03198116831782556001600160a01b0316907f8be0079c531659141344cd1fd0a4f28419497f9722a3daafe3b4186f6b6457e09080a3005b631e4fbdf760e01b5f525f60045260245ffd5b5f80fd5b3461016f57606036600319011261016f576101ab61019f6101926108bd565b6044359060243590610a1a565b604051918291826108e9565b0390f35b3461016f57602036600319011261016f5760043580151580910361016f576101d5610b56565b60ff8019600454169116176004555f80f35b3461016f57604036600319011261016f576102006108bd565b6024355f9081526001602090815260408083206001600160a01b0394851684528252918290205491519190921615158152f35b3461016f575f36600319011261016f57602060ff600454166040519015158152f35b3461016f57602036600319011261016f576001600160a01b036102766108bd565b165f526005602052602060ff60405f2054166040519015158152f35b3461016f57602036600319011261016f576102ab6108bd565b6102b3610b56565b6001600160a01b03165f818152600360205260408120805460ff191690557f2647f26cd7e99a6962d26a202946d415396386b336ad686ad80540f890c172489080a2005b3461016f575f36600319011261016f575f546040516001600160a01b039091168152602090f35b3461016f57604036600319011261016f576103376108bd565b6024355f9081526001602090815260408083206001600160a01b039485168452825291829020549151919092168152f35b3461016f57602036600319011261016f576103816108bd565b610389610b56565b6001600160a01b03165f8181526005602052604090205460ff166103a957005b5f818152600560205260408120805460ff191690555b60065490818110156104c657826103d58261092b565b905460039190911b1c6001600160a01b0316146103f65760019150016103bf565b5f1982019182116104b25761042861041061044c9361092b565b905460039190911b1c6001600160a01b03169161092b565b81546001600160a01b0393841660039290921b91821b9390911b1916919091179055565b600654801561049e575f19016104618161092b565b81549060018060a01b039060031b1b191690556006555b7fdd4fdcea7474ec44ed60a0e33a8b3e1a80b4002026a6bc5b8e6e97bd883641335f80a2005b634e487b7160e01b5f52603160045260245ffd5b634e487b7160e01b5f52601160045260245ffd5b5050610478565b3461016f575f36600319011261016f576104e5610b56565b5f80546001600160a01b0319811682556001600160a01b03167f8be0079c531659141344cd1fd0a4f28419497f9722a3daafe3b4186f6b6457e08280a3005b3461016f575f36600319011261016f5760405180602060065491828152019060065f527ff652222313e28459528d920b65115c16c04f3efc82aaedc97be59f3f377c0d3f905f5b818110610582576101ab8561019f8187038261096c565b82546001600160a01b031684526020909301926001928301920161056b565b3461016f57602036600319011261016f5760206105c46105bf6108bd565b61098e565b6040519015158152f35b3461016f57606036600319011261016f576105e76108bd565b6105ef6108d3565b90335f52600560205260ff60405f20541615610614576106129160443591610b7c565b005b63db8d1fb760e01b5f5260045ffd5b3461016f57604036600319011261016f5761063c6108bd565b6024355f52600260205260405f209060018060a01b03165f5260205260405f206040519081602082549182815201915f5260205f20905f5b81811061068b576101ab8561019f8187038261096c565b82546001600160a01b0316845260209093019260019283019201610674565b3461016f57606036600319011261016f5760043567ffffffffffffffff811161016f573660238201121561016f57806004013567ffffffffffffffff811161016f573660248260051b8401011161016f576107036108d3565b9160443590335f52600560205260ff60405f20541615610614575f5b8381101561061257600581901b820160240135906001600160a01b038216820361016f576107508487600194610b7c565b0161071f565b3461016f575f36600319011261016f5760045460405160089190911c6001600160a01b03168152602090f35b3461016f57602036600319011261016f5761079b6108bd565b6107a3610b56565b6001600160a01b031680156107ef57805f52600360205260405f20600160ff198254161790557f5474237ee6ac656b06436c20b20119512a0fa485f10e32134137743509f137755f80a2005b630c22084560e31b5f5260045ffd5b3461016f57602036600319011261016f576108176108bd565b61081f610b56565b6001600160a01b0381169081156107ef57815f52600560205260ff60405f2054161561084757005b815f52600560205260405f20600160ff1982541617905560065490600160401b8210156108a95761042882600161088394016006556006610957565b7f5a7a3f71a35f5e2589980d29d1c6d8c75e39657751190874081e55208bae24b75f80a2005b634e487b7160e01b5f52604160045260245ffd5b600435906001600160a01b038216820361016f57565b602435906001600160a01b038216820361016f57565b60206040818301928281528451809452019201905f5b81811061090c5750505090565b82516001600160a01b03168452602093840193909201916001016108ff565b6006548110156109435760065f5260205f2001905f90565b634e487b7160e01b5f52603260045260245ffd5b8054821015610943575f5260205f2001905f90565b90601f8019910116810190811067ffffffffffffffff8211176108a957604052565b60ff60045416156109b6576001600160a01b03165f9081526003602052604090205460ff1690565b50600190565b67ffffffffffffffff81116108a95760051b60200190565b906109de826109bc565b6109eb604051918261096c565b82815280926109fc601f19916109bc565b0190602036910137565b80518210156109435760209160051b010190565b6001600160a01b03169283158015610b3f575b610b2357610a3a836109d4565b905f94835f52600160205260405f20905f5260205260405f2060018060a01b039054165b6001600160a01b031680151580610b0b575b80610b02575b15610aba5780610a868785610a06565b525f84815260016020908152604080832093835292905220546001600160a01b0316945f1981146104b25760010194610a5e565b509250929050610ac9816109d4565b905f5b818110610ada575090925050565b6001906001600160a01b03610aef8288610a06565b5116610afb8286610a06565b5201610acc565b50848610610a76565b5060045460081c6001600160a01b0316811415610a70565b92505050604051610b3560208261096c565b5f81525f36813790565b5060045460081c6001600160a01b03168414610a2d565b5f546001600160a01b03163303610b6957565b63118cdaa760e01b5f523360045260245ffd5b90916001600160a01b038216919082156107ef575f8181526001602090815260408083208684529091529020546001600160a01b0316610d2f576001600160a01b0384169384158080610d18575b6107ef5715908180610d0f575b6107ef578180610cf7575b80610ce6575b6107ef5760ff6004541680610cdf575b80610cc8575b610cb95782610c0d9185610dc9565b610caa57815f52600160205260405f20845f5260205260405f20856bffffffffffffffffffffffff60a01b825416179055610c6b575b50507f2138b9314634f9fdd5e49bee3eaf17ca557b6637524d0db759711c3bfcd3d8505f80a3565b5f52600260205260405f20835f5260205260405f2090815491600160401b8310156108a95782610428916001610ca395018155610957565b5f80610c43565b639146c72360e01b5f5260045ffd5b630d09bb8b60e31b5f5260045ffd5b50855f52600360205260ff60405f20541615610bfe565b5081610bf8565b50610cf18382610d3e565b15610be8565b5060045460081c6001600160a01b0316861415610be2565b50848614610bd7565b5060045460081c6001600160a01b03161515610bca565b630ea075bf60e21b5f5260045ffd5b60045460081c6001600160a01b0390811690821681149081610dbf575b50610db8575f8281526001602090815260408083206001600160a01b038581168552925290912054161580159290610d9257505090565b9091505f52600260205260405f209060018060a01b03165f5260205260405f2054151590565b5050600190565b905015155f610d5b565b92905b6001600160a01b03168015610e1a576001600160a01b0384168114610e11575f83815260016020908152604080832093835292905220546001600160a01b0316610dcc565b50915050600190565b509150505f9056fea2646970667358221220957b3e540675e947f7b155ee343fd3cf2cd0c27ba4b1a6fc8582c7b6c3e90bda64736f6c634300081a0033","linkReferences":{}},"methodIdentifiers":{"allowReferrer(address)":"1736c59e","authorizeOracle(address)":"0f13b763","batchRegister(address[],address,bytes32)":"622be01c","disallowReferrer(address)":"bcd5addb","getAncestors(address,bytes32,uint256)":"e96dc26a","getAuthorizedOracles()":"6e138c84","getChildren(address,bytes32)":"66695b1e","getReferrer(address,bytes32)":"77ccfd4b","getRoot()":"5ca1e165","isAllowedReferrer(address)":"6dfce94c","isAllowlistEnabled()":"d146fd1b","isAuthorizedOracle(address)":"bfe609da","isRegistered(address,bytes32)":"d65ad694","owner()":"8da5cb5b","register(address,address,bytes32)":"69b15fce","renounceOwnership()":"715018a6","setAllowlistEnabled(bool)":"d7644ba2","transferOwnership(address)":"f2fde38b","unauthorizeOracle(address)":"76bba3be"},"id":33}