{"abi":[{"type":"constructor","inputs":[{"name":"initialOwner","type":"address","internalType":"address"},{"name":"initialOracle","type":"address","internalType":"address"}],"stateMutability":"nonpayable"},{"type":"function","name":"REFERRAL_ROOT","inputs":[],"outputs":[{"name":"","type":"address","internalType":"address"}],"stateMutability":"view"},{"type":"function","name":"authorizeOracle","inputs":[{"name":"oracle","type":"address","internalType":"address"}],"outputs":[],"stateMutability":"nonpayable"},{"type":"function","name":"batchRegister","inputs":[{"name":"users","type":"address[]","internalType":"address[]"},{"name":"referrer","type":"address","internalType":"address"},{"name":"groupId","type":"bytes32","internalType":"bytes32"}],"outputs":[],"stateMutability":"nonpayable"},{"type":"function","name":"getAncestors","inputs":[{"name":"user","type":"address","internalType":"address"},{"name":"groupId","type":"bytes32","internalType":"bytes32"},{"name":"maxLevels","type":"uint256","internalType":"uint256"}],"outputs":[{"name":"","type":"address[]","internalType":"address[]"}],"stateMutability":"view"},{"type":"function","name":"getAuthorizedOracles","inputs":[],"outputs":[{"name":"","type":"address[]","internalType":"address[]"}],"stateMutability":"view"},{"type":"function","name":"getChildren","inputs":[{"name":"referrer","type":"address","internalType":"address"},{"name":"groupId","type":"bytes32","internalType":"bytes32"}],"outputs":[{"name":"","type":"address[]","internalType":"address[]"}],"stateMutability":"view"},{"type":"function","name":"getReferrer","inputs":[{"name":"user","type":"address","internalType":"address"},{"name":"groupId","type":"bytes32","internalType":"bytes32"}],"outputs":[{"name":"","type":"address","internalType":"address"}],"stateMutability":"view"},{"type":"function","name":"isAuthorizedOracle","inputs":[{"name":"oracle","type":"address","internalType":"address"}],"outputs":[{"name":"","type":"bool","internalType":"bool"}],"stateMutability":"view"},{"type":"function","name":"isRegistered","inputs":[{"name":"user","type":"address","internalType":"address"},{"name":"groupId","type":"bytes32","internalType":"bytes32"}],"outputs":[{"name":"","type":"bool","internalType":"bool"}],"stateMutability":"view"},{"type":"function","name":"owner","inputs":[],"outputs":[{"name":"","type":"address","internalType":"address"}],"stateMutability":"view"},{"type":"function","name":"register","inputs":[{"name":"user","type":"address","internalType":"address"},{"name":"referrer","type":"address","internalType":"address"},{"name":"groupId","type":"bytes32","internalType":"bytes32"}],"outputs":[],"stateMutability":"nonpayable"},{"type":"function","name":"renounceOwnership","inputs":[],"outputs":[],"stateMutability":"nonpayable"},{"type":"function","name":"transferOwnership","inputs":[{"name":"newOwner","type":"address","internalType":"address"}],"outputs":[],"stateMutability":"nonpayable"},{"type":"function","name":"unauthorizeOracle","inputs":[{"name":"oracle","type":"address","internalType":"address"}],"outputs":[],"stateMutability":"nonpayable"},{"type":"event","name":"OracleAuthorized","inputs":[{"name":"oracle","type":"address","indexed":true,"internalType":"address"}],"anonymous":false},{"type":"event","name":"OracleUnauthorized","inputs":[{"name":"oracle","type":"address","indexed":true,"internalType":"address"}],"anonymous":false},{"type":"event","name":"OwnershipTransferred","inputs":[{"name":"previousOwner","type":"address","indexed":true,"internalType":"address"},{"name":"newOwner","type":"address","indexed":true,"internalType":"address"}],"anonymous":false},{"type":"event","name":"UserRegistered","inputs":[{"name":"user","type":"address","indexed":true,"internalType":"address"},{"name":"referrer","type":"address","indexed":true,"internalType":"address"}],"anonymous":false},{"type":"error","name":"AlreadyRegistered","inputs":[]},{"type":"error","name":"CycleDetected","inputs":[]},{"type":"error","name":"InvalidReferrer","inputs":[]},{"type":"error","name":"OwnableInvalidOwner","inputs":[{"name":"owner","type":"address","internalType":"address"}]},{"type":"error","name":"OwnableUnauthorizedAccount","inputs":[{"name":"account","type":"address","internalType":"address"}]},{"type":"error","name":"UnauthorizedOracle","inputs":[]}],"bytecode":{"object":"0x6080346101a157601f610d8438819003918201601f19168301916001600160401b0383118484101761017a5780849260409485528339810103126101a157610052602061004b836101a5565b92016101a5565b6001600160a01b0390911690811561018e575f80546001600160a01b031981168417825560405193916001600160a01b03909116907f8be0079c531659141344cd1fd0a4f28419497f9722a3daafe3b4186f6b6457e09080a36001600160a01b0316806100c7575b50610bca90816101ba8239f35b805f52600360205260405f20600160ff198254161790556004546801000000000000000081101561017a5760018101806004558110156101665760045f9081527f8a35acfbc15ff81a39ae7d344fd709f28e8600b4aa8c65c6b64bfe7fe36bd19b9190910180546001600160a01b031916831790557f5a7a3f71a35f5e2589980d29d1c6d8c75e39657751190874081e55208bae24b79080a25f6100ba565b634e487b7160e01b5f52603260045260245ffd5b634e487b7160e01b5f52604160045260245ffd5b631e4fbdf760e01b5f525f60045260245ffd5b5f80fd5b51906001600160a01b03821682036101a15756fe60806040526004361015610011575f80fd5b5f3560e01c80630f13b7631461064e578063622be01c146105a257806366695b1e1461051b57806369b15fce146104c65780636e138c8414610449578063715018a6146103f257806376bba3be1461028d57806377ccfd4b146102435780638da5cb5b1461021c578063ba59475114610201578063bfe609da146101c4578063d65ad69414610178578063e96dc26a1461013c5763f2fde38b146100b3575f80fd5b34610138576020366003190112610138576100cc61071c565b6100d461096d565b6001600160a01b03168015610125575f80546001600160a01b03198116831782556001600160a01b0316907f8be0079c531659141344cd1fd0a4f28419497f9722a3daafe3b4186f6b6457e09080a3005b631e4fbdf760e01b5f525f60045260245ffd5b5f80fd5b346101385760603660031901126101385761017461016861015b61071c565b604435906024359061084b565b60405191829182610748565b0390f35b346101385760403660031901126101385761019161071c565b6024355f9081526001602090815260408083206001600160a01b0394851684528252918290205491519190921615158152f35b34610138576020366003190112610138576001600160a01b036101e561071c565b165f526003602052602060ff60405f2054166040519015158152f35b34610138575f36600319011261013857602060405160018152f35b34610138575f366003190112610138575f546040516001600160a01b039091168152602090f35b346101385760403660031901126101385761025c61071c565b6024355f9081526001602090815260408083206001600160a01b039485168452825291829020549151919092168152f35b34610138576020366003190112610138576102a661071c565b6102ae61096d565b6001600160a01b03165f8181526003602052604090205460ff166102ce57005b5f818152600360205260408120805460ff191690555b60045490818110156103eb57826102fa8261078a565b905460039190911b1c6001600160a01b03161461031b5760019150016102e4565b5f1982019182116103d75761034d6103356103719361078a565b905460039190911b1c6001600160a01b03169161078a565b81546001600160a01b0393841660039290921b91821b9390911b1916919091179055565b60045480156103c3575f19016103868161078a565b81549060018060a01b039060031b1b191690556004555b7fdd4fdcea7474ec44ed60a0e33a8b3e1a80b4002026a6bc5b8e6e97bd883641335f80a2005b634e487b7160e01b5f52603160045260245ffd5b634e487b7160e01b5f52601160045260245ffd5b505061039d565b34610138575f3660031901126101385761040a61096d565b5f80546001600160a01b0319811682556001600160a01b03167f8be0079c531659141344cd1fd0a4f28419497f9722a3daafe3b4186f6b6457e08280a3005b34610138575f3660031901126101385760405180602060045491828152019060045f527f8a35acfbc15ff81a39ae7d344fd709f28e8600b4aa8c65c6b64bfe7fe36bd19b905f5b8181106104a75761017485610168818703826107cb565b82546001600160a01b0316845260209093019260019283019201610490565b34610138576060366003190112610138576104df61071c565b6104e7610732565b90335f52600360205260ff60405f2054161561050c5761050a9160443591610993565b005b63db8d1fb760e01b5f5260045ffd5b346101385760403660031901126101385761053461071c565b6024355f52600260205260405f209060018060a01b03165f5260205260405f206040519081602082549182815201915f5260205f20905f5b8181106105835761017485610168818703826107cb565b82546001600160a01b031684526020909301926001928301920161056c565b346101385760603660031901126101385760043567ffffffffffffffff8111610138573660238201121561013857806004013567ffffffffffffffff8111610138573660248260051b84010111610138576105fb610732565b9160443590335f52600360205260ff60405f2054161561050c575f5b8381101561050a57600581901b820160240135906001600160a01b0382168203610138576106488487600194610993565b01610617565b346101385760203660031901126101385761066761071c565b61066f61096d565b6001600160a01b03811690811561070d57815f52600360205260ff60405f2054161561069757005b815f52600360205260405f20600160ff1982541617905560045490600160401b8210156106f95761034d8260016106d3940160045560046107b6565b7f5a7a3f71a35f5e2589980d29d1c6d8c75e39657751190874081e55208bae24b75f80a2005b634e487b7160e01b5f52604160045260245ffd5b630c22084560e31b5f5260045ffd5b600435906001600160a01b038216820361013857565b602435906001600160a01b038216820361013857565b60206040818301928281528451809452019201905f5b81811061076b5750505090565b82516001600160a01b031684526020938401939092019160010161075e565b6004548110156107a25760045f5260205f2001905f90565b634e487b7160e01b5f52603260045260245ffd5b80548210156107a2575f5260205f2001905f90565b90601f8019910116810190811067ffffffffffffffff8211176106f957604052565b67ffffffffffffffff81116106f95760051b60200190565b9061080f826107ed565b61081c60405191826107cb565b828152809261082d601f19916107ed565b0190602036910137565b80518210156107a25760209160051b010190565b6001600160a01b03169283158015610963575b6109475761086b83610805565b905f94835f52600160205260405f20905f5260205260405f2060018060a01b039054165b6001600160a01b03168015158061093c575b80610933575b156108eb57806108b78785610837565b525f84815260016020908152604080832093835292905220546001600160a01b0316945f1981146103d7576001019461088f565b5092509290506108fa81610805565b905f5b81811061090b575090925050565b6001906001600160a01b036109208288610837565b511661092c8286610837565b52016108fd565b508486106108a7565b5060018114156108a1565b925050506040516109596020826107cb565b5f81525f36813790565b506001841461085e565b5f546001600160a01b0316330361098057565b63118cdaa760e01b5f523360045260245ffd5b90916001600160a01b0382169190821561070d575f8181526001602090815260408083208684529091529020546001600160a01b0316610aae576001600160a01b03841693841561070d5783851461070d57600185141580610a9d575b61070d57816109ff9184610b3b565b610a8e57805f52600160205260405f20835f5260205260405f20846bffffffffffffffffffffffff60a01b8254161790555f52600260205260405f20835f5260205260405f2090815491600160401b8310156106f9578261034d916001610a68950181556107b6565b7f2138b9314634f9fdd5e49bee3eaf17ca557b6637524d0db759711c3bfcd3d8505f80a3565b639146c72360e01b5f5260045ffd5b50610aa88282610abd565b156109f0565b630ea075bf60e21b5f5260045ffd5b6001600160a01b03811660011480610b33575b610b2c575f8281526001602090815260408083206001600160a01b038581168552925290912054161580159290610b0657505090565b9091505f52600260205260405f209060018060a01b03165f5260205260405f2054151590565b5050600190565b506001610ad0565b92905b6001600160a01b03168015610b8c576001600160a01b0384168114610b83575f83815260016020908152604080832093835292905220546001600160a01b0316610b3e565b50915050600190565b509150505f9056fea2646970667358221220865fecfc15caa9cb5627154481cba3fb13d0e26ca2180439c9e04383c2899be964736f6c634300081a0033","linkReferences":{}},"methodIdentifiers":{"REFERRAL_ROOT()":"ba594751","authorizeOracle(address)":"0f13b763","batchRegister(address[],address,bytes32)":"622be01c","getAncestors(address,bytes32,uint256)":"e96dc26a","getAuthorizedOracles()":"6e138c84","getChildren(address,bytes32)":"66695b1e","getReferrer(address,bytes32)":"77ccfd4b","isAuthorizedOracle(address)":"bfe609da","isRegistered(address,bytes32)":"d65ad694","owner()":"8da5cb5b","register(address,address,bytes32)":"69b15fce","renounceOwnership()":"715018a6","transferOwnership(address)":"f2fde38b","unauthorizeOracle(address)":"76bba3be"},"id":21}