{"abi":[{"type":"constructor","inputs":[{"name":"initialOwner","type":"address","internalType":"address"},{"name":"initialOracle","type":"address","internalType":"address"}],"stateMutability":"nonpayable"},{"type":"function","name":"REFERRAL_ROOT","inputs":[],"outputs":[{"name":"","type":"address","internalType":"address"}],"stateMutability":"view"},{"type":"function","name":"authorizeOracle","inputs":[{"name":"oracle","type":"address","internalType":"address"}],"outputs":[],"stateMutability":"nonpayable"},{"type":"function","name":"batchRegister","inputs":[{"name":"users","type":"address[]","internalType":"address[]"},{"name":"referrer","type":"address","internalType":"address"},{"name":"groupId","type":"bytes32","internalType":"bytes32"}],"outputs":[],"stateMutability":"nonpayable"},{"type":"function","name":"getAncestors","inputs":[{"name":"user","type":"address","internalType":"address"},{"name":"groupId","type":"bytes32","internalType":"bytes32"},{"name":"maxLevels","type":"uint256","internalType":"uint256"}],"outputs":[{"name":"","type":"address[]","internalType":"address[]"}],"stateMutability":"view"},{"type":"function","name":"getAuthorizedOracles","inputs":[],"outputs":[{"name":"","type":"address[]","internalType":"address[]"}],"stateMutability":"view"},{"type":"function","name":"getChildren","inputs":[{"name":"referrer","type":"address","internalType":"address"},{"name":"groupId","type":"bytes32","internalType":"bytes32"}],"outputs":[{"name":"","type":"address[]","internalType":"address[]"}],"stateMutability":"view"},{"type":"function","name":"getReferrer","inputs":[{"name":"user","type":"address","internalType":"address"},{"name":"groupId","type":"bytes32","internalType":"bytes32"}],"outputs":[{"name":"","type":"address","internalType":"address"}],"stateMutability":"view"},{"type":"function","name":"isAuthorizedOracle","inputs":[{"name":"oracle","type":"address","internalType":"address"}],"outputs":[{"name":"","type":"bool","internalType":"bool"}],"stateMutability":"view"},{"type":"function","name":"isRegistered","inputs":[{"name":"user","type":"address","internalType":"address"},{"name":"groupId","type":"bytes32","internalType":"bytes32"}],"outputs":[{"name":"","type":"bool","internalType":"bool"}],"stateMutability":"view"},{"type":"function","name":"owner","inputs":[],"outputs":[{"name":"","type":"address","internalType":"address"}],"stateMutability":"view"},{"type":"function","name":"register","inputs":[{"name":"user","type":"address","internalType":"address"},{"name":"referrer","type":"address","internalType":"address"},{"name":"groupId","type":"bytes32","internalType":"bytes32"}],"outputs":[],"stateMutability":"nonpayable"},{"type":"function","name":"transferOwnership","inputs":[{"name":"newOwner","type":"address","internalType":"address"}],"outputs":[],"stateMutability":"nonpayable"},{"type":"function","name":"unauthorizeOracle","inputs":[{"name":"oracle","type":"address","internalType":"address"}],"outputs":[],"stateMutability":"nonpayable"},{"type":"event","name":"OracleAuthorized","inputs":[{"name":"oracle","type":"address","indexed":true,"internalType":"address"}],"anonymous":false},{"type":"event","name":"OracleUnauthorized","inputs":[{"name":"oracle","type":"address","indexed":true,"internalType":"address"}],"anonymous":false},{"type":"event","name":"OwnershipTransferred","inputs":[{"name":"user","type":"address","indexed":true,"internalType":"address"},{"name":"newOwner","type":"address","indexed":true,"internalType":"address"}],"anonymous":false},{"type":"event","name":"UserRegistered","inputs":[{"name":"user","type":"address","indexed":true,"internalType":"address"},{"name":"referrer","type":"address","indexed":true,"internalType":"address"}],"anonymous":false},{"type":"error","name":"InvalidOracleAddress","inputs":[]},{"type":"error","name":"InvalidReferrerAddress","inputs":[]},{"type":"error","name":"InvalidUserAddress","inputs":[]},{"type":"error","name":"ReferrerNotInTree","inputs":[]},{"type":"error","name":"SelfReferralNotAllowed","inputs":[]},{"type":"error","name":"UnauthorizedOracle","inputs":[]},{"type":"error","name":"UserAlreadyRegistered","inputs":[]}],"bytecode":{"object":"0x60803461017b57601f610ce338819003918201601f19168301916001600160401b0383118484101761016757808492604094855283398101031261017b57610052602061004b8361017f565b920161017f565b5f80546001600160a01b0319166001600160a01b03909316928317815560405192907f8be0079c531659141344cd1fd0a4f28419497f9722a3daafe3b4186f6b6457e08180a36001600160a01b0316806100b4575b50610b4f90816101948239f35b805f52600360205260405f20600160ff19825416179055600454680100000000000000008110156101675760018101806004558110156101535760045f9081527f8a35acfbc15ff81a39ae7d344fd709f28e8600b4aa8c65c6b64bfe7fe36bd19b9190910180546001600160a01b031916831790557f5a7a3f71a35f5e2589980d29d1c6d8c75e39657751190874081e55208bae24b79080a25f6100a7565b634e487b7160e01b5f52603260045260245ffd5b634e487b7160e01b5f52604160045260245ffd5b5f80fd5b51906001600160a01b038216820361017b5756fe60806040526004361015610011575f80fd5b5f3560e01c80630f13b763146105e8578063622be01c1461053c57806366695b1e146104b557806369b15fce146104605780636e138c84146103e357806376bba3be1461027257806377ccfd4b146102285780638da5cb5b14610201578063ba594751146101e6578063bfe609da146101a9578063d65ad6941461015d578063e96dc26a146101215763f2fde38b146100a8575f80fd5b3461011d57602036600319011261011d576100c16106c2565b5f54906100d8336001600160a01b03841614610730565b60018060a01b031680916bffffffffffffffffffffffff60a01b16175f55337f8be0079c531659141344cd1fd0a4f28419497f9722a3daafe3b4186f6b6457e05f80a3005b5f80fd5b3461011d57606036600319011261011d5761015961014d6101406106c2565b604435906024359061082c565b604051918291826106ee565b0390f35b3461011d57604036600319011261011d576101766106c2565b6024355f9081526001602090815260408083206001600160a01b0394851684528252918290205491519190921615158152f35b3461011d57602036600319011261011d576001600160a01b036101ca6106c2565b165f526003602052602060ff60405f2054166040519015158152f35b3461011d575f36600319011261011d57602060405160018152f35b3461011d575f36600319011261011d575f546040516001600160a01b039091168152602090f35b3461011d57604036600319011261011d576102416106c2565b6024355f9081526001602090815260408083206001600160a01b039485168452825291829020549151919092168152f35b3461011d57602036600319011261011d5761028b6106c2565b61029f60018060a01b035f54163314610730565b6001600160a01b03165f8181526003602052604090205460ff166102bf57005b5f818152600360205260408120805460ff191690555b60045490818110156103dc57826102eb8261076b565b905460039190911b1c6001600160a01b03161461030c5760019150016102d5565b5f1982019182116103c85761033e6103266103629361076b565b905460039190911b1c6001600160a01b03169161076b565b81546001600160a01b0393841660039290921b91821b9390911b1916919091179055565b60045480156103b4575f19016103778161076b565b81549060018060a01b039060031b1b191690556004555b7fdd4fdcea7474ec44ed60a0e33a8b3e1a80b4002026a6bc5b8e6e97bd883641335f80a2005b634e487b7160e01b5f52603160045260245ffd5b634e487b7160e01b5f52601160045260245ffd5b505061038e565b3461011d575f36600319011261011d5760405180602060045491828152019060045f527f8a35acfbc15ff81a39ae7d344fd709f28e8600b4aa8c65c6b64bfe7fe36bd19b905f5b818110610441576101598561014d818703826107ac565b82546001600160a01b031684526020909301926001928301920161042a565b3461011d57606036600319011261011d576104796106c2565b6104816106d8565b90335f52600360205260ff60405f205416156104a6576104a4916044359161094e565b005b63db8d1fb760e01b5f5260045ffd5b3461011d57604036600319011261011d576104ce6106c2565b6024355f52600260205260405f209060018060a01b03165f5260205260405f206040519081602082549182815201915f5260205f20905f5b81811061051d576101598561014d818703826107ac565b82546001600160a01b0316845260209093019260019283019201610506565b3461011d57606036600319011261011d5760043567ffffffffffffffff811161011d573660238201121561011d57806004013567ffffffffffffffff811161011d573660248260051b8401011161011d576105956106d8565b9160443590335f52600360205260ff60405f205416156104a6575f5b838110156104a457600581901b820160240135906001600160a01b038216820361011d576105e2848760019461094e565b016105b1565b3461011d57602036600319011261011d576106016106c2565b61061560018060a01b035f54163314610730565b6001600160a01b0381169081156106b357815f52600360205260ff60405f2054161561063d57005b815f52600360205260405f20600160ff1982541617905560045490600160401b82101561069f5761033e82600161067994016004556004610797565b7f5a7a3f71a35f5e2589980d29d1c6d8c75e39657751190874081e55208bae24b75f80a2005b634e487b7160e01b5f52604160045260245ffd5b635521068160e01b5f5260045ffd5b600435906001600160a01b038216820361011d57565b602435906001600160a01b038216820361011d57565b60206040818301928281528451809452019201905f5b8181106107115750505090565b82516001600160a01b0316845260209384019390920191600101610704565b1561073757565b60405162461bcd60e51b815260206004820152600c60248201526b15539055551213d49256915160a21b6044820152606490fd5b6004548110156107835760045f5260205f2001905f90565b634e487b7160e01b5f52603260045260245ffd5b8054821015610783575f5260205f2001905f90565b90601f8019910116810190811067ffffffffffffffff82111761069f57604052565b67ffffffffffffffff811161069f5760051b60200190565b906107f0826107ce565b6107fd60405191826107ac565b828152809261080e601f19916107ce565b0190602036910137565b80518210156107835760209160051b010190565b6001600160a01b03169283158015610944575b6109285761084c836107e6565b905f94835f52600160205260405f20905f5260205260405f2060018060a01b039054165b6001600160a01b03168015158061091d575b80610914575b156108cc57806108988785610818565b525f84815260016020908152604080832093835292905220546001600160a01b0316945f1981146103c85760010194610870565b5092509290506108db816107e6565b905f5b8181106108ec575090925050565b6001906001600160a01b036109018288610818565b511661090d8286610818565b52016108de565b50848610610888565b506001811415610882565b9250505060405161093a6020826107ac565b5f81525f36813790565b506001841461083f565b90916001600160a01b03821691908215610a8c576001600160a01b038416938415610a7d57838514610a6e575f8281526001602090815260408083208784529091529020546001600160a01b0316610a5f578160018614159182610a4d575b5050610a3e57805f52600160205260405f20835f5260205260405f20846bffffffffffffffffffffffff60a01b8254161790555f52600260205260405f20835f5260205260405f2090815491600160401b83101561069f578261033e916001610a1895018155610797565b7f2138b9314634f9fdd5e49bee3eaf17ca557b6637524d0db759711c3bfcd3d8505f80a3565b63d0ceadb160e01b5f5260045ffd5b610a579250610a9b565b15815f6109ad565b634f2532fb60e11b5f5260045ffd5b6341a31fa560e11b5f5260045ffd5b630552cfb760e11b5f5260045ffd5b630702b3d960e41b5f5260045ffd5b6001600160a01b03811660011480610b11575b610b0a575f8281526001602090815260408083206001600160a01b038581168552925290912054161580159290610ae457505090565b9091505f52600260205260405f209060018060a01b03165f5260205260405f2054151590565b5050600190565b506001610aae56fea2646970667358221220a07a5875e7e68d32af4f285d9a3774c5b3afb2222af7968bf63a3f1680a50a5a64736f6c634300081a0033","linkReferences":{}},"methodIdentifiers":{"REFERRAL_ROOT()":"ba594751","authorizeOracle(address)":"0f13b763","batchRegister(address[],address,bytes32)":"622be01c","getAncestors(address,bytes32,uint256)":"e96dc26a","getAuthorizedOracles()":"6e138c84","getChildren(address,bytes32)":"66695b1e","getReferrer(address,bytes32)":"77ccfd4b","isAuthorizedOracle(address)":"bfe609da","isRegistered(address,bytes32)":"d65ad694","owner()":"8da5cb5b","register(address,address,bytes32)":"69b15fce","transferOwnership(address)":"f2fde38b","unauthorizeOracle(address)":"76bba3be"},"id":35}