{"abi":[{"type":"constructor","inputs":[{"name":"initialOwner","type":"address","internalType":"address"},{"name":"root","type":"address","internalType":"address"},{"name":"allowlistEnabled","type":"bool","internalType":"bool"},{"name":"initialOracle","type":"address","internalType":"address"}],"stateMutability":"nonpayable"},{"type":"function","name":"allowReferrer","inputs":[{"name":"referrer","type":"address","internalType":"address"}],"outputs":[],"stateMutability":"nonpayable"},{"type":"function","name":"authorizeOracle","inputs":[{"name":"oracle","type":"address","internalType":"address"}],"outputs":[],"stateMutability":"nonpayable"},{"type":"function","name":"batchRegister","inputs":[{"name":"users","type":"address[]","internalType":"address[]"},{"name":"referrer","type":"address","internalType":"address"},{"name":"groupId","type":"bytes32","internalType":"bytes32"}],"outputs":[],"stateMutability":"nonpayable"},{"type":"function","name":"disallowReferrer","inputs":[{"name":"referrer","type":"address","internalType":"address"}],"outputs":[],"stateMutability":"nonpayable"},{"type":"function","name":"getAncestors","inputs":[{"name":"user","type":"address","internalType":"address"},{"name":"groupId","type":"bytes32","internalType":"bytes32"},{"name":"maxLevels","type":"uint256","internalType":"uint256"}],"outputs":[{"name":"","type":"address[]","internalType":"address[]"}],"stateMutability":"view"},{"type":"function","name":"getAuthorizedOracles","inputs":[],"outputs":[{"name":"","type":"address[]","internalType":"address[]"}],"stateMutability":"view"},{"type":"function","name":"getChildren","inputs":[{"name":"referrer","type":"address","internalType":"address"},{"name":"groupId","type":"bytes32","internalType":"bytes32"}],"outputs":[{"name":"","type":"address[]","internalType":"address[]"}],"stateMutability":"view"},{"type":"function","name":"getReferrer","inputs":[{"name":"user","type":"address","internalType":"address"},{"name":"groupId","type":"bytes32","internalType":"bytes32"}],"outputs":[{"name":"","type":"address","internalType":"address"}],"stateMutability":"view"},{"type":"function","name":"getRoot","inputs":[],"outputs":[{"name":"","type":"address","internalType":"address"}],"stateMutability":"view"},{"type":"function","name":"isAllowedReferrer","inputs":[{"name":"referrer","type":"address","internalType":"address"}],"outputs":[{"name":"","type":"bool","internalType":"bool"}],"stateMutability":"view"},{"type":"function","name":"isAllowlistEnabled","inputs":[],"outputs":[{"name":"","type":"bool","internalType":"bool"}],"stateMutability":"view"},{"type":"function","name":"isAuthorizedOracle","inputs":[{"name":"oracle","type":"address","internalType":"address"}],"outputs":[{"name":"","type":"bool","internalType":"bool"}],"stateMutability":"view"},{"type":"function","name":"isRegistered","inputs":[{"name":"user","type":"address","internalType":"address"},{"name":"groupId","type":"bytes32","internalType":"bytes32"}],"outputs":[{"name":"","type":"bool","internalType":"bool"}],"stateMutability":"view"},{"type":"function","name":"owner","inputs":[],"outputs":[{"name":"","type":"address","internalType":"address"}],"stateMutability":"view"},{"type":"function","name":"register","inputs":[{"name":"user","type":"address","internalType":"address"},{"name":"referrer","type":"address","internalType":"address"},{"name":"groupId","type":"bytes32","internalType":"bytes32"}],"outputs":[],"stateMutability":"nonpayable"},{"type":"function","name":"renounceOwnership","inputs":[],"outputs":[],"stateMutability":"nonpayable"},{"type":"function","name":"setAllowlistEnabled","inputs":[{"name":"enabled","type":"bool","internalType":"bool"}],"outputs":[],"stateMutability":"nonpayable"},{"type":"function","name":"transferOwnership","inputs":[{"name":"newOwner","type":"address","internalType":"address"}],"outputs":[],"stateMutability":"nonpayable"},{"type":"function","name":"unauthorizeOracle","inputs":[{"name":"oracle","type":"address","internalType":"address"}],"outputs":[],"stateMutability":"nonpayable"},{"type":"event","name":"OracleAuthorized","inputs":[{"name":"oracle","type":"address","indexed":true,"internalType":"address"}],"anonymous":false},{"type":"event","name":"OracleUnauthorized","inputs":[{"name":"oracle","type":"address","indexed":true,"internalType":"address"}],"anonymous":false},{"type":"event","name":"OwnershipTransferred","inputs":[{"name":"previousOwner","type":"address","indexed":true,"internalType":"address"},{"name":"newOwner","type":"address","indexed":true,"internalType":"address"}],"anonymous":false},{"type":"event","name":"ReferrerAllowed","inputs":[{"name":"referrer","type":"address","indexed":true,"internalType":"address"}],"anonymous":false},{"type":"event","name":"ReferrerDisallowed","inputs":[{"name":"referrer","type":"address","indexed":true,"internalType":"address"}],"anonymous":false},{"type":"event","name":"UserRegistered","inputs":[{"name":"user","type":"address","indexed":true,"internalType":"address"},{"name":"referrer","type":"address","indexed":true,"internalType":"address"}],"anonymous":false},{"type":"error","name":"AlreadyRegistered","inputs":[]},{"type":"error","name":"CycleDetected","inputs":[]},{"type":"error","name":"InvalidReferrer","inputs":[]},{"type":"error","name":"OwnableInvalidOwner","inputs":[{"name":"owner","type":"address","internalType":"address"}]},{"type":"error","name":"OwnableUnauthorizedAccount","inputs":[{"name":"account","type":"address","internalType":"address"}]},{"type":"error","name":"ReferrerNotAllowed","inputs":[]},{"type":"error","name":"UnauthorizedOracle","inputs":[]}],"bytecode":{"object":"0x608060405234801561000f575f80fd5b506040516112e33803806112e383398101604081905261002e916101c6565b836001600160a01b03811661005c57604051631e4fbdf760e01b81525f600482015260240160405180910390fd5b6100658161015c565b50600480546001600160a81b0319166101006001600160a01b03861690810260ff19169190911784151517909155156100bb576001600160a01b0383165f908152600360205260409020805460ff191660011790555b6001600160a01b03811615610153576001600160a01b0381165f81815260056020526040808220805460ff1916600190811790915560068054918201815583527ff652222313e28459528d920b65115c16c04f3efc82aaedc97be59f3f377c0d3f0180546001600160a01b03191684179055517f5a7a3f71a35f5e2589980d29d1c6d8c75e39657751190874081e55208bae24b79190a25b5050505061021d565b5f80546001600160a01b038381166001600160a01b0319831681178455604051919092169283917f8be0079c531659141344cd1fd0a4f28419497f9722a3daafe3b4186f6b6457e09190a35050565b80516001600160a01b03811681146101c1575f80fd5b919050565b5f805f80608085870312156101d9575f80fd5b6101e2856101ab565b93506101f0602086016101ab565b925060408501518015158114610204575f80fd5b9150610212606086016101ab565b905092959194509250565b6110b98061022a5f395ff3fe608060405234801561000f575f80fd5b506004361061011c575f3560e01c806376bba3be116100a9578063d146fd1b1161006e578063d146fd1b14610286578063d65ad69414610291578063d7644ba2146102c8578063e96dc26a146102db578063f2fde38b146102ee575f80fd5b806376bba3be146101f057806377ccfd4b146102035780638da5cb5b14610238578063bcd5addb14610248578063bfe609da1461025b575f80fd5b806366695b1e116100ef57806366695b1e1461018a57806369b15fce146101aa5780636dfce94c146101bd5780636e138c84146101e0578063715018a6146101e8575f80fd5b80630f13b763146101205780631736c59e146101355780635ca1e16514610148578063622be01c14610177575b5f80fd5b61013361012e366004610e6c565b610301565b005b610133610143366004610e6c565b6103db565b60045461010090046001600160a01b03165b6040516001600160a01b0390911681526020015b60405180910390f35b610133610185366004610e85565b610455565b61019d610198366004610f0c565b6104ce565b60405161016e9190610f34565b6101336101b8366004610f7f565b61054a565b6101d06101cb366004610e6c565b610589565b604051901515815260200161016e565b61019d6105bb565b61013361061b565b6101336101fe366004610e6c565b61062e565b61015a610211366004610f0c565b5f9081526001602090815260408083206001600160a01b0394851684529091529020541690565b5f546001600160a01b031661015a565b610133610256366004610e6c565b6107a1565b6101d0610269366004610e6c565b6001600160a01b03165f9081526005602052604090205460ff1690565b60045460ff166101d0565b6101d061029f366004610f0c565b5f9081526001602090815260408083206001600160a01b03948516845290915290205416151590565b6101336102d6366004610fb9565b6107f1565b61019d6102e9366004610fd8565b61080c565b6101336102fc366004610e6c565b6109fc565b610309610a3b565b6001600160a01b03811661033057604051630c22084560e31b815260040160405180910390fd5b6001600160a01b0381165f9081526005602052604090205460ff166103d8576001600160a01b0381165f81815260056020526040808220805460ff1916600190811790915560068054918201815583527ff652222313e28459528d920b65115c16c04f3efc82aaedc97be59f3f377c0d3f0180546001600160a01b03191684179055517f5a7a3f71a35f5e2589980d29d1c6d8c75e39657751190874081e55208bae24b79190a25b50565b6103e3610a3b565b6001600160a01b03811661040a57604051630c22084560e31b815260040160405180910390fd5b6001600160a01b0381165f81815260036020526040808220805460ff19166001179055517f5474237ee6ac656b06436c20b20119512a0fa485f10e32134137743509f137759190a250565b335f9081526005602052604090205460ff166104845760405163db8d1fb760e01b815260040160405180910390fd5b5f5b838110156104c7576104bf8585838181106104a3576104a3611008565b90506020020160208101906104b89190610e6c565b8484610a67565b600101610486565b5050505050565b5f8181526002602090815260408083206001600160a01b038616845282529182902080548351818402810184019094528084526060939283018282801561053c57602002820191905f5260205f20905b81546001600160a01b0316815260019091019060200180831161051e575b505050505090505b92915050565b335f9081526005602052604090205460ff166105795760405163db8d1fb760e01b815260040160405180910390fd5b610584838383610a67565b505050565b6004545f9060ff1661059d57506001919050565b506001600160a01b03165f9081526003602052604090205460ff1690565b6060600680548060200260200160405190810160405280929190818152602001828054801561061157602002820191905f5260205f20905b81546001600160a01b031681526001909101906020018083116105f3575b5050505050905090565b610623610a3b565b61062c5f610d05565b565b610636610a3b565b6001600160a01b0381165f9081526005602052604090205460ff16156103d8576001600160a01b0381165f908152600560205260408120805460ff191690555b60065481101561076a57816001600160a01b03166006828154811061069d5761069d611008565b5f918252602090912001546001600160a01b03160361076257600680546106c690600190611030565b815481106106d6576106d6611008565b5f91825260209091200154600680546001600160a01b03909216918390811061070157610701611008565b905f5260205f20015f6101000a8154816001600160a01b0302191690836001600160a01b03160217905550600680548061073d5761073d611043565b5f8281526020902081015f1990810180546001600160a01b031916905501905561076a565b600101610676565b506040516001600160a01b038216907fdd4fdcea7474ec44ed60a0e33a8b3e1a80b4002026a6bc5b8e6e97bd88364133905f90a250565b6107a9610a3b565b6001600160a01b0381165f81815260036020526040808220805460ff19169055517f2647f26cd7e99a6962d26a202946d415396386b336ad686ad80540f890c172489190a250565b6107f9610a3b565b6004805460ff1916911515919091179055565b60606001600160a01b038416158061083657506004546001600160a01b0385811661010090920416145b1561084f5750604080515f8152602081019091526109f5565b5f8267ffffffffffffffff81111561086957610869611057565b604051908082528060200260200182016040528015610892578160200160208202803683370190505b505f8581526001602090815260408083206001600160a01b03808b16855292528220549293509091165b6001600160a01b038116158015906108e757506004546001600160a01b038281166101009092041614155b80156108f257508482105b15610952578083838151811061090a5761090a611008565b6001600160a01b039283166020918202929092018101919091525f8881526001825260408082209484168252939091529190912054168161094a8161106b565b9250506108bc565b5f8267ffffffffffffffff81111561096c5761096c611057565b604051908082528060200260200182016040528015610995578160200160208202803683370190505b5090505f5b838110156109ee578481815181106109b4576109b4611008565b60200260200101518282815181106109ce576109ce611008565b6001600160a01b039092166020928302919091019091015260010161099a565b5093505050505b9392505050565b610a04610a3b565b6001600160a01b038116610a3257604051631e4fbdf760e01b81525f60048201526024015b60405180910390fd5b6103d881610d05565b5f546001600160a01b0316331461062c5760405163118cdaa760e01b8152336004820152602401610a29565b6001600160a01b038316610a8e57604051630c22084560e31b815260040160405180910390fd5b5f8181526001602090815260408083206001600160a01b0387811685529252909120541615610ad057604051630ea075bf60e21b815260040160405180910390fd5b6001600160a01b038216158015610af6575060045461010090046001600160a01b031615155b15610b1457604051630c22084560e31b815260040160405180910390fd5b6001600160a01b03821615801590610b3d5750826001600160a01b0316826001600160a01b0316145b15610b5b57604051630c22084560e31b815260040160405180910390fd5b6001600160a01b03821615801590610b8657506004546001600160a01b038381166101009092041614155b8015610b995750610b978282610d54565b155b15610bb757604051630c22084560e31b815260040160405180910390fd5b60045460ff168015610bd157506001600160a01b03821615155b8015610bf557506001600160a01b0382165f9081526003602052604090205460ff16155b15610c1357604051630d09bb8b60e31b815260040160405180910390fd5b610c1e838383610de9565b15610c3c57604051639146c72360e01b815260040160405180910390fd5b5f8181526001602090815260408083206001600160a01b038781168552925290912080546001600160a01b031916918416918217905515610cc0575f8181526002602090815260408083206001600160a01b0386811685529083529083208054600181018255908452919092200180546001600160a01b0319169185169190911790555b816001600160a01b0316836001600160a01b03167f2138b9314634f9fdd5e49bee3eaf17ca557b6637524d0db759711c3bfcd3d85060405160405180910390a3505050565b5f80546001600160a01b038381166001600160a01b0319831681178455604051919092169283917f8be0079c531659141344cd1fd0a4f28419497f9722a3daafe3b4186f6b6457e09190a35050565b6004545f906001600160a01b0384811661010090920416148015610d87575060045461010090046001600160a01b031615155b15610d9457506001610544565b5f8281526001602090815260408083206001600160a01b038781168552925290912054161515806109f55750505f9081526002602090815260408083206001600160a01b039490941683529290522054151590565b5f825b6001600160a01b03811615610e4757846001600160a01b0316816001600160a01b031603610e1e5760019150506109f5565b5f8381526001602090815260408083206001600160a01b03948516845290915290205416610dec565b505f949350505050565b80356001600160a01b0381168114610e67575f80fd5b919050565b5f60208284031215610e7c575f80fd5b6109f582610e51565b5f805f8060608587031215610e98575f80fd5b843567ffffffffffffffff811115610eae575f80fd5b8501601f81018713610ebe575f80fd5b803567ffffffffffffffff811115610ed4575f80fd5b8760208260051b8401011115610ee8575f80fd5b602091820195509350610efc908601610e51565b9396929550929360400135925050565b5f8060408385031215610f1d575f80fd5b610f2683610e51565b946020939093013593505050565b602080825282518282018190525f918401906040840190835b81811015610f745783516001600160a01b0316835260209384019390920191600101610f4d565b509095945050505050565b5f805f60608486031215610f91575f80fd5b610f9a84610e51565b9250610fa860208501610e51565b929592945050506040919091013590565b5f60208284031215610fc9575f80fd5b813580151581146109f5575f80fd5b5f805f60608486031215610fea575f80fd5b610ff384610e51565b95602085013595506040909401359392505050565b634e487b7160e01b5f52603260045260245ffd5b634e487b7160e01b5f52601160045260245ffd5b818103818111156105445761054461101c565b634e487b7160e01b5f52603160045260245ffd5b634e487b7160e01b5f52604160045260245ffd5b5f6001820161107c5761107c61101c565b506001019056fea26469706673582212207729b519b9495d45e7890eaa0aa61615a5e7ac5fe5537aa0d9fb90eaf054abb264736f6c634300081a0033","linkReferences":{}},"methodIdentifiers":{"allowReferrer(address)":"1736c59e","authorizeOracle(address)":"0f13b763","batchRegister(address[],address,bytes32)":"622be01c","disallowReferrer(address)":"bcd5addb","getAncestors(address,bytes32,uint256)":"e96dc26a","getAuthorizedOracles()":"6e138c84","getChildren(address,bytes32)":"66695b1e","getReferrer(address,bytes32)":"77ccfd4b","getRoot()":"5ca1e165","isAllowedReferrer(address)":"6dfce94c","isAllowlistEnabled()":"d146fd1b","isAuthorizedOracle(address)":"bfe609da","isRegistered(address,bytes32)":"d65ad694","owner()":"8da5cb5b","register(address,address,bytes32)":"69b15fce","renounceOwnership()":"715018a6","setAllowlistEnabled(bool)":"d7644ba2","transferOwnership(address)":"f2fde38b","unauthorizeOracle(address)":"76bba3be"},"id":21}