{"abi":[{"type":"constructor","inputs":[{"name":"initialOwner","type":"address","internalType":"address"},{"name":"root","type":"address","internalType":"address"},{"name":"allowlistEnabled","type":"bool","internalType":"bool"}],"stateMutability":"nonpayable"},{"type":"function","name":"allowReferrer","inputs":[{"name":"referrer","type":"address","internalType":"address"}],"outputs":[],"stateMutability":"nonpayable"},{"type":"function","name":"batchRegister","inputs":[{"name":"users","type":"address[]","internalType":"address[]"},{"name":"referrer","type":"address","internalType":"address"},{"name":"groupId","type":"bytes32","internalType":"bytes32"}],"outputs":[],"stateMutability":"nonpayable"},{"type":"function","name":"disallowReferrer","inputs":[{"name":"referrer","type":"address","internalType":"address"}],"outputs":[],"stateMutability":"nonpayable"},{"type":"function","name":"getAncestors","inputs":[{"name":"user","type":"address","internalType":"address"},{"name":"groupId","type":"bytes32","internalType":"bytes32"},{"name":"maxLevels","type":"uint256","internalType":"uint256"}],"outputs":[{"name":"","type":"address[]","internalType":"address[]"}],"stateMutability":"view"},{"type":"function","name":"getChildren","inputs":[{"name":"referrer","type":"address","internalType":"address"},{"name":"groupId","type":"bytes32","internalType":"bytes32"}],"outputs":[{"name":"","type":"address[]","internalType":"address[]"}],"stateMutability":"view"},{"type":"function","name":"getReferrer","inputs":[{"name":"user","type":"address","internalType":"address"},{"name":"groupId","type":"bytes32","internalType":"bytes32"}],"outputs":[{"name":"","type":"address","internalType":"address"}],"stateMutability":"view"},{"type":"function","name":"getRoot","inputs":[],"outputs":[{"name":"","type":"address","internalType":"address"}],"stateMutability":"view"},{"type":"function","name":"isAllowedReferrer","inputs":[{"name":"referrer","type":"address","internalType":"address"}],"outputs":[{"name":"","type":"bool","internalType":"bool"}],"stateMutability":"view"},{"type":"function","name":"isAllowlistEnabled","inputs":[],"outputs":[{"name":"","type":"bool","internalType":"bool"}],"stateMutability":"view"},{"type":"function","name":"isRegistered","inputs":[{"name":"user","type":"address","internalType":"address"},{"name":"groupId","type":"bytes32","internalType":"bytes32"}],"outputs":[{"name":"","type":"bool","internalType":"bool"}],"stateMutability":"view"},{"type":"function","name":"owner","inputs":[],"outputs":[{"name":"","type":"address","internalType":"address"}],"stateMutability":"view"},{"type":"function","name":"register","inputs":[{"name":"user","type":"address","internalType":"address"},{"name":"referrer","type":"address","internalType":"address"},{"name":"groupId","type":"bytes32","internalType":"bytes32"}],"outputs":[],"stateMutability":"nonpayable"},{"type":"function","name":"renounceOwnership","inputs":[],"outputs":[],"stateMutability":"nonpayable"},{"type":"function","name":"setAllowlistEnabled","inputs":[{"name":"enabled","type":"bool","internalType":"bool"}],"outputs":[],"stateMutability":"nonpayable"},{"type":"function","name":"transferOwnership","inputs":[{"name":"newOwner","type":"address","internalType":"address"}],"outputs":[],"stateMutability":"nonpayable"},{"type":"event","name":"OwnershipTransferred","inputs":[{"name":"previousOwner","type":"address","indexed":true,"internalType":"address"},{"name":"newOwner","type":"address","indexed":true,"internalType":"address"}],"anonymous":false},{"type":"event","name":"ReferrerAllowed","inputs":[{"name":"referrer","type":"address","indexed":true,"internalType":"address"}],"anonymous":false},{"type":"event","name":"ReferrerDisallowed","inputs":[{"name":"referrer","type":"address","indexed":true,"internalType":"address"}],"anonymous":false},{"type":"event","name":"UserRegistered","inputs":[{"name":"user","type":"address","indexed":true,"internalType":"address"},{"name":"referrer","type":"address","indexed":true,"internalType":"address"}],"anonymous":false},{"type":"error","name":"AlreadyRegistered","inputs":[]},{"type":"error","name":"CycleDetected","inputs":[]},{"type":"error","name":"InvalidReferrer","inputs":[]},{"type":"error","name":"OwnableInvalidOwner","inputs":[{"name":"owner","type":"address","internalType":"address"}]},{"type":"error","name":"OwnableUnauthorizedAccount","inputs":[{"name":"account","type":"address","internalType":"address"}]},{"type":"error","name":"ReferrerNotAllowed","inputs":[]}],"bytecode":{"object":"0x608060405234801561000f575f80fd5b50604051610ed2380380610ed283398101604081905261002e9161012d565b826001600160a01b03811661005c57604051631e4fbdf760e01b81525f600482015260240160405180910390fd5b610065816100c3565b50600480546001600160a81b0319166101006001600160a01b03851690810260ff19169190911783151517909155156100bb576001600160a01b0382165f908152600360205260409020805460ff191660011790555b505050610175565b5f80546001600160a01b038381166001600160a01b0319831681178455604051919092169283917f8be0079c531659141344cd1fd0a4f28419497f9722a3daafe3b4186f6b6457e09190a35050565b80516001600160a01b0381168114610128575f80fd5b919050565b5f805f6060848603121561013f575f80fd5b61014884610112565b925061015660208501610112565b91506040840151801515811461016a575f80fd5b809150509250925092565b610d50806101825f395ff3fe608060405234801561000f575f80fd5b50600436106100f0575f3560e01c806377ccfd4b11610093578063d65ad69411610063578063d65ad6941461020c578063d7644ba214610243578063e96dc26a14610256578063f2fde38b14610269575f80fd5b806377ccfd4b146101a95780638da5cb5b146101de578063bcd5addb146101ee578063d146fd1b14610201575f80fd5b806366695b1e116100ce57806366695b1e1461014b57806369b15fce1461016b5780636dfce94c1461017e578063715018a6146101a1575f80fd5b80631736c59e146100f45780635ca1e16514610109578063622be01c14610138575b5f80fd5b610107610102366004610b32565b61027c565b005b60045461010090046001600160a01b03165b6040516001600160a01b0390911681526020015b60405180910390f35b610107610146366004610b4b565b6102f6565b61015e610159366004610bd2565b6103a3565b60405161012f9190610bfa565b610107610179366004610c45565b61041f565b61019161018c366004610b32565b6106bd565b604051901515815260200161012f565b6101076106ef565b61011b6101b7366004610bd2565b5f9081526001602090815260408083206001600160a01b0394851684529091529020541690565b5f546001600160a01b031661011b565b6101076101fc366004610b32565b610702565b60045460ff16610191565b61019161021a366004610bd2565b5f9081526001602090815260408083206001600160a01b03948516845290915290205416151590565b610107610251366004610c7f565b610752565b61015e610264366004610c9e565b61076d565b610107610277366004610b32565b61095d565b61028461099f565b6001600160a01b0381166102ab57604051630c22084560e31b815260040160405180910390fd5b6001600160a01b0381165f81815260036020526040808220805460ff19166001179055517f5474237ee6ac656b06436c20b20119512a0fa485f10e32134137743509f137759190a250565b5f5b8381101561039c57306369b15fce86868481811061031857610318610cce565b905060200201602081019061032d9190610b32565b6040516001600160e01b031960e084901b1681526001600160a01b0391821660048201529086166024820152604481018590526064015f604051808303815f87803b15801561037a575f80fd5b505af115801561038c573d5f803e3d5ffd5b5050600190920191506102f89050565b5050505050565b5f8181526002602090815260408083206001600160a01b038616845282529182902080548351818402810184019094528084526060939283018282801561041157602002820191905f5260205f20905b81546001600160a01b031681526001909101906020018083116103f3575b505050505090505b92915050565b6001600160a01b03831661044657604051630c22084560e31b815260040160405180910390fd5b5f8181526001602090815260408083206001600160a01b038781168552925290912054161561048857604051630ea075bf60e21b815260040160405180910390fd5b6001600160a01b0382161580156104ae575060045461010090046001600160a01b031615155b156104cc57604051630c22084560e31b815260040160405180910390fd5b6001600160a01b038216158015906104f55750826001600160a01b0316826001600160a01b0316145b1561051357604051630c22084560e31b815260040160405180910390fd5b6001600160a01b0382161580159061053e57506004546001600160a01b038381166101009092041614155b8015610551575061054f82826109cb565b155b1561056f57604051630c22084560e31b815260040160405180910390fd5b60045460ff16801561058957506001600160a01b03821615155b80156105ad57506001600160a01b0382165f9081526003602052604090205460ff16155b156105cb57604051630d09bb8b60e31b815260040160405180910390fd5b6105d6838383610a60565b156105f457604051639146c72360e01b815260040160405180910390fd5b5f8181526001602090815260408083206001600160a01b038781168552925290912080546001600160a01b031916918416918217905515610678575f8181526002602090815260408083206001600160a01b0386811685529083529083208054600181018255908452919092200180546001600160a01b0319169185169190911790555b816001600160a01b0316836001600160a01b03167f2138b9314634f9fdd5e49bee3eaf17ca557b6637524d0db759711c3bfcd3d85060405160405180910390a3505050565b6004545f9060ff166106d157506001919050565b506001600160a01b03165f9081526003602052604090205460ff1690565b6106f761099f565b6107005f610ac8565b565b61070a61099f565b6001600160a01b0381165f81815260036020526040808220805460ff19169055517f2647f26cd7e99a6962d26a202946d415396386b336ad686ad80540f890c172489190a250565b61075a61099f565b6004805460ff1916911515919091179055565b60606001600160a01b038416158061079757506004546001600160a01b0385811661010090920416145b156107b05750604080515f815260208101909152610956565b5f8267ffffffffffffffff8111156107ca576107ca610ce2565b6040519080825280602002602001820160405280156107f3578160200160208202803683370190505b505f8581526001602090815260408083206001600160a01b03808b16855292528220549293509091165b6001600160a01b0381161580159061084857506004546001600160a01b038281166101009092041614155b801561085357508482105b156108b3578083838151811061086b5761086b610cce565b6001600160a01b039283166020918202929092018101919091525f888152600182526040808220948416825293909152919091205416816108ab81610cf6565b92505061081d565b5f8267ffffffffffffffff8111156108cd576108cd610ce2565b6040519080825280602002602001820160405280156108f6578160200160208202803683370190505b5090505f5b8381101561094f5784818151811061091557610915610cce565b602002602001015182828151811061092f5761092f610cce565b6001600160a01b03909216602092830291909101909101526001016108fb565b5093505050505b9392505050565b61096561099f565b6001600160a01b03811661099357604051631e4fbdf760e01b81525f60048201526024015b60405180910390fd5b61099c81610ac8565b50565b5f546001600160a01b031633146107005760405163118cdaa760e01b815233600482015260240161098a565b6004545f906001600160a01b03848116610100909204161480156109fe575060045461010090046001600160a01b031615155b15610a0b57506001610419565b5f8281526001602090815260408083206001600160a01b038781168552925290912054161515806109565750505f9081526002602090815260408083206001600160a01b039490941683529290522054151590565b5f825b6001600160a01b03811615610abe57846001600160a01b0316816001600160a01b031603610a95576001915050610956565b5f8381526001602090815260408083206001600160a01b03948516845290915290205416610a63565b505f949350505050565b5f80546001600160a01b038381166001600160a01b0319831681178455604051919092169283917f8be0079c531659141344cd1fd0a4f28419497f9722a3daafe3b4186f6b6457e09190a35050565b80356001600160a01b0381168114610b2d575f80fd5b919050565b5f60208284031215610b42575f80fd5b61095682610b17565b5f805f8060608587031215610b5e575f80fd5b843567ffffffffffffffff811115610b74575f80fd5b8501601f81018713610b84575f80fd5b803567ffffffffffffffff811115610b9a575f80fd5b8760208260051b8401011115610bae575f80fd5b602091820195509350610bc2908601610b17565b9396929550929360400135925050565b5f8060408385031215610be3575f80fd5b610bec83610b17565b946020939093013593505050565b602080825282518282018190525f918401906040840190835b81811015610c3a5783516001600160a01b0316835260209384019390920191600101610c13565b509095945050505050565b5f805f60608486031215610c57575f80fd5b610c6084610b17565b9250610c6e60208501610b17565b929592945050506040919091013590565b5f60208284031215610c8f575f80fd5b81358015158114610956575f80fd5b5f805f60608486031215610cb0575f80fd5b610cb984610b17565b95602085013595506040909401359392505050565b634e487b7160e01b5f52603260045260245ffd5b634e487b7160e01b5f52604160045260245ffd5b5f60018201610d1357634e487b7160e01b5f52601160045260245ffd5b506001019056fea26469706673582212203aeae096f8625c318577a4a00d81c222280b83e3f100d022c045ced8fdc778e664736f6c634300081a0033","linkReferences":{}},"methodIdentifiers":{"allowReferrer(address)":"1736c59e","batchRegister(address[],address,bytes32)":"622be01c","disallowReferrer(address)":"bcd5addb","getAncestors(address,bytes32,uint256)":"e96dc26a","getChildren(address,bytes32)":"66695b1e","getReferrer(address,bytes32)":"77ccfd4b","getRoot()":"5ca1e165","isAllowedReferrer(address)":"6dfce94c","isAllowlistEnabled()":"d146fd1b","isRegistered(address,bytes32)":"d65ad694","owner()":"8da5cb5b","register(address,address,bytes32)":"69b15fce","renounceOwnership()":"715018a6","setAllowlistEnabled(bool)":"d7644ba2","transferOwnership(address)":"f2fde38b"},"id":33}