{"abi":[{"type":"constructor","inputs":[{"name":"initialOwner","type":"address","internalType":"address"},{"name":"_referralGraph","type":"address","internalType":"address"},{"name":"initialOracle","type":"address","internalType":"address"}],"stateMutability":"nonpayable"},{"type":"function","name":"NULL_REFERRER","inputs":[],"outputs":[{"name":"","type":"address","internalType":"address"}],"stateMutability":"view"},{"type":"function","name":"authorizeOracle","inputs":[{"name":"oracle","type":"address","internalType":"address"}],"outputs":[],"stateMutability":"nonpayable"},{"type":"function","name":"distributeChainRewards","inputs":[{"name":"reward","type":"tuple","internalType":"struct IRewardDistributor.ChainRewardData","components":[{"name":"user","type":"address","internalType":"address"},{"name":"totalAmount","type":"uint256","internalType":"uint256"},{"name":"rewardToken","type":"address","internalType":"address"},{"name":"groupId","type":"bytes32","internalType":"bytes32"},{"name":"eventId","type":"bytes32","internalType":"bytes32"},{"name":"timestamp","type":"uint256","internalType":"uint256"},{"name":"nonce","type":"uint256","internalType":"uint256"}]},{"name":"signature","type":"bytes","internalType":"bytes"}],"outputs":[],"stateMutability":"nonpayable"},{"type":"function","name":"getAuthorizedOracles","inputs":[],"outputs":[{"name":"","type":"address[]","internalType":"address[]"}],"stateMutability":"view"},{"type":"function","name":"getOriginalUserPercentage","inputs":[],"outputs":[{"name":"","type":"uint256","internalType":"uint256"}],"stateMutability":"view"},{"type":"function","name":"getReferralGraph","inputs":[],"outputs":[{"name":"","type":"address","internalType":"contract IReferralGraph"}],"stateMutability":"view"},{"type":"function","name":"isAuthorizedOracle","inputs":[{"name":"oracle","type":"address","internalType":"address"}],"outputs":[{"name":"","type":"bool","internalType":"bool"}],"stateMutability":"view"},{"type":"function","name":"isRewardDistributed","inputs":[{"name":"rewardHash","type":"bytes32","internalType":"bytes32"}],"outputs":[{"name":"","type":"bool","internalType":"bool"}],"stateMutability":"view"},{"type":"function","name":"owner","inputs":[],"outputs":[{"name":"","type":"address","internalType":"address"}],"stateMutability":"view"},{"type":"function","name":"referralGraph","inputs":[],"outputs":[{"name":"","type":"address","internalType":"contract IReferralGraph"}],"stateMutability":"view"},{"type":"function","name":"renounceOwnership","inputs":[],"outputs":[],"stateMutability":"nonpayable"},{"type":"function","name":"rewardCalculator","inputs":[],"outputs":[{"name":"","type":"address","internalType":"contract RewardCalculator"}],"stateMutability":"view"},{"type":"function","name":"setOriginalUserPercentage","inputs":[{"name":"percentage","type":"uint256","internalType":"uint256"}],"outputs":[],"stateMutability":"nonpayable"},{"type":"function","name":"transferOwnership","inputs":[{"name":"newOwner","type":"address","internalType":"address"}],"outputs":[],"stateMutability":"nonpayable"},{"type":"function","name":"unauthorizeOracle","inputs":[{"name":"oracle","type":"address","internalType":"address"}],"outputs":[],"stateMutability":"nonpayable"},{"type":"event","name":"ChainRewardsDistributed","inputs":[{"name":"user","type":"address","indexed":true,"internalType":"address"},{"name":"totalAmount","type":"uint256","indexed":false,"internalType":"uint256"},{"name":"eventId","type":"bytes32","indexed":true,"internalType":"bytes32"},{"name":"recipients","type":"address[]","indexed":false,"internalType":"address[]"},{"name":"amounts","type":"uint256[]","indexed":false,"internalType":"uint256[]"}],"anonymous":false},{"type":"event","name":"OracleAuthorized","inputs":[{"name":"oracle","type":"address","indexed":true,"internalType":"address"}],"anonymous":false},{"type":"event","name":"OracleUnauthorized","inputs":[{"name":"oracle","type":"address","indexed":true,"internalType":"address"}],"anonymous":false},{"type":"event","name":"OwnershipTransferred","inputs":[{"name":"previousOwner","type":"address","indexed":true,"internalType":"address"},{"name":"newOwner","type":"address","indexed":true,"internalType":"address"}],"anonymous":false},{"type":"error","name":"ECDSAInvalidSignature","inputs":[]},{"type":"error","name":"ECDSAInvalidSignatureLength","inputs":[{"name":"length","type":"uint256","internalType":"uint256"}]},{"type":"error","name":"ECDSAInvalidSignatureS","inputs":[{"name":"s","type":"bytes32","internalType":"bytes32"}]},{"type":"error","name":"InvalidOracleSignature","inputs":[]},{"type":"error","name":"InvalidParameters","inputs":[]},{"type":"error","name":"OwnableInvalidOwner","inputs":[{"name":"owner","type":"address","internalType":"address"}]},{"type":"error","name":"OwnableUnauthorizedAccount","inputs":[{"name":"account","type":"address","internalType":"address"}]},{"type":"error","name":"RewardAlreadyDistributed","inputs":[]},{"type":"error","name":"UnauthorizedApp","inputs":[]},{"type":"error","name":"ZeroRewardAmount","inputs":[]}],"bytecode":{"object":"0x60c0346101f657601f61159838819003918201601f19168301916001600160401b038311848410176101c4578084926060946040528339810103126101f657610047816101fa565b906100606040610059602084016101fa565b92016101fa565b916001600160a01b03169081156101e3575f80546001600160a01b031981168417825560405193916001600160a01b03909116907f8be0079c531659141344cd1fd0a4f28419497f9722a3daafe3b4186f6b6457e09080a36001600160a01b03166080526103868181016001600160401b038111838210176101c4578291611212833903905ff080156101d85760a0526001600160a01b031680610134575b611f40600355604051611003908161020f823960805181818161028f0152610cce015260a0518181816103e401526109150152f35b805f52600160205260405f20600160ff19825416179055600254680100000000000000008110156101c45760018101806002558110156101b05760025f9081527f405787fa12a823e0f2b7631cc41b3ba8828b3321ca811111fa75cd3aa3bb5ace9190910180546001600160a01b0319169092179091556100ff565b634e487b7160e01b5f52603260045260245ffd5b634e487b7160e01b5f52604160045260245ffd5b6040513d5f823e3d90fd5b631e4fbdf760e01b5f525f60045260245ffd5b5f80fd5b51906001600160a01b03821682036101f65756fe60806040526004361015610011575f80fd5b5f3560e01c80630f13b76314610bf55780631b8dda19146108fb578063220e89c914610bc657806349bcd24814610bab5780636e138c8414610b16578063715018a614610abf57806376bba3be1461096b5780638da5cb5b1461094457806396769e8914610900578063a69dbf03146108fb578063bfe609da146108ba578063e2016a4a14610881578063e6ce368914610864578063f2fde38b146107db5763f6b35c22146100be575f80fd5b3461054f573660031901610100811261054f5760e01361054f5760e43567ffffffffffffffff811161054f573660238201121561054f57806004013567ffffffffffffffff811161054f57366024828401011161054f576024359081156107cc57610127610d87565b90610130610d9d565b9360643592608435956040519060208201926bffffffffffffffffffffffff199060601b1683528660348301526bffffffffffffffffffffffff199060601b16605482015284606882015286608882015260a43560a882015260c43560c882015260c881526101a060e882610d65565b51902091825f52600460205260ff60405f2054166107bd576102239161021a917f19457468657265756d205369676e6564204d6573736167653a0a3332000000005f5284601c525f6020603c8220928060246040519661020985601f19601f8601160189610d65565b828852018387013784010152610e63565b90929192610e9d565b6001600160a01b03165f9081526001602052604090205460ff16156107ae575f52600460205260405f20600160ff19825416179055610260610d87565b60405191906119206102728185610d65565b60c88452601f1901366020850137604051635ca1e16560e01b81527f00000000000000000000000000000000000000000000000000000000000000006001600160a01b0316915f90602083600481875afa92831561055b575f9361078d575b505b6001600160a01b03169081151580610783575b1561077957816102f68288610dc0565b525f19811461063e5760010190604051906377ccfd4b60e01b82526004820152846024820152602081604481875afa90811561055b575f9161074b575b506001600160a01b038381169082168114908161073f575b50156102d35750925050505b61036081610e12565b915f5b8281106107175750505061037681610f11565b5f1981036106f55750805160018111156106ee575f19810190811161063e575b905b600a82116106e5575b600354808402908482040361063e576127109004938484039184831161063e57604051632454438360e11b81526004810193909352602483018490525f836044817f00000000000000000000000000000000000000000000000000000000000000006001600160a01b03165afa92831561055b575f93610652575b50600184019384811161063e5761043285610e12565b9361045561043f87610dfa565b9661044d6040519889610d65565b808852610dfa565b602087019890601f1901368a376001600160a01b0361047385610db3565b511661047e87610db3565b5261048887610db3565b525f5b8281106105f457506001600160a01b0392506104a99150610d9d9050565b16935f5b8351811015610566576104c08186610dc0565b516104ce575b6001016104ad565b6001600160a01b036104e08286610dc0565b51166104ec8287610dc0565b516040519163a9059cbb60e01b8352600483015260248201526020816044815f8b5af1801561055b57610520575b506104c6565b6020813d8211610553575b8161053860209383610d65565b8101031261054f57518015150361054f575f61051a565b5f80fd5b3d915061052b565b6040513d5f823e3d90fd5b509092859060206105986001600160a01b03610580610d87565b16956040519586526060838701526060860190610cfd565b91848303604086015251918281520191905f5b8181106105de5750505090807f565bac9b966879663b6cee54f6645ca6ec41c8849b130a1a4f4188a43c847d33920390a3005b82518452602093840193909201916001016105ab565b600181019081811161063e576001916001600160a01b036106158288610dc0565b5116610621828a610dc0565b5261063761062f8386610dc0565b51918a610dc0565b520161048b565b634e487b7160e01b5f52601160045260245ffd5b9092503d805f833e6106648183610d65565b81019060208183031261054f5780519067ffffffffffffffff821161054f57019080601f8301121561054f57815161069b81610dfa565b926106a96040519485610d65565b81845260208085019260051b82010192831161054f57602001905b8282106106d557505050915f61041c565b81518152602091820191016106c4565b600a91506103a1565b505f610396565b6001811115610710575f19810190811161063e575b90610398565b505f61070a565b6001906001600160a01b0361072c8285610dc0565b51166107388287610dc0565b5201610363565b6001915014155f61034b565b61076c915060203d8111610772575b6107648183610d65565b810190610e44565b5f610333565b503d61075a565b9350505050610357565b50855181106102e6565b6107a791935060203d602011610772576107648183610d65565b915f6102d1565b632f58c7cd60e01b5f5260045ffd5b634506832760e11b5f5260045ffd5b63ea1083a760e01b5f5260045ffd5b3461054f57602036600319011261054f576004356001600160a01b0381169081900361054f57610809610dd4565b8015610851575f80546001600160a01b03198116831782556001600160a01b0316907f8be0079c531659141344cd1fd0a4f28419497f9722a3daafe3b4186f6b6457e09080a3005b631e4fbdf760e01b5f525f60045260245ffd5b3461054f575f36600319011261054f576020600354604051908152f35b3461054f57602036600319011261054f5760043561089d610dd4565b61271081116108ab57600355005b630e52390960e41b5f5260045ffd5b3461054f57602036600319011261054f576004356001600160a01b0381169081900361054f575f526001602052602060ff60405f2054166040519015158152f35b610cb9565b3461054f575f36600319011261054f576040517f00000000000000000000000000000000000000000000000000000000000000006001600160a01b03168152602090f35b3461054f575f36600319011261054f575f546040516001600160a01b039091168152602090f35b3461054f57602036600319011261054f576004356001600160a01b0381169081900361054f57610999610dd4565b805f52600160205260ff60405f2054166109af57005b5f818152600160205260408120805460ff191690555b6002549081811015610ab857826109db82610d39565b905460039190911b1c6001600160a01b0316146109fc5760019150016109c5565b5f19820191821161063e57610a2e610a16610a5293610d39565b905460039190911b1c6001600160a01b031691610d39565b81546001600160a01b0393841660039290921b91821b9390911b1916919091179055565b6002548015610aa4575f1901610a6781610d39565b81549060018060a01b039060031b1b191690556002555b7fdd4fdcea7474ec44ed60a0e33a8b3e1a80b4002026a6bc5b8e6e97bd883641335f80a2005b634e487b7160e01b5f52603160045260245ffd5b5050610a7e565b3461054f575f36600319011261054f57610ad7610dd4565b5f80546001600160a01b0319811682556001600160a01b03167f8be0079c531659141344cd1fd0a4f28419497f9722a3daafe3b4186f6b6457e08280a3005b3461054f575f36600319011261054f5760405180602060025491828152019060025f527f405787fa12a823e0f2b7631cc41b3ba8828b3321ca811111fa75cd3aa3bb5ace905f5b818110610b8c57610b8885610b7481870382610d65565b604051918291602083526020830190610cfd565b0390f35b82546001600160a01b0316845260209093019260019283019201610b5d565b3461054f575f36600319011261054f57602060405160018152f35b3461054f57602036600319011261054f576004355f526004602052602060ff60405f2054166040519015158152f35b3461054f57602036600319011261054f576004356001600160a01b0381169081810361054f57610c23610dd4565b81156108ab57815f52600160205260ff60405f20541615610c4057005b815f52600160205260405f20600160ff198254161790556002549068010000000000000000821015610ca557610a2e826001610c7f9401600255610d39565b7f5a7a3f71a35f5e2589980d29d1c6d8c75e39657751190874081e55208bae24b75f80a2005b634e487b7160e01b5f52604160045260245ffd5b3461054f575f36600319011261054f576040517f00000000000000000000000000000000000000000000000000000000000000006001600160a01b03168152602090f35b90602080835192838152019201905f5b818110610d1a5750505090565b82516001600160a01b0316845260209384019390920191600101610d0d565b600254811015610d515760025f5260205f2001905f90565b634e487b7160e01b5f52603260045260245ffd5b90601f8019910116810190811067ffffffffffffffff821117610ca557604052565b6004356001600160a01b038116810361054f5790565b6044356001600160a01b038116810361054f5790565b805115610d515760200190565b8051821015610d515760209160051b010190565b5f546001600160a01b03163303610de757565b63118cdaa760e01b5f523360045260245ffd5b67ffffffffffffffff8111610ca55760051b60200190565b90610e1c82610dfa565b610e296040519182610d65565b8281528092610e3a601f1991610dfa565b0190602036910137565b9081602091031261054f57516001600160a01b038116810361054f5790565b8151919060418303610e9357610e8c9250602082015190606060408401519301515f1a90610f4b565b9192909190565b50505f9160029190565b6004811015610efd5780610eaf575050565b60018103610ec65763f645eedf60e01b5f5260045ffd5b60028103610ee1575063fce698f760e01b5f5260045260245ffd5b600314610eeb5750565b6335e2f38360e21b5f5260045260245ffd5b634e487b7160e01b5f52602160045260245ffd5b5f5b8151811015610f445760016001600160a01b03610f308385610dc0565b511614610f3f57600101610f13565b905090565b50505f1990565b91907f7fffffffffffffffffffffffffffffff5d576e7357a4501ddfe92f46681b20a08411610fc2579160209360809260ff5f9560405194855216868401526040830152606082015282805260015afa1561055b575f516001600160a01b03811615610fb857905f905f90565b505f906001905f90565b5050505f916003919056fea2646970667358221220308b8d4bfebe45825f3b3c51f629d5804cd412d6c4427534ea601892ae133df164736f6c634300081a00336080806040523460155761036c908161001a8239f35b5f80fdfe60806040526004361015610011575f80fd5b5f3560e01c6348a8870614610024575f80fd5b3461008757604036600319011261008757610043602435600435610133565b6040518091602082016020835281518091526020604084019201905f5b81811061006e575050500390f35b8251845285945060209384019390920191600101610060565b5f80fd5b6040519190601f01601f1916820167ffffffffffffffff8111838210176100b157604052565b634e487b7160e01b5f52604160045260245ffd5b67ffffffffffffffff81116100b15760051b60200190565b8051156100ea5760200190565b634e487b7160e01b5f52603260045260245ffd5b80518210156100ea5760209160051b010190565b9190820180921161011f57565b634e487b7160e01b5f52601160045260245ffd5b919091821561031f57600a8311610316575b60405190610140820182811067ffffffffffffffff8211176100b15760405261271082526117706020830152610e1060408301526108706060830152610510608083015261030960a08301526101d260c083015261011760e083015260a7610100830152606461012083015260405193610160850185811067ffffffffffffffff8211176100b1576040525f85526127106020860152613e806040860152614c9060608601526155006080860152615a1060a0860152615d1960c0860152615eeb60e08601526160026101008601526160a961012086015261610d610140860152610237610232826100c5565b61008b565b81815292601f19610247836100c5565b013660208601378395600b8310156100ea578260051b01515f8115905b8481106102c657505050505f905f905b8082106102a5575050810390811161011f5761029c6102a291610296846100dd565b51610112565b916100dd565b52565b90916102be6001916102b785886100fe565b5190610112565b920190610274565b600a8110156100ea578060051b8401519081870291878304148715171561011f57826103025783600192046102fb828a6100fe565b5201610264565b634e487b7160e01b5f52601260045260245ffd5b600a9250610145565b50905061032c602061008b565b5f81525f3681379056fea2646970667358221220f7b761de1dea25cdc51ed853dffb33e687e01c9cda079b6d211e2d7e5b7527da64736f6c634300081a0033","linkReferences":{}},"methodIdentifiers":{"NULL_REFERRER()":"49bcd248","authorizeOracle(address)":"0f13b763","distributeChainRewards((address,uint256,address,bytes32,bytes32,uint256,uint256),bytes)":"f6b35c22","getAuthorizedOracles()":"6e138c84","getOriginalUserPercentage()":"e6ce3689","getReferralGraph()":"1b8dda19","isAuthorizedOracle(address)":"bfe609da","isRewardDistributed(bytes32)":"220e89c9","owner()":"8da5cb5b","referralGraph()":"a69dbf03","renounceOwnership()":"715018a6","rewardCalculator()":"96769e89","setOriginalUserPercentage(uint256)":"e2016a4a","transferOwnership(address)":"f2fde38b","unauthorizeOracle(address)":"76bba3be"},"id":35}