{"abi":[{"type":"constructor","inputs":[{"name":"initialOwner","type":"address","internalType":"address"},{"name":"_referralGraph","type":"address","internalType":"address"},{"name":"initialOracle","type":"address","internalType":"address"}],"stateMutability":"nonpayable"},{"type":"function","name":"authorizeOracle","inputs":[{"name":"oracle","type":"address","internalType":"address"}],"outputs":[],"stateMutability":"nonpayable"},{"type":"function","name":"distributeChainRewards","inputs":[{"name":"reward","type":"tuple","internalType":"struct IRewardDistributor.ChainRewardData","components":[{"name":"user","type":"address","internalType":"address"},{"name":"totalAmount","type":"uint256","internalType":"uint256"},{"name":"rewardToken","type":"address","internalType":"address"},{"name":"groupId","type":"bytes32","internalType":"bytes32"},{"name":"eventId","type":"bytes32","internalType":"bytes32"},{"name":"timestamp","type":"uint256","internalType":"uint256"},{"name":"nonce","type":"uint256","internalType":"uint256"}]},{"name":"signature","type":"bytes","internalType":"bytes"}],"outputs":[],"stateMutability":"nonpayable"},{"type":"function","name":"getAuthorizedOracles","inputs":[],"outputs":[{"name":"","type":"address[]","internalType":"address[]"}],"stateMutability":"view"},{"type":"function","name":"getDecayConfig","inputs":[],"outputs":[{"name":"decayType","type":"uint8","internalType":"enum IRewardDistributor.DecayType"},{"name":"decayFactor","type":"uint256","internalType":"uint256"},{"name":"minReward","type":"uint256","internalType":"uint256"}],"stateMutability":"view"},{"type":"function","name":"getOriginalUserPercentage","inputs":[],"outputs":[{"name":"","type":"uint256","internalType":"uint256"}],"stateMutability":"view"},{"type":"function","name":"getReferralGraph","inputs":[],"outputs":[{"name":"","type":"address","internalType":"contract IReferralGraph"}],"stateMutability":"view"},{"type":"function","name":"isAuthorizedOracle","inputs":[{"name":"oracle","type":"address","internalType":"address"}],"outputs":[{"name":"","type":"bool","internalType":"bool"}],"stateMutability":"view"},{"type":"function","name":"isRewardDistributed","inputs":[{"name":"rewardHash","type":"bytes32","internalType":"bytes32"}],"outputs":[{"name":"","type":"bool","internalType":"bool"}],"stateMutability":"view"},{"type":"function","name":"owner","inputs":[],"outputs":[{"name":"","type":"address","internalType":"address"}],"stateMutability":"view"},{"type":"function","name":"referralGraph","inputs":[],"outputs":[{"name":"","type":"address","internalType":"contract IReferralGraph"}],"stateMutability":"view"},{"type":"function","name":"renounceOwnership","inputs":[],"outputs":[],"stateMutability":"nonpayable"},{"type":"function","name":"setDecayConfig","inputs":[{"name":"decayType","type":"uint8","internalType":"enum IRewardDistributor.DecayType"},{"name":"decayFactor","type":"uint256","internalType":"uint256"},{"name":"minReward","type":"uint256","internalType":"uint256"}],"outputs":[],"stateMutability":"nonpayable"},{"type":"function","name":"setOriginalUserPercentage","inputs":[{"name":"percentage","type":"uint256","internalType":"uint256"}],"outputs":[],"stateMutability":"nonpayable"},{"type":"function","name":"transferOwnership","inputs":[{"name":"newOwner","type":"address","internalType":"address"}],"outputs":[],"stateMutability":"nonpayable"},{"type":"function","name":"unauthorizeOracle","inputs":[{"name":"oracle","type":"address","internalType":"address"}],"outputs":[],"stateMutability":"nonpayable"},{"type":"event","name":"ChainRewardsDistributed","inputs":[{"name":"user","type":"address","indexed":true,"internalType":"address"},{"name":"totalAmount","type":"uint256","indexed":false,"internalType":"uint256"},{"name":"eventId","type":"bytes32","indexed":true,"internalType":"bytes32"},{"name":"recipients","type":"address[]","indexed":false,"internalType":"address[]"},{"name":"amounts","type":"uint256[]","indexed":false,"internalType":"uint256[]"}],"anonymous":false},{"type":"event","name":"OracleAuthorized","inputs":[{"name":"oracle","type":"address","indexed":true,"internalType":"address"}],"anonymous":false},{"type":"event","name":"OracleUnauthorized","inputs":[{"name":"oracle","type":"address","indexed":true,"internalType":"address"}],"anonymous":false},{"type":"event","name":"OwnershipTransferred","inputs":[{"name":"previousOwner","type":"address","indexed":true,"internalType":"address"},{"name":"newOwner","type":"address","indexed":true,"internalType":"address"}],"anonymous":false},{"type":"error","name":"ECDSAInvalidSignature","inputs":[]},{"type":"error","name":"ECDSAInvalidSignatureLength","inputs":[{"name":"length","type":"uint256","internalType":"uint256"}]},{"type":"error","name":"ECDSAInvalidSignatureS","inputs":[{"name":"s","type":"bytes32","internalType":"bytes32"}]},{"type":"error","name":"InvalidOracleSignature","inputs":[]},{"type":"error","name":"InvalidParameters","inputs":[]},{"type":"error","name":"OwnableInvalidOwner","inputs":[{"name":"owner","type":"address","internalType":"address"}]},{"type":"error","name":"OwnableUnauthorizedAccount","inputs":[{"name":"account","type":"address","internalType":"address"}]},{"type":"error","name":"RewardAlreadyDistributed","inputs":[]},{"type":"error","name":"UnauthorizedApp","inputs":[]},{"type":"error","name":"ZeroRewardAmount","inputs":[]}],"bytecode":{"object":"0x60a060405234801561000f575f80fd5b506040516117ed3803806117ed83398101604081905261002e91610174565b826001600160a01b03811661005c57604051631e4fbdf760e01b81525f600482015260240160405180910390fd5b6100658161010a565b506001600160a01b038083166080528116156100de576001600160a01b0381165f8181526001602081905260408220805460ff1916821790556002805491820181559091527f405787fa12a823e0f2b7631cc41b3ba8828b3321ca811111fa75cd3aa3bb5ace0180546001600160a01b03191690911790555b50506003805460ff1916600117905550611b58600455662386f26fc10000600555611f406006556101b4565b5f80546001600160a01b038381166001600160a01b0319831681178455604051919092169283917f8be0079c531659141344cd1fd0a4f28419497f9722a3daafe3b4186f6b6457e09190a35050565b80516001600160a01b038116811461016f575f80fd5b919050565b5f805f60608486031215610186575f80fd5b61018f84610159565b925061019d60208501610159565b91506101ab60408501610159565b90509250925092565b60805161160c6101e15f395f818161011e015281816101d201528181610a4d0152610b68015261160c5ff3fe608060405234801561000f575f80fd5b50600436106100f0575f3560e01c80638da5cb5b11610093578063e6ce368911610063578063e6ce368914610232578063e750a0c614610243578063f2fde38b1461025e578063f6b35c2214610271575f80fd5b80638da5cb5b146101bd578063a69dbf03146101cd578063bfe609da146101f4578063e2016a4a1461021f575f80fd5b8063220e89c9116100ce578063220e89c91461015b5780636e138c841461018d578063715018a6146101a257806376bba3be146101aa575f80fd5b80630b701833146100f45780630f13b763146101095780631b8dda191461011c575b5f80fd5b6101076101023660046112d9565b610284565b005b610107610117366004611322565b610309565b7f00000000000000000000000000000000000000000000000000000000000000005b6040516001600160a01b0390911681526020015b60405180910390f35b61017d610169366004611344565b5f9081526007602052604090205460ff1690565b6040519015158152602001610152565b6101956103e3565b604051610152919061139e565b610107610443565b6101076101b8366004611322565b610456565b5f546001600160a01b031661013e565b61013e7f000000000000000000000000000000000000000000000000000000000000000081565b61017d610202366004611322565b6001600160a01b03165f9081526001602052604090205460ff1690565b61010761022d366004611344565b6105c9565b600654604051908152602001610152565b6003546004546005546040516101529360ff169291906113c4565b61010761026c366004611322565b6105f9565b61010761027f3660046113f8565b610638565b61028c61097c565b6127108211156102af57604051630e52390960e41b815260040160405180910390fd5b68056bc75e2d631000008111156102d957604051630e52390960e41b815260040160405180910390fd5b6003805484919060ff191660018360028111156102f8576102f86113b0565b021790555060049190915560055550565b61031161097c565b6001600160a01b03811661033857604051630e52390960e41b815260040160405180910390fd5b6001600160a01b0381165f9081526001602052604090205460ff166103e0576001600160a01b0381165f818152600160208190526040808320805460ff19168317905560028054928301815583527f405787fa12a823e0f2b7631cc41b3ba8828b3321ca811111fa75cd3aa3bb5ace90910180546001600160a01b03191684179055517f5a7a3f71a35f5e2589980d29d1c6d8c75e39657751190874081e55208bae24b79190a25b50565b6060600280548060200260200160405190810160405280929190818152602001828054801561043957602002820191905f5260205f20905b81546001600160a01b0316815260019091019060200180831161041b575b5050505050905090565b61044b61097c565b6104545f6109a8565b565b61045e61097c565b6001600160a01b0381165f9081526001602052604090205460ff16156103e0576001600160a01b0381165f908152600160205260408120805460ff191690555b60025481101561059257816001600160a01b0316600282815481106104c5576104c561147e565b5f918252602090912001546001600160a01b03160361058a57600280546104ee906001906114a6565b815481106104fe576104fe61147e565b5f91825260209091200154600280546001600160a01b0390921691839081106105295761052961147e565b905f5260205f20015f6101000a8154816001600160a01b0302191690836001600160a01b031602179055506002805480610565576105656114b9565b5f8281526020902081015f1990810180546001600160a01b0319169055019055610592565b60010161049e565b506040516001600160a01b038216907fdd4fdcea7474ec44ed60a0e33a8b3e1a80b4002026a6bc5b8e6e97bd88364133905f90a250565b6105d161097c565b6127108111156105f457604051630e52390960e41b815260040160405180910390fd5b600655565b61060161097c565b6001600160a01b03811661062f57604051631e4fbdf760e01b81525f60048201526024015b60405180910390fd5b6103e0816109a8565b82602001355f0361065c5760405163ea1083a760e01b815260040160405180910390fd5b5f61066a6020850185611322565b602085013561067f6060870160408801611322565b6040516bffffffffffffffffffffffff19606094851b81166020830152603482019390935290831b90911660548201529085013560688201526080850135608882015260a085013560a882015260c085013560c882015260e80160408051601f1981840301815291815281516020928301205f818152600790935291205490915060ff161561072157604051634506832760e11b815260040160405180910390fd5b7f19457468657265756d205369676e6564204d6573736167653a0a3332000000005f908152601c829052603c812090505f6107918286868080601f0160208091040260200160405190810160405280939291908181526020018383808284375f920191909152506109f792505050565b6001600160a01b0381165f9081526001602052604090205490915060ff166107cc57604051632f58c7cd60e01b815260040160405180910390fd5b5f8381526007602090815260408220805460ff19166001179055610800906107f690890189611322565b8860600135610a21565b90505f8061081389602001358486610c83565b90925090505f61082960608b0160408c01611322565b90505f5b8351811015610915575f8382815181106108495761084961147e565b6020026020010151111561090d57816001600160a01b031663a9059cbb8583815181106108785761087861147e565b60200260200101518584815181106108925761089261147e565b60200260200101516040518363ffffffff1660e01b81526004016108cb9291906001600160a01b03929092168252602082015260400190565b6020604051808303815f875af11580156108e7573d5f803e3d5ffd5b505050506040513d601f19601f8201168201806040525081019061090b91906114cd565b505b60010161082d565b5060808a013561092860208c018c611322565b6001600160a01b03167f565bac9b966879663b6cee54f6645ca6ec41c8849b130a1a4f4188a43c847d338c602001358686604051610968939291906114ec565b60405180910390a350505050505050505050565b5f546001600160a01b031633146104545760405163118cdaa760e01b8152336004820152602401610626565b5f80546001600160a01b038381166001600160a01b0319831681178455604051919092169283917f8be0079c531659141344cd1fd0a4f28419497f9722a3daafe3b4186f6b6457e09190a35050565b5f805f80610a05868661110c565b925092509250610a158282611155565b50909150505b92915050565b6040805160c880825261192082019092526060915f919060208201611900803683370190505090505f807f00000000000000000000000000000000000000000000000000000000000000006001600160a01b0316635ca1e1656040518163ffffffff1660e01b8152600401602060405180830381865afa158015610aa7573d5f803e3d5ffd5b505050506040513d601f19601f82011682018060405250810190610acb919061155a565b9050855b6001600160a01b03811615801590610af95750816001600160a01b0316816001600160a01b031614155b8015610b055750835183105b15610bdb5780848481518110610b1d57610b1d61147e565b6001600160a01b039092166020928302919091019091015282610b3f81611575565b6040516377ccfd4b60e01b81526001600160a01b038481166004830152602482018a90529195507f000000000000000000000000000000000000000000000000000000000000000090911691506377ccfd4b90604401602060405180830381865afa158015610bb0573d5f803e3d5ffd5b505050506040513d601f19601f82011682018060405250810190610bd4919061155a565b9050610acf565b5f8367ffffffffffffffff811115610bf557610bf5611546565b604051908082528060200260200182016040528015610c1e578160200160208202803683370190505b5090505f5b84811015610c7757858181518110610c3d57610c3d61147e565b6020026020010151828281518110610c5757610c5761147e565b6001600160a01b0390921660209283029190910190910152600101610c23565b50979650505050505050565b6060805f61271060065487610c98919061158d565b610ca291906115a4565b90505f610caf82886114a6565b90505f60018751610cc091906114a6565b9050610ccd8160026115c3565b67ffffffffffffffff811115610ce557610ce5611546565b604051908082528060200260200182016040528015610d0e578160200160208202803683370190505b509450610d1c8160026115c3565b67ffffffffffffffff811115610d3457610d34611546565b604051908082528060200260200182016040528015610d5d578160200160208202803683370190505b509350865f81518110610d7257610d7261147e565b6020026020010151855f81518110610d8c57610d8c61147e565b60200260200101906001600160a01b031690816001600160a01b03168152505082845f81518110610dbf57610dbf61147e565b6020908102919091010152818360015f5b84811015610f66576005548410610f66575f8060035460ff166002811115610dfa57610dfa6113b0565b03610e215761271060045486610e10919061158d565b610e1a91906115a4565b9050610e84565b600160035460ff166002811115610e3a57610e3a6113b0565b03610e505761271060045486610e10919061158d565b600260035460ff166002811115610e6957610e696113b0565b03610e84578460045410610e7d5784610e81565b6004545b90505b600554811015610ea557600554851015610e9e575f610ea2565b6005545b90505b5f81118015610eb45750848111155b15610f57578b610ec58360016115c3565b81518110610ed557610ed561147e565b60200260200101518a8481518110610eef57610eef61147e565b60200260200101906001600160a01b031690816001600160a01b03168152505080898481518110610f2257610f2261147e565b6020908102919091010152610f3781866114a6565b9450610f4381856115c3565b935082610f4f81611575565b935050610f5d565b50610f66565b50600101610dd0565b508215610fd85788888281518110610f8057610f8061147e565b60200260200101906001600160a01b031690816001600160a01b03168152505082878281518110610fb357610fb361147e565b6020908102919091010152610fc883836115c3565b915080610fd481611575565b9150505b5f8167ffffffffffffffff811115610ff257610ff2611546565b60405190808252806020026020018201604052801561101b578160200160208202803683370190505b5090505f8267ffffffffffffffff81111561103857611038611546565b604051908082528060200260200182016040528015611061578160200160208202803683370190505b5090505f5b838110156110f9578a81815181106110805761108061147e565b602002602001015183828151811061109a5761109a61147e565b60200260200101906001600160a01b031690816001600160a01b0316815250508981815181106110cc576110cc61147e565b60200260200101518282815181106110e6576110e661147e565b6020908102919091010152600101611066565b50909c909b509950505050505050505050565b5f805f8351604103611143576020840151604085015160608601515f1a61113588828585611211565b95509550955050505061114e565b505081515f91506002905b9250925092565b5f826003811115611168576111686113b0565b03611171575050565b6001826003811115611185576111856113b0565b036111a35760405163f645eedf60e01b815260040160405180910390fd5b60028260038111156111b7576111b76113b0565b036111d85760405163fce698f760e01b815260048101829052602401610626565b60038260038111156111ec576111ec6113b0565b0361120d576040516335e2f38360e21b815260048101829052602401610626565b5050565b5f80807f7fffffffffffffffffffffffffffffff5d576e7357a4501ddfe92f46681b20a084111561124a57505f915060039050826112cf565b604080515f808252602082018084528a905260ff891692820192909252606081018790526080810186905260019060a0016020604051602081039080840390855afa15801561129b573d5f803e3d5ffd5b5050604051601f1901519150506001600160a01b0381166112c657505f9250600191508290506112cf565b92505f91508190505b9450945094915050565b5f805f606084860312156112eb575f80fd5b8335600381106112f9575f80fd5b95602085013595506040909401359392505050565b6001600160a01b03811681146103e0575f80fd5b5f60208284031215611332575f80fd5b813561133d8161130e565b9392505050565b5f60208284031215611354575f80fd5b5035919050565b5f8151808452602084019350602083015f5b828110156113945781516001600160a01b031686526020958601959091019060010161136d565b5093949350505050565b602081525f61133d602083018461135b565b634e487b7160e01b5f52602160045260245ffd5b60608101600385106113e457634e487b7160e01b5f52602160045260245ffd5b938152602081019290925260409091015290565b5f805f83850361010081121561140c575f80fd5b60e0811215611419575f80fd5b5083925060e084013567ffffffffffffffff811115611436575f80fd5b8401601f81018613611446575f80fd5b803567ffffffffffffffff81111561145c575f80fd5b86602082840101111561146d575f80fd5b939660209190910195509293505050565b634e487b7160e01b5f52603260045260245ffd5b634e487b7160e01b5f52601160045260245ffd5b81810381811115610a1b57610a1b611492565b634e487b7160e01b5f52603160045260245ffd5b5f602082840312156114dd575f80fd5b8151801515811461133d575f80fd5b838152606060208201525f611504606083018561135b565b8281036040840152835180825260208086019201905f5b8181101561153957835183526020938401939092019160010161151b565b5090979650505050505050565b634e487b7160e01b5f52604160045260245ffd5b5f6020828403121561156a575f80fd5b815161133d8161130e565b5f6001820161158657611586611492565b5060010190565b8082028115828204841417610a1b57610a1b611492565b5f826115be57634e487b7160e01b5f52601260045260245ffd5b500490565b80820180821115610a1b57610a1b61149256fea2646970667358221220712352c9dbfa1910c3ffd9dc06b7221448967e0e11feb8763aafc7a6ac2f1d7164736f6c634300081a0033","linkReferences":{}},"methodIdentifiers":{"authorizeOracle(address)":"0f13b763","distributeChainRewards((address,uint256,address,bytes32,bytes32,uint256,uint256),bytes)":"f6b35c22","getAuthorizedOracles()":"6e138c84","getDecayConfig()":"e750a0c6","getOriginalUserPercentage()":"e6ce3689","getReferralGraph()":"1b8dda19","isAuthorizedOracle(address)":"bfe609da","isRewardDistributed(bytes32)":"220e89c9","owner()":"8da5cb5b","referralGraph()":"a69dbf03","renounceOwnership()":"715018a6","setDecayConfig(uint8,uint256,uint256)":"0b701833","setOriginalUserPercentage(uint256)":"e2016a4a","transferOwnership(address)":"f2fde38b","unauthorizeOracle(address)":"76bba3be"},"id":34}