{"abi":[{"type":"constructor","inputs":[{"name":"initialOwner","type":"address","internalType":"address"},{"name":"_referralGraph","type":"address","internalType":"address"},{"name":"initialOracle","type":"address","internalType":"address"}],"stateMutability":"nonpayable"},{"type":"function","name":"REFERRAL_ROOT","inputs":[],"outputs":[{"name":"","type":"address","internalType":"address"}],"stateMutability":"view"},{"type":"function","name":"authorizeOracle","inputs":[{"name":"oracle","type":"address","internalType":"address"}],"outputs":[],"stateMutability":"nonpayable"},{"type":"function","name":"distributeChainRewards","inputs":[{"name":"reward","type":"tuple","internalType":"struct IRewardDistributor.ChainRewardData","components":[{"name":"user","type":"address","internalType":"address"},{"name":"totalAmount","type":"uint256","internalType":"uint256"},{"name":"rewardToken","type":"address","internalType":"address"},{"name":"groupId","type":"bytes32","internalType":"bytes32"},{"name":"eventId","type":"bytes32","internalType":"bytes32"},{"name":"timestamp","type":"uint256","internalType":"uint256"},{"name":"nonce","type":"uint256","internalType":"uint256"}]},{"name":"signature","type":"bytes","internalType":"bytes"}],"outputs":[],"stateMutability":"nonpayable"},{"type":"function","name":"getAuthorizedOracles","inputs":[],"outputs":[{"name":"","type":"address[]","internalType":"address[]"}],"stateMutability":"view"},{"type":"function","name":"getOriginalUserPercentage","inputs":[],"outputs":[{"name":"","type":"uint256","internalType":"uint256"}],"stateMutability":"view"},{"type":"function","name":"getReferralGraph","inputs":[],"outputs":[{"name":"","type":"address","internalType":"contract IReferralGraph"}],"stateMutability":"view"},{"type":"function","name":"isAuthorizedOracle","inputs":[{"name":"oracle","type":"address","internalType":"address"}],"outputs":[{"name":"","type":"bool","internalType":"bool"}],"stateMutability":"view"},{"type":"function","name":"isRewardDistributed","inputs":[{"name":"rewardHash","type":"bytes32","internalType":"bytes32"}],"outputs":[{"name":"","type":"bool","internalType":"bool"}],"stateMutability":"view"},{"type":"function","name":"owner","inputs":[],"outputs":[{"name":"","type":"address","internalType":"address"}],"stateMutability":"view"},{"type":"function","name":"referralGraph","inputs":[],"outputs":[{"name":"","type":"address","internalType":"contract IReferralGraph"}],"stateMutability":"view"},{"type":"function","name":"rewardCalculator","inputs":[],"outputs":[{"name":"","type":"address","internalType":"contract RewardCalculator"}],"stateMutability":"view"},{"type":"function","name":"setOriginalUserPercentage","inputs":[{"name":"percentage","type":"uint256","internalType":"uint256"}],"outputs":[],"stateMutability":"nonpayable"},{"type":"function","name":"transferOwnership","inputs":[{"name":"newOwner","type":"address","internalType":"address"}],"outputs":[],"stateMutability":"nonpayable"},{"type":"function","name":"unauthorizeOracle","inputs":[{"name":"oracle","type":"address","internalType":"address"}],"outputs":[],"stateMutability":"nonpayable"},{"type":"event","name":"ChainRewardsDistributed","inputs":[{"name":"user","type":"address","indexed":true,"internalType":"address"},{"name":"totalAmount","type":"uint256","indexed":false,"internalType":"uint256"},{"name":"eventId","type":"bytes32","indexed":true,"internalType":"bytes32"},{"name":"recipients","type":"address[]","indexed":false,"internalType":"address[]"},{"name":"amounts","type":"uint256[]","indexed":false,"internalType":"uint256[]"}],"anonymous":false},{"type":"event","name":"OracleAuthorized","inputs":[{"name":"oracle","type":"address","indexed":true,"internalType":"address"}],"anonymous":false},{"type":"event","name":"OracleUnauthorized","inputs":[{"name":"oracle","type":"address","indexed":true,"internalType":"address"}],"anonymous":false},{"type":"event","name":"OwnershipTransferred","inputs":[{"name":"user","type":"address","indexed":true,"internalType":"address"},{"name":"newOwner","type":"address","indexed":true,"internalType":"address"}],"anonymous":false},{"type":"error","name":"ECDSAInvalidSignature","inputs":[]},{"type":"error","name":"ECDSAInvalidSignatureLength","inputs":[{"name":"length","type":"uint256","internalType":"uint256"}]},{"type":"error","name":"ECDSAInvalidSignatureS","inputs":[{"name":"s","type":"bytes32","internalType":"bytes32"}]},{"type":"error","name":"InvalidOracleAddress","inputs":[]},{"type":"error","name":"InvalidOracleSignature","inputs":[]},{"type":"error","name":"InvalidParameters","inputs":[]},{"type":"error","name":"InvalidPercentageValue","inputs":[]},{"type":"error","name":"RewardAlreadyDistributed","inputs":[]},{"type":"error","name":"UnauthorizedApp","inputs":[]},{"type":"error","name":"ZeroRewardAmount","inputs":[]}],"bytecode":{"object":"0x60c0346101d957601f6114ce38819003918201601f19168301916001600160401b038311848410176101ba578084926060946040528339810103126101d957610047816101dd565b906100606040610059602084016101dd565b92016101dd565b5f80546001600160a01b0319166001600160a01b0390941693841781556040519193919291907f8be0079c531659141344cd1fd0a4f28419497f9722a3daafe3b4186f6b6457e08180a3600180556001600160a01b03166080526103868181016001600160401b038111838210176101ba578291611148833903905ff080156101ce5760a0526001600160a01b03168061012a575b611f40600455604051610f5690816101f282396080518181816102950152610c65015260a05181818161033e01526108f70152f35b805f52600260205260405f20600160ff19825416179055600354680100000000000000008110156101ba5760018101806003558110156101a65760035f9081527fc2575a0e9e593c00f959f8c92f12db2869c3395a3b0502d05e2516446f71f85b9190910180546001600160a01b0319169092179091556100f5565b634e487b7160e01b5f52603260045260245ffd5b634e487b7160e01b5f52604160045260245ffd5b6040513d5f823e3d90fd5b5f80fd5b51906001600160a01b03821682036101d95756fe60806040526004361015610011575f80fd5b5f3560e01c80630f13b76314610b715780631b8dda19146108dd578063220e89c914610b425780636e138c8414610aad57806376bba3be1461094d5780638da5cb5b1461092657806396769e89146108e2578063a69dbf03146108dd578063ba594751146108c2578063bfe609da14610881578063e2016a4a1461083c578063e6ce36891461081f578063f2fde38b146107ab5763f6b35c22146100b3575f80fd5b3461064357366003190161010081126106435760e0136106435760e43567ffffffffffffffff8111610643573660238201121561064357806004013567ffffffffffffffff811161064357366024828401011161064357600180540361077957600260015560243591821561076a5761012a610d59565b91610133610d6f565b9160643593608435936040519060208201926001600160601b03199060601b1683528760348301526001600160601b03199060601b16605482015285606882015284608882015260a43560a882015260c43560c882015260c8815261019960e882610d37565b51902091825f52600560205260ff60405f20541661075b5761021c91610213917f19457468657265756d205369676e6564204d6573736167653a0a3332000000005f5284601c525f6020603c8220928060246040519661020285601f19601f8601160189610d37565b828852018387013784010152610df0565b90929192610e2a565b6001600160a01b03165f9081526002602052604090205460ff161561074c575f52600560205260405f20600160ff19825416179055610259610d59565b6040519261018061026a8186610d37565b600b8552601f1901366020860137819060019261028686610d85565b6001600160a01b0391821690527f000000000000000000000000000000000000000000000000000000000000000016915b600b841061068b575b5050506102cc81610dbe565b925f5b828110610663575050508151600181115f1461065b575f19810190811161059c57905b600a8211610652575b600454808502908582040361059c576127109004938481039381851161059c57604051632454438360e11b81526004810195909552602485018490525f856044817f00000000000000000000000000000000000000000000000000000000000000006001600160a01b03165afa948515610647575f956105b0575b50600184019384811161059c5761038c85610dbe565b956103af61039987610da6565b966103a76040519889610d37565b808852610da6565b602087019890601f1901368a376001600160a01b036103cd85610d85565b51166103d889610d85565b526103e287610d85565b525f5b82811061055257505050505f5b84518110156104c0576104058185610d92565b51610413575b6001016103f2565b6001600160a01b03610423610d6f565b1660205f60446001600160a01b0361043b868b610d92565b5116610447868a610d92565b516040519163a9059cbb60e01b83526004830152602482015282855af19081601f3d1160015f51141615166104b3575b5061040b5760405162461bcd60e51b815260206004820152600f60248201526e1514905394d1915497d19052531151608a1b6044820152606490fd5b3b153d171590505f610477565b509093909160206104f26001600160a01b036104da610d59565b16956040519586526060838701526060860190610c94565b91848303604086015251918281520191905f5b81811061053c5750505090807f565bac9b966879663b6cee54f6645ca6ec41c8849b130a1a4f4188a43c847d33920390a360018055005b8251845260209384019390920191600101610505565b600181019081811161059c576001916001600160a01b036105738288610d92565b511661057f828c610d92565b5261059561058d8386610d92565b51918a610d92565b52016103e5565b634e487b7160e01b5f52601160045260245ffd5b9094503d805f833e6105c28183610d37565b8101906020818303126106435780519067ffffffffffffffff821161064357019080601f830112156106435781516105f981610da6565b926106076040519485610d37565b81845260208085019260051b82010192831161064357602001905b82821061063357505050935f610376565b8151815260209182019101610622565b5f80fd5b6040513d5f823e3d90fd5b600a91506102fb565b505f906102f2565b6001906001600160a01b036106788285610d92565b51166106848288610d92565b52016102cf565b6040516377ccfd4b60e01b81526001600160a01b03909116600482015260248101829052602081604481865afa908115610647575f9161070b575b506001600160a01b03811680158015610701575b6106fb57845f19811461059c5760016106f591019588610d92565b526102b7565b506102c0565b50600181146106da565b90506020813d8211610744575b8161072560209383610d37565b8101031261064357516001600160a01b0381168103610643575f6106c6565b3d9150610718565b632f58c7cd60e01b5f5260045ffd5b634506832760e11b5f5260045ffd5b63ea1083a760e01b5f5260045ffd5b60405162461bcd60e51b815260206004820152600a6024820152695245454e5452414e435960b01b6044820152606490fd5b34610643576020366003190112610643576004356001600160a01b03811690819003610643575f5481906107e9336001600160a01b03831614610cd0565b6001600160601b0360a01b16175f55337f8be0079c531659141344cd1fd0a4f28419497f9722a3daafe3b4186f6b6457e05f80a3005b34610643575f366003190112610643576020600454604051908152f35b346106435760203660031901126106435760043561086460018060a01b035f54163314610cd0565b612710811161087257600455005b63a15aaf3960e01b5f5260045ffd5b34610643576020366003190112610643576004356001600160a01b03811690819003610643575f526002602052602060ff60405f2054166040519015158152f35b34610643575f36600319011261064357602060405160018152f35b610c50565b34610643575f366003190112610643576040517f00000000000000000000000000000000000000000000000000000000000000006001600160a01b03168152602090f35b34610643575f366003190112610643575f546040516001600160a01b039091168152602090f35b34610643576020366003190112610643576004356001600160a01b038116908190036106435761098760018060a01b035f54163314610cd0565b805f52600260205260ff60405f20541661099d57005b5f818152600260205260408120805460ff191690555b6003549081811015610aa657826109c982610d0b565b905460039190911b1c6001600160a01b0316146109ea5760019150016109b3565b5f19820191821161059c57610a1c610a04610a4093610d0b565b905460039190911b1c6001600160a01b031691610d0b565b81546001600160a01b0393841660039290921b91821b9390911b1916919091179055565b6003548015610a92575f1901610a5581610d0b565b81546001600160a01b03600392831b1b1916909155555b7fdd4fdcea7474ec44ed60a0e33a8b3e1a80b4002026a6bc5b8e6e97bd883641335f80a2005b634e487b7160e01b5f52603160045260245ffd5b5050610a6c565b34610643575f3660031901126106435760405180602060035491828152019060035f527fc2575a0e9e593c00f959f8c92f12db2869c3395a3b0502d05e2516446f71f85b905f5b818110610b2357610b1f85610b0b81870382610d37565b604051918291602083526020830190610c94565b0390f35b82546001600160a01b0316845260209093019260019283019201610af4565b34610643576020366003190112610643576004355f526005602052602060ff60405f2054166040519015158152f35b34610643576020366003190112610643576004356001600160a01b0381169081810361064357610bab60018060a01b035f54163314610cd0565b8115610c4157815f52600260205260ff60405f20541615610bc857005b815f52600260205260405f20600160ff198254161790556003549068010000000000000000821015610c2d57610a1c826001610c079401600355610d0b565b7f5a7a3f71a35f5e2589980d29d1c6d8c75e39657751190874081e55208bae24b75f80a2005b634e487b7160e01b5f52604160045260245ffd5b635521068160e01b5f5260045ffd5b34610643575f366003190112610643576040517f00000000000000000000000000000000000000000000000000000000000000006001600160a01b03168152602090f35b90602080835192838152019201905f5b818110610cb15750505090565b82516001600160a01b0316845260209384019390920191600101610ca4565b15610cd757565b60405162461bcd60e51b815260206004820152600c60248201526b15539055551213d49256915160a21b6044820152606490fd5b600354811015610d235760035f5260205f2001905f90565b634e487b7160e01b5f52603260045260245ffd5b90601f8019910116810190811067ffffffffffffffff821117610c2d57604052565b6004356001600160a01b03811681036106435790565b6044356001600160a01b03811681036106435790565b805115610d235760200190565b8051821015610d235760209160051b010190565b67ffffffffffffffff8111610c2d5760051b60200190565b90610dc882610da6565b610dd56040519182610d37565b8281528092610de6601f1991610da6565b0190602036910137565b8151919060418303610e2057610e199250602082015190606060408401519301515f1a90610e9e565b9192909190565b50505f9160029190565b6004811015610e8a5780610e3c575050565b60018103610e535763f645eedf60e01b5f5260045ffd5b60028103610e6e575063fce698f760e01b5f5260045260245ffd5b600314610e785750565b6335e2f38360e21b5f5260045260245ffd5b634e487b7160e01b5f52602160045260245ffd5b91907f7fffffffffffffffffffffffffffffff5d576e7357a4501ddfe92f46681b20a08411610f15579160209360809260ff5f9560405194855216868401526040830152606082015282805260015afa15610647575f516001600160a01b03811615610f0b57905f905f90565b505f906001905f90565b5050505f916003919056fea2646970667358221220a1fe9eb9c8e307e83d39615a23953fcc6fd1abab06377819d4cc6f485eb4bbc064736f6c634300081a00336080806040523460155761036c908161001a8239f35b5f80fdfe60806040526004361015610011575f80fd5b5f3560e01c6348a8870614610024575f80fd5b3461008757604036600319011261008757610043602435600435610133565b6040518091602082016020835281518091526020604084019201905f5b81811061006e575050500390f35b8251845285945060209384019390920191600101610060565b5f80fd5b6040519190601f01601f1916820167ffffffffffffffff8111838210176100b157604052565b634e487b7160e01b5f52604160045260245ffd5b67ffffffffffffffff81116100b15760051b60200190565b8051156100ea5760200190565b634e487b7160e01b5f52603260045260245ffd5b80518210156100ea5760209160051b010190565b9190820180921161011f57565b634e487b7160e01b5f52601160045260245ffd5b919091821561031f57600a8311610316575b60405190610140820182811067ffffffffffffffff8211176100b15760405261271082526117706020830152610e1060408301526108706060830152610510608083015261030960a08301526101d260c083015261011760e083015260a7610100830152606461012083015260405193610160850185811067ffffffffffffffff8211176100b1576040525f85526127106020860152613e806040860152614c9060608601526155006080860152615a1060a0860152615d1960c0860152615eeb60e08601526160026101008601526160a961012086015261610d610140860152610237610232826100c5565b61008b565b81815292601f19610247836100c5565b013660208601378395600b8310156100ea578260051b01515f8115905b8481106102c657505050505f905f905b8082106102a5575050810390811161011f5761029c6102a291610296846100dd565b51610112565b916100dd565b52565b90916102be6001916102b785886100fe565b5190610112565b920190610274565b600a8110156100ea578060051b8401519081870291878304148715171561011f57826103025783600192046102fb828a6100fe565b5201610264565b634e487b7160e01b5f52601260045260245ffd5b600a9250610145565b50905061032c602061008b565b5f81525f3681379056fea26469706673582212201daf1f7be1cb1fceb7b583fd2eab5ba2dd586bc3880f1f6efa33184823b7123b64736f6c634300081a0033","linkReferences":{}},"methodIdentifiers":{"REFERRAL_ROOT()":"ba594751","authorizeOracle(address)":"0f13b763","distributeChainRewards((address,uint256,address,bytes32,bytes32,uint256,uint256),bytes)":"f6b35c22","getAuthorizedOracles()":"6e138c84","getOriginalUserPercentage()":"e6ce3689","getReferralGraph()":"1b8dda19","isAuthorizedOracle(address)":"bfe609da","isRewardDistributed(bytes32)":"220e89c9","owner()":"8da5cb5b","referralGraph()":"a69dbf03","rewardCalculator()":"96769e89","setOriginalUserPercentage(uint256)":"e2016a4a","transferOwnership(address)":"f2fde38b","unauthorizeOracle(address)":"76bba3be"},"id":38}