{"abi":[{"type":"constructor","inputs":[{"name":"initialOwner","type":"address","internalType":"address"},{"name":"_referralGraph","type":"address","internalType":"address"},{"name":"initialOracle","type":"address","internalType":"address"}],"stateMutability":"nonpayable"},{"type":"function","name":"REFERRAL_ROOT","inputs":[],"outputs":[{"name":"","type":"address","internalType":"address"}],"stateMutability":"view"},{"type":"function","name":"authorizeOracle","inputs":[{"name":"oracle","type":"address","internalType":"address"}],"outputs":[],"stateMutability":"nonpayable"},{"type":"function","name":"distributeChainRewards","inputs":[{"name":"reward","type":"tuple","internalType":"struct IRewardDistributor.ChainRewardData","components":[{"name":"user","type":"address","internalType":"address"},{"name":"totalAmount","type":"uint256","internalType":"uint256"},{"name":"rewardToken","type":"address","internalType":"address"},{"name":"groupId","type":"bytes32","internalType":"bytes32"},{"name":"eventId","type":"bytes32","internalType":"bytes32"},{"name":"timestamp","type":"uint256","internalType":"uint256"},{"name":"nonce","type":"uint256","internalType":"uint256"}]},{"name":"signature","type":"bytes","internalType":"bytes"}],"outputs":[],"stateMutability":"nonpayable"},{"type":"function","name":"getAuthorizedOracles","inputs":[],"outputs":[{"name":"","type":"address[]","internalType":"address[]"}],"stateMutability":"view"},{"type":"function","name":"getOriginalUserPercentage","inputs":[],"outputs":[{"name":"","type":"uint256","internalType":"uint256"}],"stateMutability":"view"},{"type":"function","name":"getReferralGraph","inputs":[],"outputs":[{"name":"","type":"address","internalType":"contract IReferralGraph"}],"stateMutability":"view"},{"type":"function","name":"isAuthorizedOracle","inputs":[{"name":"oracle","type":"address","internalType":"address"}],"outputs":[{"name":"","type":"bool","internalType":"bool"}],"stateMutability":"view"},{"type":"function","name":"isRewardDistributed","inputs":[{"name":"rewardHash","type":"bytes32","internalType":"bytes32"}],"outputs":[{"name":"","type":"bool","internalType":"bool"}],"stateMutability":"view"},{"type":"function","name":"owner","inputs":[],"outputs":[{"name":"","type":"address","internalType":"address"}],"stateMutability":"view"},{"type":"function","name":"referralGraph","inputs":[],"outputs":[{"name":"","type":"address","internalType":"contract IReferralGraph"}],"stateMutability":"view"},{"type":"function","name":"renounceOwnership","inputs":[],"outputs":[],"stateMutability":"nonpayable"},{"type":"function","name":"rewardCalculator","inputs":[],"outputs":[{"name":"","type":"address","internalType":"contract RewardCalculator"}],"stateMutability":"view"},{"type":"function","name":"setOriginalUserPercentage","inputs":[{"name":"percentage","type":"uint256","internalType":"uint256"}],"outputs":[],"stateMutability":"nonpayable"},{"type":"function","name":"transferOwnership","inputs":[{"name":"newOwner","type":"address","internalType":"address"}],"outputs":[],"stateMutability":"nonpayable"},{"type":"function","name":"unauthorizeOracle","inputs":[{"name":"oracle","type":"address","internalType":"address"}],"outputs":[],"stateMutability":"nonpayable"},{"type":"event","name":"ChainRewardsDistributed","inputs":[{"name":"user","type":"address","indexed":true,"internalType":"address"},{"name":"totalAmount","type":"uint256","indexed":false,"internalType":"uint256"},{"name":"eventId","type":"bytes32","indexed":true,"internalType":"bytes32"},{"name":"recipients","type":"address[]","indexed":false,"internalType":"address[]"},{"name":"amounts","type":"uint256[]","indexed":false,"internalType":"uint256[]"}],"anonymous":false},{"type":"event","name":"OracleAuthorized","inputs":[{"name":"oracle","type":"address","indexed":true,"internalType":"address"}],"anonymous":false},{"type":"event","name":"OracleUnauthorized","inputs":[{"name":"oracle","type":"address","indexed":true,"internalType":"address"}],"anonymous":false},{"type":"event","name":"OwnershipTransferred","inputs":[{"name":"previousOwner","type":"address","indexed":true,"internalType":"address"},{"name":"newOwner","type":"address","indexed":true,"internalType":"address"}],"anonymous":false},{"type":"error","name":"ECDSAInvalidSignature","inputs":[]},{"type":"error","name":"ECDSAInvalidSignatureLength","inputs":[{"name":"length","type":"uint256","internalType":"uint256"}]},{"type":"error","name":"ECDSAInvalidSignatureS","inputs":[{"name":"s","type":"bytes32","internalType":"bytes32"}]},{"type":"error","name":"InvalidOracleSignature","inputs":[]},{"type":"error","name":"InvalidParameters","inputs":[]},{"type":"error","name":"OwnableInvalidOwner","inputs":[{"name":"owner","type":"address","internalType":"address"}]},{"type":"error","name":"OwnableUnauthorizedAccount","inputs":[{"name":"account","type":"address","internalType":"address"}]},{"type":"error","name":"RewardAlreadyDistributed","inputs":[]},{"type":"error","name":"UnauthorizedApp","inputs":[]},{"type":"error","name":"ZeroRewardAmount","inputs":[]}],"bytecode":{"object":"0x60c0346101f657601f6114d138819003918201601f19168301916001600160401b038311848410176101c4578084926060946040528339810103126101f657610047816101fa565b906100606040610059602084016101fa565b92016101fa565b916001600160a01b03169081156101e3575f80546001600160a01b031981168417825560405193916001600160a01b03909116907f8be0079c531659141344cd1fd0a4f28419497f9722a3daafe3b4186f6b6457e09080a36001600160a01b03166080526103868181016001600160401b038111838210176101c457829161114b833903905ff080156101d85760a0526001600160a01b031680610134575b611f40600355604051610f3c908161020f823960805181818161029c0152610c60015260a05181818161034501526108c20152f35b805f52600160205260405f20600160ff19825416179055600254680100000000000000008110156101c45760018101806002558110156101b05760025f9081527f405787fa12a823e0f2b7631cc41b3ba8828b3321ca811111fa75cd3aa3bb5ace9190910180546001600160a01b0319169092179091556100ff565b634e487b7160e01b5f52603260045260245ffd5b634e487b7160e01b5f52604160045260245ffd5b6040513d5f823e3d90fd5b631e4fbdf760e01b5f525f60045260245ffd5b5f80fd5b51906001600160a01b03821682036101f65756fe60806040526004361015610011575f80fd5b5f3560e01c80630f13b76314610b875780631b8dda19146108a8578063220e89c914610b585780636e138c8414610ac3578063715018a614610a6c57806376bba3be146109185780638da5cb5b146108f157806396769e89146108ad578063a69dbf03146108a8578063ba5947511461088d578063bfe609da1461084c578063e2016a4a14610813578063e6ce3689146107f6578063f2fde38b1461076d5763f6b35c22146100be575f80fd5b346104b057366003190161010081126104b05760e0136104b05760e43567ffffffffffffffff81116104b057366023820112156104b057806004013567ffffffffffffffff81116104b05736602482840101116104b05760243590811561075e57610127610d19565b90610130610d2f565b9360643592608435956040519060208201926bffffffffffffffffffffffff199060601b1683528660348301526bffffffffffffffffffffffff199060601b16605482015284606882015286608882015260a43560a882015260c43560c882015260c881526101a060e882610cf7565b51902091825f52600460205260ff60405f20541661074f576102239161021a917f19457468657265756d205369676e6564204d6573736167653a0a3332000000005f5284601c525f6020603c8220928060246040519661020985601f19601f8601160189610cf7565b828852018387013784010152610dd6565b90929192610e10565b6001600160a01b03165f9081526001602052604090205460ff1615610740575f52600460205260405f20600160ff19825416179055610260610d19565b604051916101806102718185610cf7565b600b8452601f1901366020850137819060019261028d85610d45565b6001600160a01b0391821690527f000000000000000000000000000000000000000000000000000000000000000016915b600b841061067f575b5050506102d381610da4565b915f5b828110610657575050508051600181115f1461064f575f19810190811161059f57905b600a8211610646575b600354808402908482040361059f576127109004938484039184831161059f57604051632454438360e11b81526004810193909352602483018490525f836044817f00000000000000000000000000000000000000000000000000000000000000006001600160a01b03165afa9283156104bc575f936105b3575b50600184019384811161059f5761039385610da4565b936103b66103a087610d8c565b966103ae6040519889610cf7565b808852610d8c565b602087019890601f1901368a376001600160a01b036103d485610d45565b51166103df87610d45565b526103e987610d45565b525f5b82811061055557506001600160a01b03925061040a9150610d2f9050565b16935f5b83518110156104c7576104218186610d52565b5161042f575b60010161040e565b6001600160a01b036104418286610d52565b511661044d8287610d52565b516040519163a9059cbb60e01b8352600483015260248201526020816044815f8b5af180156104bc57610481575b50610427565b6020813d82116104b4575b8161049960209383610cf7565b810103126104b05751801515036104b0575f61047b565b5f80fd5b3d915061048c565b6040513d5f823e3d90fd5b509092859060206104f96001600160a01b036104e1610d19565b16956040519586526060838701526060860190610c8f565b91848303604086015251918281520191905f5b81811061053f5750505090807f565bac9b966879663b6cee54f6645ca6ec41c8849b130a1a4f4188a43c847d33920390a3005b825184526020938401939092019160010161050c565b600181019081811161059f576001916001600160a01b036105768288610d52565b5116610582828a610d52565b526105986105908386610d52565b51918a610d52565b52016103ec565b634e487b7160e01b5f52601160045260245ffd5b9092503d805f833e6105c58183610cf7565b8101906020818303126104b05780519067ffffffffffffffff82116104b057019080601f830112156104b05781516105fc81610d8c565b9261060a6040519485610cf7565b81845260208085019260051b8201019283116104b057602001905b82821061063657505050915f61037d565b8151815260209182019101610625565b600a9150610302565b505f906102f9565b6001906001600160a01b0361066c8285610d52565b51166106788287610d52565b52016102d6565b6040516377ccfd4b60e01b81526001600160a01b03909116600482015260248101829052602081604481865afa9081156104bc575f916106ff575b506001600160a01b038116801580156106f5575b6106ef57845f19811461059f5760016106e991019587610d52565b526102be565b506102c7565b50600181146106ce565b90506020813d8211610738575b8161071960209383610cf7565b810103126104b057516001600160a01b03811681036104b0575f6106ba565b3d915061070c565b632f58c7cd60e01b5f5260045ffd5b634506832760e11b5f5260045ffd5b63ea1083a760e01b5f5260045ffd5b346104b05760203660031901126104b0576004356001600160a01b038116908190036104b05761079b610d66565b80156107e3575f80546001600160a01b03198116831782556001600160a01b0316907f8be0079c531659141344cd1fd0a4f28419497f9722a3daafe3b4186f6b6457e09080a3005b631e4fbdf760e01b5f525f60045260245ffd5b346104b0575f3660031901126104b0576020600354604051908152f35b346104b05760203660031901126104b05760043561082f610d66565b612710811161083d57600355005b630e52390960e41b5f5260045ffd5b346104b05760203660031901126104b0576004356001600160a01b038116908190036104b0575f526001602052602060ff60405f2054166040519015158152f35b346104b0575f3660031901126104b057602060405160018152f35b610c4b565b346104b0575f3660031901126104b0576040517f00000000000000000000000000000000000000000000000000000000000000006001600160a01b03168152602090f35b346104b0575f3660031901126104b0575f546040516001600160a01b039091168152602090f35b346104b05760203660031901126104b0576004356001600160a01b038116908190036104b057610946610d66565b805f52600160205260ff60405f20541661095c57005b5f818152600160205260408120805460ff191690555b6002549081811015610a65578261098882610ccb565b905460039190911b1c6001600160a01b0316146109a9576001915001610972565b5f19820191821161059f576109db6109c36109ff93610ccb565b905460039190911b1c6001600160a01b031691610ccb565b81546001600160a01b0393841660039290921b91821b9390911b1916919091179055565b6002548015610a51575f1901610a1481610ccb565b81549060018060a01b039060031b1b191690556002555b7fdd4fdcea7474ec44ed60a0e33a8b3e1a80b4002026a6bc5b8e6e97bd883641335f80a2005b634e487b7160e01b5f52603160045260245ffd5b5050610a2b565b346104b0575f3660031901126104b057610a84610d66565b5f80546001600160a01b0319811682556001600160a01b03167f8be0079c531659141344cd1fd0a4f28419497f9722a3daafe3b4186f6b6457e08280a3005b346104b0575f3660031901126104b05760405180602060025491828152019060025f527f405787fa12a823e0f2b7631cc41b3ba8828b3321ca811111fa75cd3aa3bb5ace905f5b818110610b3957610b3585610b2181870382610cf7565b604051918291602083526020830190610c8f565b0390f35b82546001600160a01b0316845260209093019260019283019201610b0a565b346104b05760203660031901126104b0576004355f526004602052602060ff60405f2054166040519015158152f35b346104b05760203660031901126104b0576004356001600160a01b038116908181036104b057610bb5610d66565b811561083d57815f52600160205260ff60405f20541615610bd257005b815f52600160205260405f20600160ff198254161790556002549068010000000000000000821015610c37576109db826001610c119401600255610ccb565b7f5a7a3f71a35f5e2589980d29d1c6d8c75e39657751190874081e55208bae24b75f80a2005b634e487b7160e01b5f52604160045260245ffd5b346104b0575f3660031901126104b0576040517f00000000000000000000000000000000000000000000000000000000000000006001600160a01b03168152602090f35b90602080835192838152019201905f5b818110610cac5750505090565b82516001600160a01b0316845260209384019390920191600101610c9f565b600254811015610ce35760025f5260205f2001905f90565b634e487b7160e01b5f52603260045260245ffd5b90601f8019910116810190811067ffffffffffffffff821117610c3757604052565b6004356001600160a01b03811681036104b05790565b6044356001600160a01b03811681036104b05790565b805115610ce35760200190565b8051821015610ce35760209160051b010190565b5f546001600160a01b03163303610d7957565b63118cdaa760e01b5f523360045260245ffd5b67ffffffffffffffff8111610c375760051b60200190565b90610dae82610d8c565b610dbb6040519182610cf7565b8281528092610dcc601f1991610d8c565b0190602036910137565b8151919060418303610e0657610dff9250602082015190606060408401519301515f1a90610e84565b9192909190565b50505f9160029190565b6004811015610e705780610e22575050565b60018103610e395763f645eedf60e01b5f5260045ffd5b60028103610e54575063fce698f760e01b5f5260045260245ffd5b600314610e5e5750565b6335e2f38360e21b5f5260045260245ffd5b634e487b7160e01b5f52602160045260245ffd5b91907f7fffffffffffffffffffffffffffffff5d576e7357a4501ddfe92f46681b20a08411610efb579160209360809260ff5f9560405194855216868401526040830152606082015282805260015afa156104bc575f516001600160a01b03811615610ef157905f905f90565b505f906001905f90565b5050505f916003919056fea2646970667358221220ca849272f29805662c25700bbdf732adf8fa76aae1f9fd1a1815313ce5e2c85f64736f6c634300081a00336080806040523460155761036c908161001a8239f35b5f80fdfe60806040526004361015610011575f80fd5b5f3560e01c6348a8870614610024575f80fd5b3461008757604036600319011261008757610043602435600435610133565b6040518091602082016020835281518091526020604084019201905f5b81811061006e575050500390f35b8251845285945060209384019390920191600101610060565b5f80fd5b6040519190601f01601f1916820167ffffffffffffffff8111838210176100b157604052565b634e487b7160e01b5f52604160045260245ffd5b67ffffffffffffffff81116100b15760051b60200190565b8051156100ea5760200190565b634e487b7160e01b5f52603260045260245ffd5b80518210156100ea5760209160051b010190565b9190820180921161011f57565b634e487b7160e01b5f52601160045260245ffd5b919091821561031f57600a8311610316575b60405190610140820182811067ffffffffffffffff8211176100b15760405261271082526117706020830152610e1060408301526108706060830152610510608083015261030960a08301526101d260c083015261011760e083015260a7610100830152606461012083015260405193610160850185811067ffffffffffffffff8211176100b1576040525f85526127106020860152613e806040860152614c9060608601526155006080860152615a1060a0860152615d1960c0860152615eeb60e08601526160026101008601526160a961012086015261610d610140860152610237610232826100c5565b61008b565b81815292601f19610247836100c5565b013660208601378395600b8310156100ea578260051b01515f8115905b8481106102c657505050505f905f905b8082106102a5575050810390811161011f5761029c6102a291610296846100dd565b51610112565b916100dd565b52565b90916102be6001916102b785886100fe565b5190610112565b920190610274565b600a8110156100ea578060051b8401519081870291878304148715171561011f57826103025783600192046102fb828a6100fe565b5201610264565b634e487b7160e01b5f52601260045260245ffd5b600a9250610145565b50905061032c602061008b565b5f81525f3681379056fea2646970667358221220f7b761de1dea25cdc51ed853dffb33e687e01c9cda079b6d211e2d7e5b7527da64736f6c634300081a0033","linkReferences":{}},"methodIdentifiers":{"REFERRAL_ROOT()":"ba594751","authorizeOracle(address)":"0f13b763","distributeChainRewards((address,uint256,address,bytes32,bytes32,uint256,uint256),bytes)":"f6b35c22","getAuthorizedOracles()":"6e138c84","getOriginalUserPercentage()":"e6ce3689","getReferralGraph()":"1b8dda19","isAuthorizedOracle(address)":"bfe609da","isRewardDistributed(bytes32)":"220e89c9","owner()":"8da5cb5b","referralGraph()":"a69dbf03","renounceOwnership()":"715018a6","rewardCalculator()":"96769e89","setOriginalUserPercentage(uint256)":"e2016a4a","transferOwnership(address)":"f2fde38b","unauthorizeOracle(address)":"76bba3be"},"id":35}