{"abi":[{"type":"constructor","inputs":[{"name":"initialOwner","type":"address","internalType":"address"},{"name":"_referralGraph","type":"address","internalType":"address"},{"name":"initialOracle","type":"address","internalType":"address"}],"stateMutability":"nonpayable"},{"type":"function","name":"REFERRAL_ROOT","inputs":[],"outputs":[{"name":"","type":"address","internalType":"address"}],"stateMutability":"view"},{"type":"function","name":"authorizeOracle","inputs":[{"name":"oracle","type":"address","internalType":"address"}],"outputs":[],"stateMutability":"nonpayable"},{"type":"function","name":"distributeChainRewards","inputs":[{"name":"reward","type":"tuple","internalType":"struct IRewardDistributor.ChainRewardData","components":[{"name":"user","type":"address","internalType":"address"},{"name":"totalAmount","type":"uint256","internalType":"uint256"},{"name":"rewardToken","type":"address","internalType":"address"},{"name":"groupId","type":"bytes32","internalType":"bytes32"},{"name":"eventId","type":"bytes32","internalType":"bytes32"},{"name":"timestamp","type":"uint256","internalType":"uint256"},{"name":"nonce","type":"uint256","internalType":"uint256"}]},{"name":"signature","type":"bytes","internalType":"bytes"}],"outputs":[],"stateMutability":"nonpayable"},{"type":"function","name":"getAuthorizedOracles","inputs":[],"outputs":[{"name":"","type":"address[]","internalType":"address[]"}],"stateMutability":"view"},{"type":"function","name":"getOriginalUserPercentage","inputs":[],"outputs":[{"name":"","type":"uint256","internalType":"uint256"}],"stateMutability":"view"},{"type":"function","name":"getReferralGraph","inputs":[],"outputs":[{"name":"","type":"address","internalType":"contract IReferralGraph"}],"stateMutability":"view"},{"type":"function","name":"isAuthorizedOracle","inputs":[{"name":"oracle","type":"address","internalType":"address"}],"outputs":[{"name":"","type":"bool","internalType":"bool"}],"stateMutability":"view"},{"type":"function","name":"isRewardDistributed","inputs":[{"name":"rewardHash","type":"bytes32","internalType":"bytes32"}],"outputs":[{"name":"","type":"bool","internalType":"bool"}],"stateMutability":"view"},{"type":"function","name":"owner","inputs":[],"outputs":[{"name":"","type":"address","internalType":"address"}],"stateMutability":"view"},{"type":"function","name":"referralGraph","inputs":[],"outputs":[{"name":"","type":"address","internalType":"contract IReferralGraph"}],"stateMutability":"view"},{"type":"function","name":"rewardCalculator","inputs":[],"outputs":[{"name":"","type":"address","internalType":"contract RewardCalculator"}],"stateMutability":"view"},{"type":"function","name":"setOriginalUserPercentage","inputs":[{"name":"percentage","type":"uint256","internalType":"uint256"}],"outputs":[],"stateMutability":"nonpayable"},{"type":"function","name":"transferOwnership","inputs":[{"name":"newOwner","type":"address","internalType":"address"}],"outputs":[],"stateMutability":"nonpayable"},{"type":"function","name":"unauthorizeOracle","inputs":[{"name":"oracle","type":"address","internalType":"address"}],"outputs":[],"stateMutability":"nonpayable"},{"type":"event","name":"ChainRewardsDistributed","inputs":[{"name":"user","type":"address","indexed":true,"internalType":"address"},{"name":"totalAmount","type":"uint256","indexed":false,"internalType":"uint256"},{"name":"eventId","type":"bytes32","indexed":true,"internalType":"bytes32"},{"name":"recipients","type":"address[]","indexed":false,"internalType":"address[]"},{"name":"amounts","type":"uint256[]","indexed":false,"internalType":"uint256[]"}],"anonymous":false},{"type":"event","name":"OracleAuthorized","inputs":[{"name":"oracle","type":"address","indexed":true,"internalType":"address"}],"anonymous":false},{"type":"event","name":"OracleUnauthorized","inputs":[{"name":"oracle","type":"address","indexed":true,"internalType":"address"}],"anonymous":false},{"type":"event","name":"OwnershipTransferred","inputs":[{"name":"user","type":"address","indexed":true,"internalType":"address"},{"name":"newOwner","type":"address","indexed":true,"internalType":"address"}],"anonymous":false},{"type":"error","name":"ECDSAInvalidSignature","inputs":[]},{"type":"error","name":"ECDSAInvalidSignatureLength","inputs":[{"name":"length","type":"uint256","internalType":"uint256"}]},{"type":"error","name":"ECDSAInvalidSignatureS","inputs":[{"name":"s","type":"bytes32","internalType":"bytes32"}]},{"type":"error","name":"InvalidOracleAddress","inputs":[]},{"type":"error","name":"InvalidOracleSignature","inputs":[]},{"type":"error","name":"InvalidParameters","inputs":[]},{"type":"error","name":"InvalidPercentageValue","inputs":[]},{"type":"error","name":"RewardAlreadyDistributed","inputs":[]},{"type":"error","name":"UnauthorizedApp","inputs":[]},{"type":"error","name":"ZeroRewardAmount","inputs":[]}],"bytecode":{"object":"0x60c0346101d557601f61148638819003918201601f19168301916001600160401b038311848410176101b6578084926060946040528339810103126101d557610047816101d9565b906100606040610059602084016101d9565b92016101d9565b5f80546001600160a01b0319166001600160a01b0390941693841781556040519193919291907f8be0079c531659141344cd1fd0a4f28419497f9722a3daafe3b4186f6b6457e08180a36001600160a01b03166080526103868181016001600160401b038111838210176101b6578291611100833903905ff080156101ca5760a0526001600160a01b031680610126575b611f40600355604051610f1290816101ee82396080518181816102870152610c21015260a05181818161033001526108b30152f35b805f52600160205260405f20600160ff19825416179055600254680100000000000000008110156101b65760018101806002558110156101a25760025f9081527f405787fa12a823e0f2b7631cc41b3ba8828b3321ca811111fa75cd3aa3bb5ace9190910180546001600160a01b0319169092179091556100f1565b634e487b7160e01b5f52603260045260245ffd5b634e487b7160e01b5f52604160045260245ffd5b6040513d5f823e3d90fd5b5f80fd5b51906001600160a01b03821682036101d55756fe60806040526004361015610011575f80fd5b5f3560e01c80630f13b76314610b2d5780631b8dda1914610899578063220e89c914610afe5780636e138c8414610a6957806376bba3be146109095780638da5cb5b146108e257806396769e891461089e578063a69dbf0314610899578063ba5947511461087e578063bfe609da1461083d578063e2016a4a146107f8578063e6ce3689146107db578063f2fde38b146107675763f6b35c22146100b3575f80fd5b3461063157366003190161010081126106315760e0136106315760e43567ffffffffffffffff8111610631573660238201121561063157806004013567ffffffffffffffff8111610631573660248284010111610631576024359182156107585761011c610d15565b91610125610d2b565b9160643593608435936040519060208201926001600160601b03199060601b1683528760348301526001600160601b03199060601b16605482015285606882015284608882015260a43560a882015260c43560c882015260c8815261018b60e882610cf3565b51902091825f52600460205260ff60405f2054166107495761020e91610205917f19457468657265756d205369676e6564204d6573736167653a0a3332000000005f5284601c525f6020603c822092806024604051966101f485601f19601f8601160189610cf3565b828852018387013784010152610dac565b90929192610de6565b6001600160a01b03165f9081526001602052604090205460ff161561073a575f52600460205260405f20600160ff1982541617905561024b610d15565b6040519261018061025c8186610cf3565b600b8552601f1901366020860137819060019261027886610d41565b6001600160a01b0391821690527f000000000000000000000000000000000000000000000000000000000000000016915b600b8410610679575b5050506102be81610d7a565b925f5b828110610651575050508151600181115f14610649575f19810190811161058a57905b600a8211610640575b600354808502908582040361058a576127109004938481039381851161058a57604051632454438360e11b81526004810195909552602485018490525f856044817f00000000000000000000000000000000000000000000000000000000000000006001600160a01b03165afa948515610635575f9561059e575b50600184019384811161058a5761037e85610d7a565b956103a161038b87610d62565b966103996040519889610cf3565b808852610d62565b602087019890601f1901368a376001600160a01b036103bf85610d41565b51166103ca89610d41565b526103d487610d41565b525f5b82811061054057505050505f5b84518110156104b2576103f78185610d4e565b51610405575b6001016103e4565b6001600160a01b03610415610d2b565b1660205f60446001600160a01b0361042d868b610d4e565b5116610439868a610d4e565b516040519163a9059cbb60e01b83526004830152602482015282855af19081601f3d1160015f51141615166104a5575b506103fd5760405162461bcd60e51b815260206004820152600f60248201526e1514905394d1915497d19052531151608a1b6044820152606490fd5b3b153d171590505f610469565b509093909160206104e46001600160a01b036104cc610d15565b16956040519586526060838701526060860190610c50565b91848303604086015251918281520191905f5b81811061052a5750505090807f565bac9b966879663b6cee54f6645ca6ec41c8849b130a1a4f4188a43c847d33920390a3005b82518452602093840193909201916001016104f7565b600181019081811161058a576001916001600160a01b036105618288610d4e565b511661056d828c610d4e565b5261058361057b8386610d4e565b51918a610d4e565b52016103d7565b634e487b7160e01b5f52601160045260245ffd5b9094503d805f833e6105b08183610cf3565b8101906020818303126106315780519067ffffffffffffffff821161063157019080601f830112156106315781516105e781610d62565b926105f56040519485610cf3565b81845260208085019260051b82010192831161063157602001905b82821061062157505050935f610368565b8151815260209182019101610610565b5f80fd5b6040513d5f823e3d90fd5b600a91506102ed565b505f906102e4565b6001906001600160a01b036106668285610d4e565b51166106728288610d4e565b52016102c1565b6040516377ccfd4b60e01b81526001600160a01b03909116600482015260248101829052602081604481865afa908115610635575f916106f9575b506001600160a01b038116801580156106ef575b6106e957845f19811461058a5760016106e391019588610d4e565b526102a9565b506102b2565b50600181146106c8565b90506020813d8211610732575b8161071360209383610cf3565b8101031261063157516001600160a01b0381168103610631575f6106b4565b3d9150610706565b632f58c7cd60e01b5f5260045ffd5b634506832760e11b5f5260045ffd5b63ea1083a760e01b5f5260045ffd5b34610631576020366003190112610631576004356001600160a01b03811690819003610631575f5481906107a5336001600160a01b03831614610c8c565b6001600160601b0360a01b16175f55337f8be0079c531659141344cd1fd0a4f28419497f9722a3daafe3b4186f6b6457e05f80a3005b34610631575f366003190112610631576020600354604051908152f35b346106315760203660031901126106315760043561082060018060a01b035f54163314610c8c565b612710811161082e57600355005b63a15aaf3960e01b5f5260045ffd5b34610631576020366003190112610631576004356001600160a01b03811690819003610631575f526001602052602060ff60405f2054166040519015158152f35b34610631575f36600319011261063157602060405160018152f35b610c0c565b34610631575f366003190112610631576040517f00000000000000000000000000000000000000000000000000000000000000006001600160a01b03168152602090f35b34610631575f366003190112610631575f546040516001600160a01b039091168152602090f35b34610631576020366003190112610631576004356001600160a01b038116908190036106315761094360018060a01b035f54163314610c8c565b805f52600160205260ff60405f20541661095957005b5f818152600160205260408120805460ff191690555b6002549081811015610a62578261098582610cc7565b905460039190911b1c6001600160a01b0316146109a657600191500161096f565b5f19820191821161058a576109d86109c06109fc93610cc7565b905460039190911b1c6001600160a01b031691610cc7565b81546001600160a01b0393841660039290921b91821b9390911b1916919091179055565b6002548015610a4e575f1901610a1181610cc7565b81549060018060a01b039060031b1b191690556002555b7fdd4fdcea7474ec44ed60a0e33a8b3e1a80b4002026a6bc5b8e6e97bd883641335f80a2005b634e487b7160e01b5f52603160045260245ffd5b5050610a28565b34610631575f3660031901126106315760405180602060025491828152019060025f527f405787fa12a823e0f2b7631cc41b3ba8828b3321ca811111fa75cd3aa3bb5ace905f5b818110610adf57610adb85610ac781870382610cf3565b604051918291602083526020830190610c50565b0390f35b82546001600160a01b0316845260209093019260019283019201610ab0565b34610631576020366003190112610631576004355f526004602052602060ff60405f2054166040519015158152f35b34610631576020366003190112610631576004356001600160a01b0381169081810361063157610b6760018060a01b035f54163314610c8c565b8115610bfd57815f52600160205260ff60405f20541615610b8457005b815f52600160205260405f20600160ff198254161790556002549068010000000000000000821015610be9576109d8826001610bc39401600255610cc7565b7f5a7a3f71a35f5e2589980d29d1c6d8c75e39657751190874081e55208bae24b75f80a2005b634e487b7160e01b5f52604160045260245ffd5b635521068160e01b5f5260045ffd5b34610631575f366003190112610631576040517f00000000000000000000000000000000000000000000000000000000000000006001600160a01b03168152602090f35b90602080835192838152019201905f5b818110610c6d5750505090565b82516001600160a01b0316845260209384019390920191600101610c60565b15610c9357565b60405162461bcd60e51b815260206004820152600c60248201526b15539055551213d49256915160a21b6044820152606490fd5b600254811015610cdf5760025f5260205f2001905f90565b634e487b7160e01b5f52603260045260245ffd5b90601f8019910116810190811067ffffffffffffffff821117610be957604052565b6004356001600160a01b03811681036106315790565b6044356001600160a01b03811681036106315790565b805115610cdf5760200190565b8051821015610cdf5760209160051b010190565b67ffffffffffffffff8111610be95760051b60200190565b90610d8482610d62565b610d916040519182610cf3565b8281528092610da2601f1991610d62565b0190602036910137565b8151919060418303610ddc57610dd59250602082015190606060408401519301515f1a90610e5a565b9192909190565b50505f9160029190565b6004811015610e465780610df8575050565b60018103610e0f5763f645eedf60e01b5f5260045ffd5b60028103610e2a575063fce698f760e01b5f5260045260245ffd5b600314610e345750565b6335e2f38360e21b5f5260045260245ffd5b634e487b7160e01b5f52602160045260245ffd5b91907f7fffffffffffffffffffffffffffffff5d576e7357a4501ddfe92f46681b20a08411610ed1579160209360809260ff5f9560405194855216868401526040830152606082015282805260015afa15610635575f516001600160a01b03811615610ec757905f905f90565b505f906001905f90565b5050505f916003919056fea264697066735822122001e42985abeca85097fdc061c69e9230218199e686bc1c7bbfd44af1a991a6d664736f6c634300081a00336080806040523460155761036c908161001a8239f35b5f80fdfe60806040526004361015610011575f80fd5b5f3560e01c6348a8870614610024575f80fd5b3461008757604036600319011261008757610043602435600435610133565b6040518091602082016020835281518091526020604084019201905f5b81811061006e575050500390f35b8251845285945060209384019390920191600101610060565b5f80fd5b6040519190601f01601f1916820167ffffffffffffffff8111838210176100b157604052565b634e487b7160e01b5f52604160045260245ffd5b67ffffffffffffffff81116100b15760051b60200190565b8051156100ea5760200190565b634e487b7160e01b5f52603260045260245ffd5b80518210156100ea5760209160051b010190565b9190820180921161011f57565b634e487b7160e01b5f52601160045260245ffd5b919091821561031f57600a8311610316575b60405190610140820182811067ffffffffffffffff8211176100b15760405261271082526117706020830152610e1060408301526108706060830152610510608083015261030960a08301526101d260c083015261011760e083015260a7610100830152606461012083015260405193610160850185811067ffffffffffffffff8211176100b1576040525f85526127106020860152613e806040860152614c9060608601526155006080860152615a1060a0860152615d1960c0860152615eeb60e08601526160026101008601526160a961012086015261610d610140860152610237610232826100c5565b61008b565b81815292601f19610247836100c5565b013660208601378395600b8310156100ea578260051b01515f8115905b8481106102c657505050505f905f905b8082106102a5575050810390811161011f5761029c6102a291610296846100dd565b51610112565b916100dd565b52565b90916102be6001916102b785886100fe565b5190610112565b920190610274565b600a8110156100ea578060051b8401519081870291878304148715171561011f57826103025783600192046102fb828a6100fe565b5201610264565b634e487b7160e01b5f52601260045260245ffd5b600a9250610145565b50905061032c602061008b565b5f81525f3681379056fea26469706673582212201daf1f7be1cb1fceb7b583fd2eab5ba2dd586bc3880f1f6efa33184823b7123b64736f6c634300081a0033","linkReferences":{}},"methodIdentifiers":{"REFERRAL_ROOT()":"ba594751","authorizeOracle(address)":"0f13b763","distributeChainRewards((address,uint256,address,bytes32,bytes32,uint256,uint256),bytes)":"f6b35c22","getAuthorizedOracles()":"6e138c84","getOriginalUserPercentage()":"e6ce3689","getReferralGraph()":"1b8dda19","isAuthorizedOracle(address)":"bfe609da","isRewardDistributed(bytes32)":"220e89c9","owner()":"8da5cb5b","referralGraph()":"a69dbf03","rewardCalculator()":"96769e89","setOriginalUserPercentage(uint256)":"e2016a4a","transferOwnership(address)":"f2fde38b","unauthorizeOracle(address)":"76bba3be"},"id":37}