{"abi":[{"type":"constructor","inputs":[{"name":"initialOwner","type":"address","internalType":"address"},{"name":"_referralGraph","type":"address","internalType":"address"},{"name":"initialOracle","type":"address","internalType":"address"}],"stateMutability":"nonpayable"},{"type":"function","name":"NULL_REFERRER","inputs":[],"outputs":[{"name":"","type":"address","internalType":"address"}],"stateMutability":"view"},{"type":"function","name":"authorizeOracle","inputs":[{"name":"oracle","type":"address","internalType":"address"}],"outputs":[],"stateMutability":"nonpayable"},{"type":"function","name":"distributeChainRewards","inputs":[{"name":"reward","type":"tuple","internalType":"struct IRewardDistributor.ChainRewardData","components":[{"name":"user","type":"address","internalType":"address"},{"name":"totalAmount","type":"uint256","internalType":"uint256"},{"name":"rewardToken","type":"address","internalType":"address"},{"name":"groupId","type":"bytes32","internalType":"bytes32"},{"name":"eventId","type":"bytes32","internalType":"bytes32"},{"name":"timestamp","type":"uint256","internalType":"uint256"},{"name":"nonce","type":"uint256","internalType":"uint256"}]},{"name":"signature","type":"bytes","internalType":"bytes"}],"outputs":[],"stateMutability":"nonpayable"},{"type":"function","name":"getAuthorizedOracles","inputs":[],"outputs":[{"name":"","type":"address[]","internalType":"address[]"}],"stateMutability":"view"},{"type":"function","name":"getDecayConfig","inputs":[],"outputs":[{"name":"decayType","type":"uint8","internalType":"enum IRewardDistributor.DecayType"},{"name":"decayFactor","type":"uint256","internalType":"uint256"},{"name":"minReward","type":"uint256","internalType":"uint256"}],"stateMutability":"view"},{"type":"function","name":"getOriginalUserPercentage","inputs":[],"outputs":[{"name":"","type":"uint256","internalType":"uint256"}],"stateMutability":"view"},{"type":"function","name":"getReferralGraph","inputs":[],"outputs":[{"name":"","type":"address","internalType":"contract IReferralGraph"}],"stateMutability":"view"},{"type":"function","name":"isAuthorizedOracle","inputs":[{"name":"oracle","type":"address","internalType":"address"}],"outputs":[{"name":"","type":"bool","internalType":"bool"}],"stateMutability":"view"},{"type":"function","name":"isRewardDistributed","inputs":[{"name":"rewardHash","type":"bytes32","internalType":"bytes32"}],"outputs":[{"name":"","type":"bool","internalType":"bool"}],"stateMutability":"view"},{"type":"function","name":"owner","inputs":[],"outputs":[{"name":"","type":"address","internalType":"address"}],"stateMutability":"view"},{"type":"function","name":"referralGraph","inputs":[],"outputs":[{"name":"","type":"address","internalType":"contract IReferralGraph"}],"stateMutability":"view"},{"type":"function","name":"renounceOwnership","inputs":[],"outputs":[],"stateMutability":"nonpayable"},{"type":"function","name":"setDecayConfig","inputs":[{"name":"decayType","type":"uint8","internalType":"enum IRewardDistributor.DecayType"},{"name":"decayFactor","type":"uint256","internalType":"uint256"},{"name":"minReward","type":"uint256","internalType":"uint256"}],"outputs":[],"stateMutability":"nonpayable"},{"type":"function","name":"setOriginalUserPercentage","inputs":[{"name":"percentage","type":"uint256","internalType":"uint256"}],"outputs":[],"stateMutability":"nonpayable"},{"type":"function","name":"transferOwnership","inputs":[{"name":"newOwner","type":"address","internalType":"address"}],"outputs":[],"stateMutability":"nonpayable"},{"type":"function","name":"unauthorizeOracle","inputs":[{"name":"oracle","type":"address","internalType":"address"}],"outputs":[],"stateMutability":"nonpayable"},{"type":"event","name":"ChainRewardsDistributed","inputs":[{"name":"user","type":"address","indexed":true,"internalType":"address"},{"name":"totalAmount","type":"uint256","indexed":false,"internalType":"uint256"},{"name":"eventId","type":"bytes32","indexed":true,"internalType":"bytes32"},{"name":"recipients","type":"address[]","indexed":false,"internalType":"address[]"},{"name":"amounts","type":"uint256[]","indexed":false,"internalType":"uint256[]"}],"anonymous":false},{"type":"event","name":"OracleAuthorized","inputs":[{"name":"oracle","type":"address","indexed":true,"internalType":"address"}],"anonymous":false},{"type":"event","name":"OracleUnauthorized","inputs":[{"name":"oracle","type":"address","indexed":true,"internalType":"address"}],"anonymous":false},{"type":"event","name":"OwnershipTransferred","inputs":[{"name":"previousOwner","type":"address","indexed":true,"internalType":"address"},{"name":"newOwner","type":"address","indexed":true,"internalType":"address"}],"anonymous":false},{"type":"error","name":"ECDSAInvalidSignature","inputs":[]},{"type":"error","name":"ECDSAInvalidSignatureLength","inputs":[{"name":"length","type":"uint256","internalType":"uint256"}]},{"type":"error","name":"ECDSAInvalidSignatureS","inputs":[{"name":"s","type":"bytes32","internalType":"bytes32"}]},{"type":"error","name":"InvalidOracleSignature","inputs":[]},{"type":"error","name":"InvalidParameters","inputs":[]},{"type":"error","name":"OwnableInvalidOwner","inputs":[{"name":"owner","type":"address","internalType":"address"}]},{"type":"error","name":"OwnableUnauthorizedAccount","inputs":[{"name":"account","type":"address","internalType":"address"}]},{"type":"error","name":"RewardAlreadyDistributed","inputs":[]},{"type":"error","name":"UnauthorizedApp","inputs":[]},{"type":"error","name":"ZeroRewardAmount","inputs":[]}],"bytecode":{"object":"0x60a0346101c557601f61183238819003918201601f19168301916001600160401b0383118484101761019e578084926060946040528339810103126101c557610047816101c9565b61005f6040610058602085016101c9565b93016101c9565b6001600160a01b039091169182156101b2575f80546001600160a01b031981168517825560405194916001600160a01b03909116907f8be0079c531659141344cd1fd0a4f28419497f9722a3daafe3b4186f6b6457e09080a36001600160a01b03908116608052168061010e575b50600160ff196003541617600355611b58600455662386f26fc10000600555611f4060065561165490816101de823960805181818161029b0152610b100152f35b805f52600160205260405f20600160ff198254161790556002546801000000000000000081101561019e57600181018060025581101561018a5760025f9081527f405787fa12a823e0f2b7631cc41b3ba8828b3321ca811111fa75cd3aa3bb5ace9190910180546001600160a01b0319169092179091556100cd565b634e487b7160e01b5f52603260045260245ffd5b634e487b7160e01b5f52604160045260245ffd5b631e4fbdf760e01b5f525f60045260245ffd5b5f80fd5b51906001600160a01b03821682036101c55756fe60806040526004361015610011575f80fd5b5f3560e01c80630b70183314610a9e5780630f13b763146109da5780631b8dda1914610710578063220e89c9146109ab57806349bcd248146109905780636e138c84146108fb578063715018a6146108a457806376bba3be1461073c5780638da5cb5b14610715578063a69dbf0314610710578063bfe609da146106cf578063e2016a4a14610696578063e6ce368914610679578063e750a0c61461062b578063f2fde38b146105a25763f6b35c22146100c9575f80fd5b3461043757366003190161010081126104375760e0136104375760e43567ffffffffffffffff8111610437573660238201121561043757806004013567ffffffffffffffff81116104375736602482840101116104375760243591821561059357610132610bd6565b61013a610bec565b9260643591608435946040519060208201926bffffffffffffffffffffffff199060601b1683528760348301526bffffffffffffffffffffffff199060601b16605482015283606882015285608882015260a43560a882015260c43560c882015260c881526101aa60e882610ba7565b51902090815f52600760205260ff60405f2054166105845761022d93610224917f19457468657265756d205369676e6564204d6573736167653a0a3332000000005f5283601c525f6020603c8220928060246040519661021385601f19601f8601160189610ba7565b828852018387013784010152611411565b9094919461144b565b6001600160a01b0383165f9081526001602052604090205460ff1615610575575f52600760205260405f20600160ff1982541617905561026b610bd6565b6040519161192061027c8185610ba7565b60c88452601f1901366020850137604051635ca1e16560e01b81525f927f00000000000000000000000000000000000000000000000000000000000000006001600160a01b03169290602083600481875afa928315610443575f93610554575b505b6001600160a01b0316938415158061054a575b1561054057808561030561030b9389610c0f565b52610cb2565b93604051906377ccfd4b60e01b82526004820152816024820152602081604481875afa908115610443575f91610512575b506001600160a01b0383811690821681149081610506575b50156102de57505050505b61036881610c61565b915f5b8281106104de57505050906103809184610cc0565b906001600160a01b03610391610bec565b16925f5b825181101561044e576103a88185610c0f565b516103b6575b600101610395565b6001600160a01b036103c88285610c0f565b51166103d48286610c0f565b516040519163a9059cbb60e01b8352600483015260248201526020816044815f8a5af1801561044357610408575b506103ae565b6020813d821161043b575b8161042060209383610ba7565b81010312610437575180151503610437575f610402565b5f80fd5b3d9150610413565b6040513d5f823e3d90fd5b5091849061047e6001600160a01b03610465610bd6565b1693604051938452606060208501526060840190610b3f565b8281036040840152602080835192838152019201905f5b8181106104c85750505090807f565bac9b966879663b6cee54f6645ca6ec41c8849b130a1a4f4188a43c847d33920390a3005b8251845260209384019390920191600101610495565b6001906001600160a01b036104f38285610c0f565b51166104ff8287610c0f565b520161036b565b6001915014155f610354565b610533915060203d8111610539575b61052b8183610ba7565b810190610c93565b5f61033c565b503d610521565b935050505061035f565b50855181106102f1565b61056e91935060203d6020116105395761052b8183610ba7565b915f6102dc565b632f58c7cd60e01b5f5260045ffd5b634506832760e11b5f5260045ffd5b63ea1083a760e01b5f5260045ffd5b34610437576020366003190112610437576004356001600160a01b03811690819003610437576105d0610c23565b8015610618575f80546001600160a01b03198116831782556001600160a01b0316907f8be0079c531659141344cd1fd0a4f28419497f9722a3daafe3b4186f6b6457e09080a3005b631e4fbdf760e01b5f525f60045260245ffd5b34610437575f3660031901126104375760ff6003541660045460055460405191600384101561066557606093835260208301526040820152f35b634e487b7160e01b5f52602160045260245ffd5b34610437575f366003190112610437576020600654604051908152f35b34610437576020366003190112610437576004356106b2610c23565b61271081116106c057600655005b630e52390960e41b5f5260045ffd5b34610437576020366003190112610437576004356001600160a01b03811690819003610437575f526001602052602060ff60405f2054166040519015158152f35b610afb565b34610437575f366003190112610437575f546040516001600160a01b039091168152602090f35b34610437576020366003190112610437576004356001600160a01b038116908190036104375761076a610c23565b805f52600160205260ff60405f20541661078057005b5f818152600160205260408120805460ff191690555b600254908181101561089d57826107ac82610b7b565b905460039190911b1c6001600160a01b0316146107cd576001915001610796565b5f198201918211610889576107ff6107e761082393610b7b565b905460039190911b1c6001600160a01b031691610b7b565b81546001600160a01b0393841660039290921b91821b9390911b1916919091179055565b6002548015610875575f190161083881610b7b565b81549060018060a01b039060031b1b191690556002555b7fdd4fdcea7474ec44ed60a0e33a8b3e1a80b4002026a6bc5b8e6e97bd883641335f80a2005b634e487b7160e01b5f52603160045260245ffd5b634e487b7160e01b5f52601160045260245ffd5b505061084f565b34610437575f366003190112610437576108bc610c23565b5f80546001600160a01b0319811682556001600160a01b03167f8be0079c531659141344cd1fd0a4f28419497f9722a3daafe3b4186f6b6457e08280a3005b34610437575f3660031901126104375760405180602060025491828152019060025f527f405787fa12a823e0f2b7631cc41b3ba8828b3321ca811111fa75cd3aa3bb5ace905f5b8181106109715761096d8561095981870382610ba7565b604051918291602083526020830190610b3f565b0390f35b82546001600160a01b0316845260209093019260019283019201610942565b34610437575f36600319011261043757602060405160018152f35b34610437576020366003190112610437576004355f526007602052602060ff60405f2054166040519015158152f35b34610437576020366003190112610437576004356001600160a01b0381169081810361043757610a08610c23565b81156106c057815f52600160205260ff60405f20541615610a2557005b815f52600160205260405f20600160ff198254161790556002549068010000000000000000821015610a8a576107ff826001610a649401600255610b7b565b7f5a7a3f71a35f5e2589980d29d1c6d8c75e39657751190874081e55208bae24b75f80a2005b634e487b7160e01b5f52604160045260245ffd5b346104375760603660031901126104375760043560038110156104375760243560443591610aca610c23565b61271082116106c05768056bc75e2d6310000083116106c05760ff8019600354169116176003556004556005555f80f35b34610437575f366003190112610437576040517f00000000000000000000000000000000000000000000000000000000000000006001600160a01b03168152602090f35b90602080835192838152019201905f5b818110610b5c5750505090565b82516001600160a01b0316845260209384019390920191600101610b4f565b600254811015610b935760025f5260205f2001905f90565b634e487b7160e01b5f52603260045260245ffd5b90601f8019910116810190811067ffffffffffffffff821117610a8a57604052565b9190820391821161088957565b6004356001600160a01b03811681036104375790565b6044356001600160a01b03811681036104375790565b805115610b935760200190565b8051821015610b935760209160051b010190565b5f546001600160a01b03163303610c3657565b63118cdaa760e01b5f523360045260245ffd5b67ffffffffffffffff8111610a8a5760051b60200190565b90610c6b82610c49565b610c786040519182610ba7565b8281528092610c89601f1991610c49565b0190602036910137565b9081602091031261043757516001600160a01b03811681036104375790565b5f1981146108895760010190565b929192610ccc826114ab565b5f1981146111f4576001810180821161088957610ce890610c61565b925f5b828111156111cd575050610d0f612710610d07600654856114e5565b048093610bc9565b835190935f19820191808311610889576001019485831161088957610d3f610d3987949394610c61565b96610c61565b946001600160a01b03610d5185610c02565b5116610d5c88610c02565b52610d6686610c02565b52906001925f9160055460ff6003541660038110159080155b8487106110c2575b50505050505050806110a1575b50610d9e81610c61565b92610da882610c61565b945f5b8381106110635750505050610dc08184610c0f565b51600554909590861061103357505f935f5b8351811015610e47578281141580610e2b575b80610e18575b610df8575b600101610dd2565b94610e10600191610e098888610c0f565b51906114f8565b959050610df0565b50610e238186610c0f565b511515610deb565b506001600160a01b03610e3e8286610c0f565b51161515610de5565b50939091948115908115610f6e575b505050610e645f9183610c0f565b525b5f925f5b8151811015610ec3576001600160a01b03610e858284610c0f565b5116151580610eb0575b610e9c575b600101610e6a565b93610ea8600191610cb2565b949050610e94565b50610ebb8184610c0f565b511515610e8f565b5090610ed7610ed185610c61565b94610c61565b935f925f5b8151811015610f65576001600160a01b03610ef78284610c0f565b5116151580610f52575b610f0e575b600101610edc565b93600190610f4a906001600160a01b03610f288886610c0f565b5116610f348287610c0f565b52610f3f8787610c0f565b51610305828b610c0f565b949050610f06565b50610f5d8185610c0f565b511515610f01565b50509150509190565b919590925f5b8251811015611021578181141580611005575b80610ff2575b610f9a575b600101610f74565b610fae610fa78288610c0f565b51856114e5565b9085610fde57610fcc8960019304610fc6838a610c0f565b516114f8565b610fd68289610c0f565b529050610f92565b634e487b7160e01b5f52601260045260245ffd5b50610ffd8187610c0f565b511515610f8d565b506001600160a01b036110188285610c0f565b51161515610f87565b509095509150610e6490505f80610e56565b90859295611044575b505050610e66565b61105461105a925f948689611505565b83610c0f565b525f808061103c565b6001906001600160a01b036110788285610c0f565b51166110848289610c0f565b5261108f8185610c0f565b5161109a828a610c0f565b5201610dab565b906110bc915f6110b18388610c0f565b526103058286610c0f565b5f610d94565b90919293949597968481106111c6575f8461066557821561117b57506127106110ed600454836114e5565b04905b858210611173575b81151580611169575b156111615760018a01808b116108895782611154928f948f8d611148916001988f836111429161113a61114e9b8e8060a01b0392610c0f565b511692610c0f565b52610c0f565b52610bc9565b98610cb2565b9801959493929190610d7f565b979850610d87565b5080821115611101565b8591506110f8565b5f94506001840361119d5750612710611196600454836114e5565b04906110f0565b5f94509060011984016110f05790506004548181105f146111bf575b906110f0565b50806111b9565b9697610d87565b6111ef906001600160a01b036111e38285610c0f565b51166103058288610c0f565b610ceb565b509092611209612710610d07600654856114e5565b845190945f1982019180831161088957600101958683116108895761123961123388949394610c61565b97610c61565b946001600160a01b0361124b85610c02565b511661125689610c02565b5261126086610c02565b52906001925f9160055460ff6003541660038110159080155b848710611320575b50505050505050806112f4575b50905061129a81610c61565b916112a482610c61565b945f5b8381106112b657505050509190565b6001906001600160a01b036112cb8285610c0f565b51166112d78288610c0f565b526112e28185610c0f565b516112ed828a610c0f565b52016112a7565b611319926113028388610c0f565b6001600160a01b0390911690526103058285610c0f565b805f61128e565b909192939495979684811061140a575f846106655782156113bf575061271061134b600454836114e5565b04905b8582106113b7575b811515806113ad575b156113a55760018a01808b1161088957828f926001948f8d61114891611398978f836111429161113a61114e9b8e8060a01b0392610c0f565b9801959493929190611279565b979850611281565b508082111561135f565b859150611356565b5f9450600184036113e157506127106113da600454836114e5565b049061134e565b5f945090600119840161134e5790506004548181105f14611403575b9061134e565b50806113fd565b9697611281565b81519190604183036114415761143a9250602082015190606060408401519301515f1a9061159c565b9192909190565b50505f9160029190565b6004811015610665578061145d575050565b600181036114745763f645eedf60e01b5f5260045ffd5b6002810361148f575063fce698f760e01b5f5260045260245ffd5b6003146114995750565b6335e2f38360e21b5f5260045260245ffd5b5f5b81518110156114de5760016001600160a01b036114ca8385610c0f565b5116146114d9576001016114ad565b905090565b50505f1990565b8181029291811591840414171561088957565b9190820180921161088957565b925f5b8451811015611557576001600160a01b036115238287610c0f565b51161561153257600101611508565b9190611542836115549596610c0f565b6001600160a01b039091169052610c0f565b52565b60405162461bcd60e51b815260206004820152601b60248201527f4e6f20737061636520666f72206475737420726563697069656e7400000000006044820152606490fd5b91907f7fffffffffffffffffffffffffffffff5d576e7357a4501ddfe92f46681b20a08411611613579160209360809260ff5f9560405194855216868401526040830152606082015282805260015afa15610443575f516001600160a01b0381161561160957905f905f90565b505f906001905f90565b5050505f916003919056fea264697066735822122088496a72fdbb11b22eceb0ff7b8debd4c77d561bc68b590dade26e46dcf3bd5064736f6c634300081a0033","linkReferences":{}},"methodIdentifiers":{"NULL_REFERRER()":"49bcd248","authorizeOracle(address)":"0f13b763","distributeChainRewards((address,uint256,address,bytes32,bytes32,uint256,uint256),bytes)":"f6b35c22","getAuthorizedOracles()":"6e138c84","getDecayConfig()":"e750a0c6","getOriginalUserPercentage()":"e6ce3689","getReferralGraph()":"1b8dda19","isAuthorizedOracle(address)":"bfe609da","isRewardDistributed(bytes32)":"220e89c9","owner()":"8da5cb5b","referralGraph()":"a69dbf03","renounceOwnership()":"715018a6","setDecayConfig(uint8,uint256,uint256)":"0b701833","setOriginalUserPercentage(uint256)":"e2016a4a","transferOwnership(address)":"f2fde38b","unauthorizeOracle(address)":"76bba3be"},"id":33}