{"abi":[{"type":"constructor","inputs":[{"name":"initialOwner","type":"address","internalType":"address"},{"name":"_referralGraph","type":"address","internalType":"address"},{"name":"initialOracle","type":"address","internalType":"address"}],"stateMutability":"nonpayable"},{"type":"function","name":"authorizeOracle","inputs":[{"name":"oracle","type":"address","internalType":"address"}],"outputs":[],"stateMutability":"nonpayable"},{"type":"function","name":"distributeChainRewards","inputs":[{"name":"reward","type":"tuple","internalType":"struct IRewardDistributor.ChainRewardData","components":[{"name":"user","type":"address","internalType":"address"},{"name":"totalAmount","type":"uint256","internalType":"uint256"},{"name":"rewardToken","type":"address","internalType":"address"},{"name":"groupId","type":"bytes32","internalType":"bytes32"},{"name":"eventId","type":"bytes32","internalType":"bytes32"},{"name":"timestamp","type":"uint256","internalType":"uint256"},{"name":"nonce","type":"uint256","internalType":"uint256"}]},{"name":"signature","type":"bytes","internalType":"bytes"}],"outputs":[],"stateMutability":"nonpayable"},{"type":"function","name":"getAuthorizedOracles","inputs":[],"outputs":[{"name":"","type":"address[]","internalType":"address[]"}],"stateMutability":"view"},{"type":"function","name":"getDecayConfig","inputs":[],"outputs":[{"name":"decayType","type":"uint8","internalType":"enum IRewardDistributor.DecayType"},{"name":"decayFactor","type":"uint256","internalType":"uint256"},{"name":"minReward","type":"uint256","internalType":"uint256"}],"stateMutability":"view"},{"type":"function","name":"getOriginalUserPercentage","inputs":[],"outputs":[{"name":"","type":"uint256","internalType":"uint256"}],"stateMutability":"view"},{"type":"function","name":"getReferralGraph","inputs":[],"outputs":[{"name":"","type":"address","internalType":"contract IReferralGraph"}],"stateMutability":"view"},{"type":"function","name":"isAuthorizedOracle","inputs":[{"name":"oracle","type":"address","internalType":"address"}],"outputs":[{"name":"","type":"bool","internalType":"bool"}],"stateMutability":"view"},{"type":"function","name":"isRewardDistributed","inputs":[{"name":"rewardHash","type":"bytes32","internalType":"bytes32"}],"outputs":[{"name":"","type":"bool","internalType":"bool"}],"stateMutability":"view"},{"type":"function","name":"owner","inputs":[],"outputs":[{"name":"","type":"address","internalType":"address"}],"stateMutability":"view"},{"type":"function","name":"referralGraph","inputs":[],"outputs":[{"name":"","type":"address","internalType":"contract IReferralGraph"}],"stateMutability":"view"},{"type":"function","name":"renounceOwnership","inputs":[],"outputs":[],"stateMutability":"nonpayable"},{"type":"function","name":"setDecayConfig","inputs":[{"name":"decayType","type":"uint8","internalType":"enum IRewardDistributor.DecayType"},{"name":"decayFactor","type":"uint256","internalType":"uint256"},{"name":"minReward","type":"uint256","internalType":"uint256"}],"outputs":[],"stateMutability":"nonpayable"},{"type":"function","name":"setOriginalUserPercentage","inputs":[{"name":"percentage","type":"uint256","internalType":"uint256"}],"outputs":[],"stateMutability":"nonpayable"},{"type":"function","name":"transferOwnership","inputs":[{"name":"newOwner","type":"address","internalType":"address"}],"outputs":[],"stateMutability":"nonpayable"},{"type":"function","name":"unauthorizeOracle","inputs":[{"name":"oracle","type":"address","internalType":"address"}],"outputs":[],"stateMutability":"nonpayable"},{"type":"event","name":"ChainRewardsDistributed","inputs":[{"name":"user","type":"address","indexed":true,"internalType":"address"},{"name":"totalAmount","type":"uint256","indexed":false,"internalType":"uint256"},{"name":"eventId","type":"bytes32","indexed":true,"internalType":"bytes32"},{"name":"recipients","type":"address[]","indexed":false,"internalType":"address[]"},{"name":"amounts","type":"uint256[]","indexed":false,"internalType":"uint256[]"}],"anonymous":false},{"type":"event","name":"OracleAuthorized","inputs":[{"name":"oracle","type":"address","indexed":true,"internalType":"address"}],"anonymous":false},{"type":"event","name":"OracleUnauthorized","inputs":[{"name":"oracle","type":"address","indexed":true,"internalType":"address"}],"anonymous":false},{"type":"event","name":"OwnershipTransferred","inputs":[{"name":"previousOwner","type":"address","indexed":true,"internalType":"address"},{"name":"newOwner","type":"address","indexed":true,"internalType":"address"}],"anonymous":false},{"type":"error","name":"ECDSAInvalidSignature","inputs":[]},{"type":"error","name":"ECDSAInvalidSignatureLength","inputs":[{"name":"length","type":"uint256","internalType":"uint256"}]},{"type":"error","name":"ECDSAInvalidSignatureS","inputs":[{"name":"s","type":"bytes32","internalType":"bytes32"}]},{"type":"error","name":"InvalidOracleSignature","inputs":[]},{"type":"error","name":"InvalidParameters","inputs":[]},{"type":"error","name":"OwnableInvalidOwner","inputs":[{"name":"owner","type":"address","internalType":"address"}]},{"type":"error","name":"OwnableUnauthorizedAccount","inputs":[{"name":"account","type":"address","internalType":"address"}]},{"type":"error","name":"RewardAlreadyDistributed","inputs":[]},{"type":"error","name":"UnauthorizedApp","inputs":[]},{"type":"error","name":"ZeroRewardAmount","inputs":[]}],"bytecode":{"object":"0x60a0346101c557601f61122238819003918201601f19168301916001600160401b0383118484101761019e578084926060946040528339810103126101c557610047816101c9565b61005f6040610058602085016101c9565b93016101c9565b6001600160a01b039091169182156101b2575f80546001600160a01b031981168517825560405194916001600160a01b03909116907f8be0079c531659141344cd1fd0a4f28419497f9722a3daafe3b4186f6b6457e09080a36001600160a01b03908116608052168061010e575b50600160ff196003541617600355611b58600455662386f26fc10000600555611f4060065561104490816101de82396080518181816102920152610d220152f35b805f52600160205260405f20600160ff198254161790556002546801000000000000000081101561019e57600181018060025581101561018a5760025f9081527f405787fa12a823e0f2b7631cc41b3ba8828b3321ca811111fa75cd3aa3bb5ace9190910180546001600160a01b0319169092179091556100cd565b634e487b7160e01b5f52603260045260245ffd5b634e487b7160e01b5f52604160045260245ffd5b631e4fbdf760e01b5f525f60045260245ffd5b5f80fd5b51906001600160a01b03821682036101c55756fe60806040526004361015610011575f80fd5b5f3560e01c80630b70183314610cb05780630f13b76314610bec5780631b8dda1914610951578063220e89c914610bbd5780636e138c8414610b28578063715018a614610ad157806376bba3be1461097d5780638da5cb5b14610956578063a69dbf0314610951578063bfe609da14610910578063e2016a4a146108d7578063e6ce3689146108ba578063e750a0c614610880578063f2fde38b146107f75763f6b35c22146100be575f80fd5b3461051357366003190161010081126105135760e0136105135760e43567ffffffffffffffff811161051357366023820112156105135780600401359067ffffffffffffffff82116105135736602483830101116105135760243580156107e857610127610de8565b91610130610dfe565b9060643593608435926040519060208201926bffffffffffffffffffffffff199060601b1683528560348301526bffffffffffffffffffffffff199060601b16605482015285606882015283608882015260a43560a882015260c43560c882015260c881526101a060e882610db9565b51902094855f52600760205260ff60405f2054166107d9576102239161021a917f19457468657265756d205369676e6564204d6573736167653a0a3332000000005f5287601c525f6020603c8220928060246040519661020985601f19601f8601160189610db9565b828852018387013784010152610ef2565b90929192610f2c565b6001600160a01b03165f8181526001602052604090205490949060ff16156107ca575f52600760205260405f20600160ff19825416179055610263610de8565b60405190926119206102758184610db9565b60c88352601f1901366020840137604051635ca1e16560e01b81527f00000000000000000000000000000000000000000000000000000000000000006001600160a01b03169690945f9491906020876004818c5afa968715610372575f976107a9575b505b6001600160a01b03169485151580610796575b8061078c575b1561037d57808661030761030d9388610e21565b52610ec4565b94604051906377ccfd4b60e01b825260048201528760248201526020816044818c5afa908115610372575f91610344575b506102da565b610365915060203d811161036b575b61035d8183610db9565b810190610ea5565b5f61033e565b503d610353565b6040513d5f823e3d90fd5b849061038881610e73565b915f5b828110610764575050506127106103a460065486610ed2565b04906103b08286610ddb565b9181515f198101908082116106ce57600101948582116106ce576103df6103d987959395610e73565b96610e73565b946001600160a01b036103f184610e14565b51166103fc88610e14565b528361040787610e14565b5292916001945f9160055460ff6003541660038110159080155b858710610621575b50505050505050826105ed575b50505061044281610e73565b9161044c82610e73565b935f5b8381106105af57506001600160a01b03925061046d9150610dfe9050565b16925f5b825181101561051f576104848185610e21565b51610492575b600101610471565b6001600160a01b036104a48285610e21565b51166104b08286610e21565b516040519163a9059cbb60e01b8352600483015260248201526020816044815f8a5af18015610372576104e4575b5061048a565b6020813d8211610517575b816104fc60209383610db9565b8101031261051357518015150361051357866104de565b5f80fd5b3d91506104ef565b5091849061054f6001600160a01b03610536610de8565b1693604051938452606060208501526060840190610d51565b8281036040840152602080835192838152019201905f5b8181106105995750505090807f565bac9b966879663b6cee54f6645ca6ec41c8849b130a1a4f4188a43c847d33920390a3005b8251845260209384019390920191600101610566565b6001906001600160a01b036105c48285610e21565b51166105d08288610e21565b526105db8185610e21565b516105e68289610e21565b520161044f565b916106139184936106016106199689610e21565b528161060d8588610e21565b52610ee5565b50610ec4565b858080610436565b90919293949599979884811061075c575f846107485782156106fd575061271061064d60045483610ed2565b04905b8582106106f5575b811515806106eb575b156106e25760018c0190818d116106ce57828f8f946106bb93818f806001998f966106a96106af946106b5996106a18f9e6106c19f8060a01b0392610e21565b511692610e21565b52610e21565b52610ddb565b9c610ee5565b99610ec4565b9a01959493929190610421565b634e487b7160e01b5f52601160045260245ffd5b99989a50610429565b5080821115610661565b859150610658565b5f94506001840361071f575061271061071860045483610ed2565b0490610650565b5f94509060011984016106505790506004548181105f14610741575b90610650565b508061073b565b634e487b7160e01b5f52602160045260245ffd5b989799610429565b6001906001600160a01b036107798285610e21565b51166107858287610e21565b520161038b565b50845181106102f3565b506001600160a01b0387168614156102ed565b6107c391975060203d60201161036b5761035d8183610db9565b955f6102d8565b632f58c7cd60e01b5f5260045ffd5b634506832760e11b5f5260045ffd5b63ea1083a760e01b5f5260045ffd5b34610513576020366003190112610513576004356001600160a01b0381169081900361051357610825610e35565b801561086d575f80546001600160a01b03198116831782556001600160a01b0316907f8be0079c531659141344cd1fd0a4f28419497f9722a3daafe3b4186f6b6457e09080a3005b631e4fbdf760e01b5f525f60045260245ffd5b34610513575f3660031901126105135760ff6003541660045460055460405191600384101561074857606093835260208301526040820152f35b34610513575f366003190112610513576020600654604051908152f35b34610513576020366003190112610513576004356108f3610e35565b612710811161090157600655005b630e52390960e41b5f5260045ffd5b34610513576020366003190112610513576004356001600160a01b03811690819003610513575f526001602052602060ff60405f2054166040519015158152f35b610d0d565b34610513575f366003190112610513575f546040516001600160a01b039091168152602090f35b34610513576020366003190112610513576004356001600160a01b03811690819003610513576109ab610e35565b805f52600160205260ff60405f2054166109c157005b5f818152600160205260408120805460ff191690555b6002549081811015610aca57826109ed82610d8d565b905460039190911b1c6001600160a01b031614610a0e5760019150016109d7565b5f1982019182116106ce57610a40610a28610a6493610d8d565b905460039190911b1c6001600160a01b031691610d8d565b81546001600160a01b0393841660039290921b91821b9390911b1916919091179055565b6002548015610ab6575f1901610a7981610d8d565b81549060018060a01b039060031b1b191690556002555b7fdd4fdcea7474ec44ed60a0e33a8b3e1a80b4002026a6bc5b8e6e97bd883641335f80a2005b634e487b7160e01b5f52603160045260245ffd5b5050610a90565b34610513575f36600319011261051357610ae9610e35565b5f80546001600160a01b0319811682556001600160a01b03167f8be0079c531659141344cd1fd0a4f28419497f9722a3daafe3b4186f6b6457e08280a3005b34610513575f3660031901126105135760405180602060025491828152019060025f527f405787fa12a823e0f2b7631cc41b3ba8828b3321ca811111fa75cd3aa3bb5ace905f5b818110610b9e57610b9a85610b8681870382610db9565b604051918291602083526020830190610d51565b0390f35b82546001600160a01b0316845260209093019260019283019201610b6f565b34610513576020366003190112610513576004355f526007602052602060ff60405f2054166040519015158152f35b34610513576020366003190112610513576004356001600160a01b0381169081810361051357610c1a610e35565b811561090157815f52600160205260ff60405f20541615610c3757005b815f52600160205260405f20600160ff198254161790556002549068010000000000000000821015610c9c57610a40826001610c769401600255610d8d565b7f5a7a3f71a35f5e2589980d29d1c6d8c75e39657751190874081e55208bae24b75f80a2005b634e487b7160e01b5f52604160045260245ffd5b346105135760603660031901126105135760043560038110156105135760243560443591610cdc610e35565b61271082116109015768056bc75e2d6310000083116109015760ff8019600354169116176003556004556005555f80f35b34610513575f366003190112610513576040517f00000000000000000000000000000000000000000000000000000000000000006001600160a01b03168152602090f35b90602080835192838152019201905f5b818110610d6e5750505090565b82516001600160a01b0316845260209384019390920191600101610d61565b600254811015610da55760025f5260205f2001905f90565b634e487b7160e01b5f52603260045260245ffd5b90601f8019910116810190811067ffffffffffffffff821117610c9c57604052565b919082039182116106ce57565b6004356001600160a01b03811681036105135790565b6044356001600160a01b03811681036105135790565b805115610da55760200190565b8051821015610da55760209160051b010190565b5f546001600160a01b03163303610e4857565b63118cdaa760e01b5f523360045260245ffd5b67ffffffffffffffff8111610c9c5760051b60200190565b90610e7d82610e5b565b610e8a6040519182610db9565b8281528092610e9b601f1991610e5b565b0190602036910137565b9081602091031261051357516001600160a01b03811681036105135790565b5f1981146106ce5760010190565b818102929181159184041417156106ce57565b919082018092116106ce57565b8151919060418303610f2257610f1b9250602082015190606060408401519301515f1a90610f8c565b9192909190565b50505f9160029190565b60048110156107485780610f3e575050565b60018103610f555763f645eedf60e01b5f5260045ffd5b60028103610f70575063fce698f760e01b5f5260045260245ffd5b600314610f7a5750565b6335e2f38360e21b5f5260045260245ffd5b91907f7fffffffffffffffffffffffffffffff5d576e7357a4501ddfe92f46681b20a08411611003579160209360809260ff5f9560405194855216868401526040830152606082015282805260015afa15610372575f516001600160a01b03811615610ff957905f905f90565b505f906001905f90565b5050505f916003919056fea2646970667358221220c58a5fd024cfb18580ac3dc474b9b4e25ea6722ba3e365a258745b2a7dfad1dc64736f6c634300081a0033","linkReferences":{}},"methodIdentifiers":{"authorizeOracle(address)":"0f13b763","distributeChainRewards((address,uint256,address,bytes32,bytes32,uint256,uint256),bytes)":"f6b35c22","getAuthorizedOracles()":"6e138c84","getDecayConfig()":"e750a0c6","getOriginalUserPercentage()":"e6ce3689","getReferralGraph()":"1b8dda19","isAuthorizedOracle(address)":"bfe609da","isRewardDistributed(bytes32)":"220e89c9","owner()":"8da5cb5b","referralGraph()":"a69dbf03","renounceOwnership()":"715018a6","setDecayConfig(uint8,uint256,uint256)":"0b701833","setOriginalUserPercentage(uint256)":"e2016a4a","transferOwnership(address)":"f2fde38b","unauthorizeOracle(address)":"76bba3be"},"id":34}