{"abi":[{"type":"constructor","inputs":[{"name":"root","type":"address","internalType":"address"}],"stateMutability":"nonpayable"},{"type":"function","name":"addReferral","inputs":[{"name":"user","type":"address","internalType":"address"},{"name":"referrer","type":"address","internalType":"address"}],"outputs":[],"stateMutability":"nonpayable"},{"type":"function","name":"allowReferrer","inputs":[{"name":"referrer","type":"address","internalType":"address"}],"outputs":[],"stateMutability":"nonpayable"},{"type":"function","name":"authorizeOracle","inputs":[{"name":"oracle","type":"address","internalType":"address"}],"outputs":[],"stateMutability":"nonpayable"},{"type":"function","name":"batchRegister","inputs":[{"name":"users","type":"address[]","internalType":"address[]"},{"name":"referrer","type":"address","internalType":"address"},{"name":"groupId","type":"bytes32","internalType":"bytes32"}],"outputs":[],"stateMutability":"nonpayable"},{"type":"function","name":"disallowReferrer","inputs":[{"name":"referrer","type":"address","internalType":"address"}],"outputs":[],"stateMutability":"nonpayable"},{"type":"function","name":"getAncestors","inputs":[{"name":"user","type":"address","internalType":"address"},{"name":"maxLevels","type":"uint256","internalType":"uint256"}],"outputs":[{"name":"","type":"address[]","internalType":"address[]"}],"stateMutability":"view"},{"type":"function","name":"getAncestors","inputs":[{"name":"","type":"address","internalType":"address"},{"name":"","type":"bytes32","internalType":"bytes32"},{"name":"","type":"uint256","internalType":"uint256"}],"outputs":[{"name":"","type":"address[]","internalType":"address[]"}],"stateMutability":"pure"},{"type":"function","name":"getAuthorizedOracles","inputs":[],"outputs":[{"name":"","type":"address[]","internalType":"address[]"}],"stateMutability":"view"},{"type":"function","name":"getChildren","inputs":[{"name":"referrer","type":"address","internalType":"address"},{"name":"","type":"bytes32","internalType":"bytes32"}],"outputs":[{"name":"","type":"address[]","internalType":"address[]"}],"stateMutability":"view"},{"type":"function","name":"getReferralChain","inputs":[{"name":"user","type":"address","internalType":"address"}],"outputs":[{"name":"","type":"address[]","internalType":"address[]"}],"stateMutability":"view"},{"type":"function","name":"getReferralDepth","inputs":[{"name":"user","type":"address","internalType":"address"}],"outputs":[{"name":"","type":"uint256","internalType":"uint256"}],"stateMutability":"view"},{"type":"function","name":"getReferrer","inputs":[{"name":"user","type":"address","internalType":"address"},{"name":"","type":"bytes32","internalType":"bytes32"}],"outputs":[{"name":"","type":"address","internalType":"address"}],"stateMutability":"view"},{"type":"function","name":"getReferrers","inputs":[{"name":"user","type":"address","internalType":"address"}],"outputs":[{"name":"","type":"address[]","internalType":"address[]"}],"stateMutability":"view"},{"type":"function","name":"getRoot","inputs":[],"outputs":[{"name":"","type":"address","internalType":"address"}],"stateMutability":"view"},{"type":"function","name":"isAllowedReferrer","inputs":[{"name":"referrer","type":"address","internalType":"address"}],"outputs":[{"name":"","type":"bool","internalType":"bool"}],"stateMutability":"view"},{"type":"function","name":"isAllowlistEnabled","inputs":[],"outputs":[{"name":"","type":"bool","internalType":"bool"}],"stateMutability":"view"},{"type":"function","name":"isAuthorizedOracle","inputs":[{"name":"","type":"address","internalType":"address"}],"outputs":[{"name":"","type":"bool","internalType":"bool"}],"stateMutability":"pure"},{"type":"function","name":"isRegistered","inputs":[{"name":"user","type":"address","internalType":"address"},{"name":"","type":"bytes32","internalType":"bytes32"}],"outputs":[{"name":"","type":"bool","internalType":"bool"}],"stateMutability":"view"},{"type":"function","name":"isValidReferral","inputs":[{"name":"user","type":"address","internalType":"address"},{"name":"referrer","type":"address","internalType":"address"}],"outputs":[{"name":"","type":"bool","internalType":"bool"}],"stateMutability":"view"},{"type":"function","name":"register","inputs":[{"name":"user","type":"address","internalType":"address"},{"name":"referrer","type":"address","internalType":"address"},{"name":"","type":"bytes32","internalType":"bytes32"}],"outputs":[],"stateMutability":"nonpayable"},{"type":"function","name":"setAllowlistEnabled","inputs":[{"name":"enabled","type":"bool","internalType":"bool"}],"outputs":[],"stateMutability":"nonpayable"},{"type":"function","name":"setReferrer","inputs":[{"name":"user","type":"address","internalType":"address"},{"name":"referrer","type":"address","internalType":"address"}],"outputs":[],"stateMutability":"nonpayable"},{"type":"function","name":"unauthorizeOracle","inputs":[{"name":"oracle","type":"address","internalType":"address"}],"outputs":[],"stateMutability":"nonpayable"},{"type":"event","name":"OracleAuthorized","inputs":[{"name":"oracle","type":"address","indexed":true,"internalType":"address"}],"anonymous":false},{"type":"event","name":"OracleUnauthorized","inputs":[{"name":"oracle","type":"address","indexed":true,"internalType":"address"}],"anonymous":false},{"type":"event","name":"ReferrerAllowed","inputs":[{"name":"referrer","type":"address","indexed":true,"internalType":"address"}],"anonymous":false},{"type":"event","name":"ReferrerDisallowed","inputs":[{"name":"referrer","type":"address","indexed":true,"internalType":"address"}],"anonymous":false},{"type":"event","name":"UserRegistered","inputs":[{"name":"user","type":"address","indexed":true,"internalType":"address"},{"name":"referrer","type":"address","indexed":true,"internalType":"address"}],"anonymous":false},{"type":"error","name":"AlreadyRegistered","inputs":[]},{"type":"error","name":"CycleDetected","inputs":[]},{"type":"error","name":"InvalidReferrer","inputs":[]},{"type":"error","name":"ReferrerNotAllowed","inputs":[]},{"type":"error","name":"UnauthorizedOracle","inputs":[]}],"bytecode":{"object":"0x6080604052348015600e575f80fd5b50604051610eee380380610eee833981016040819052602b916089565b600380546001600160a01b0390921661010002610100600160a81b03199092169190911790555f805260046020527f17ef568e3e12ab5b9c7254a8d58478811de00f9e6eb34345acd53bf8fd09d3ec805460ff1916600117905560b4565b5f602082840312156098575f80fd5b81516001600160a01b038116811460ad575f80fd5b9392505050565b610e2d806100c15f395ff3fe608060405234801561000f575f80fd5b5060043610610148575f3560e01c806376bba3be116100bf578063bfe609da11610079578063bfe609da14610396578063d146fd1b146103aa578063d65ad694146103b5578063d7644ba2146103e3578063df65845a14610404578063e96dc26a14610417575f80fd5b806376bba3be146102d957806377ccfd4b146102ec578063829d15351461031857806393cec3e214610339578063bbddaca314610175578063bcd5addb14610368575f80fd5b8063622be01c11610110578063622be01c146102205780636667864d1461023457806366695b1e1461024757806369b15fce1461025a5780636dfce94c146102965780636e138c84146102d1575f80fd5b80630a9b7ed51461014c5780630b5c3f87146101755780630f13b763146101b25780631736c59e146101c55780635ca1e165146101f6575b5f80fd5b61015f61015a366004610ba8565b61043a565b60405161016c9190610bd0565b60405180910390f35b6101b0610183366004610c1b565b6001600160a01b039182165f90815260208190526040902080546001600160a01b03191691909216179055565b005b6101b06101c0366004610c4c565b6105bf565b6101b06101d3366004610c4c565b6001600160a01b03165f908152600260205260409020805460ff19166001179055565b60035461010090046001600160a01b03165b6040516001600160a01b03909116815260200161016c565b6101b061022e366004610c6c565b50505050565b61015f610242366004610c4c565b61066a565b61015f610255366004610ba8565b6107b3565b6101b0610268366004610cf3565b506001600160a01b039182165f90815260208190526040902080546001600160a01b03191691909216179055565b6102c16102a4366004610c4c565b6001600160a01b03165f9081526002602052604090205460ff1690565b604051901515815260200161016c565b61015f610827565b6101b06102e7366004610c4c565b610887565b6102086102fa366004610ba8565b506001600160a01b039081165f908152602081905260409020541690565b61032b610326366004610c4c565b6109f2565b60405190815260200161016c565b6102c1610347366004610c1b565b6001600160a01b039182165f90815260208190526040902054821691161490565b6101b0610376366004610c4c565b6001600160a01b03165f908152600260205260409020805460ff19169055565b6102c16103a4366004610c4c565b50600190565b60035460ff166102c1565b6102c16103c3366004610ba8565b506001600160a01b039081165f9081526020819052604090205416151590565b6101b06103f1366004610d2d565b6003805460ff1916911515919091179055565b61015f610412366004610c4c565b610a4d565b61015f610425366004610d4c565b5050604080515f815260208101909152919050565b60605f8267ffffffffffffffff81111561045657610456610d7c565b60405190808252806020026020018201604052801561047f578160200160208202803683370190505b506001600160a01b038086165f9081526020819052604081205492935091165b6001600160a01b038116158015906104b657508482105b1561051657808383815181106104ce576104ce610d90565b6001600160a01b0390921660209283029190910190910152816104f081610db8565b6001600160a01b039283165f90815260208190526040902054909350909116905061049f565b5f8267ffffffffffffffff81111561053057610530610d7c565b604051908082528060200260200182016040528015610559578160200160208202803683370190505b5090505f5b838110156105b25784818151811061057857610578610d90565b602002602001015182828151811061059257610592610d90565b6001600160a01b039092166020928302919091019091015260010161055e565b5093505050505b92915050565b6001600160a01b0381165f9081526004602052604090205460ff16610667576001600160a01b0381165f81815260046020526040808220805460ff1916600190811790915560058054918201815583527f036b6384b5eca791c62761152d0c79bb0604c104a5fb6f4eb0703f3154bb3db00180546001600160a01b03191684179055517f5a7a3f71a35f5e2589980d29d1c6d8c75e39657751190874081e55208bae24b79190a25b50565b60408051600a80825261016082019092526060915f919060208201610140803683370190505090505f835b6001600160a01b038116158015906106ad5750600a82105b1561070d57808383815181106106c5576106c5610d90565b6001600160a01b0390921660209283029190910190910152816106e781610db8565b6001600160a01b039283165f908152602081905260409020549093509091169050610695565b5f8267ffffffffffffffff81111561072757610727610d7c565b604051908082528060200260200182016040528015610750578160200160208202803683370190505b5090505f5b838110156107a95784818151811061076f5761076f610d90565b602002602001015182828151811061078957610789610d90565b6001600160a01b0390921660209283029190910190910152600101610755565b5095945050505050565b6001600160a01b0382165f9081526001602090815260409182902080548351818402810184019094528084526060939283018282801561081a57602002820191905f5260205f20905b81546001600160a01b031681526001909101906020018083116107fc575b5050505050905092915050565b6060600580548060200260200160405190810160405280929190818152602001828054801561087d57602002820191905f5260205f20905b81546001600160a01b0316815260019091019060200180831161085f575b5050505050905090565b6001600160a01b0381165f9081526004602052604090205460ff1615610667576001600160a01b0381165f908152600460205260408120805460ff191690555b6005548110156109bb57816001600160a01b0316600582815481106108ee576108ee610d90565b5f918252602090912001546001600160a01b0316036109b3576005805461091790600190610dd0565b8154811061092757610927610d90565b5f91825260209091200154600580546001600160a01b03909216918390811061095257610952610d90565b905f5260205f20015f6101000a8154816001600160a01b0302191690836001600160a01b03160217905550600580548061098e5761098e610de3565b5f8281526020902081015f1990810180546001600160a01b03191690550190556109bb565b6001016108c7565b506040516001600160a01b038216907fdd4fdcea7474ec44ed60a0e33a8b3e1a80b4002026a6bc5b8e6e97bd88364133905f90a250565b5f80825b6001600160a01b03811615801590610a0e5750600a82105b15610a46576001600160a01b039081165f90815260208190526040902054168015610a415781610a3d81610db8565b9250505b6109f6565b5092915050565b60408051600580825260c082019092526060915f91906020820160a0803683370190505090505f835b6001600160a01b03811615801590610a8e5750600582105b15610af1576001600160a01b039081165f90815260208190526040902054168015610aec5780838381518110610ac657610ac6610d90565b6001600160a01b039092166020928302919091019091015281610ae881610db8565b9250505b610a76565b5f8267ffffffffffffffff811115610b0b57610b0b610d7c565b604051908082528060200260200182016040528015610b34578160200160208202803683370190505b5090505f5b838110156107a957848181518110610b5357610b53610d90565b6020026020010151828281518110610b6d57610b6d610d90565b6001600160a01b0390921660209283029190910190910152600101610b39565b80356001600160a01b0381168114610ba3575f80fd5b919050565b5f8060408385031215610bb9575f80fd5b610bc283610b8d565b946020939093013593505050565b602080825282518282018190525f918401906040840190835b81811015610c105783516001600160a01b0316835260209384019390920191600101610be9565b509095945050505050565b5f8060408385031215610c2c575f80fd5b610c3583610b8d565b9150610c4360208401610b8d565b90509250929050565b5f60208284031215610c5c575f80fd5b610c6582610b8d565b9392505050565b5f805f8060608587031215610c7f575f80fd5b843567ffffffffffffffff811115610c95575f80fd5b8501601f81018713610ca5575f80fd5b803567ffffffffffffffff811115610cbb575f80fd5b8760208260051b8401011115610ccf575f80fd5b602091820195509350610ce3908601610b8d565b9396929550929360400135925050565b5f805f60608486031215610d05575f80fd5b610d0e84610b8d565b9250610d1c60208501610b8d565b929592945050506040919091013590565b5f60208284031215610d3d575f80fd5b81358015158114610c65575f80fd5b5f805f60608486031215610d5e575f80fd5b610d6784610b8d565b95602085013595506040909401359392505050565b634e487b7160e01b5f52604160045260245ffd5b634e487b7160e01b5f52603260045260245ffd5b634e487b7160e01b5f52601160045260245ffd5b5f60018201610dc957610dc9610da4565b5060010190565b818103818111156105b9576105b9610da4565b634e487b7160e01b5f52603160045260245ffdfea26469706673582212206a8980497a33b4c10639607a92accabbdb87faec0fa64361fb52d8469a9f5c9f64736f6c634300081a0033","linkReferences":{}},"methodIdentifiers":{"addReferral(address,address)":"0b5c3f87","allowReferrer(address)":"1736c59e","authorizeOracle(address)":"0f13b763","batchRegister(address[],address,bytes32)":"622be01c","disallowReferrer(address)":"bcd5addb","getAncestors(address,bytes32,uint256)":"e96dc26a","getAncestors(address,uint256)":"0a9b7ed5","getAuthorizedOracles()":"6e138c84","getChildren(address,bytes32)":"66695b1e","getReferralChain(address)":"6667864d","getReferralDepth(address)":"829d1535","getReferrer(address,bytes32)":"77ccfd4b","getReferrers(address)":"df65845a","getRoot()":"5ca1e165","isAllowedReferrer(address)":"6dfce94c","isAllowlistEnabled()":"d146fd1b","isAuthorizedOracle(address)":"bfe609da","isRegistered(address,bytes32)":"d65ad694","isValidReferral(address,address)":"93cec3e2","register(address,address,bytes32)":"69b15fce","setAllowlistEnabled(bool)":"d7644ba2","setReferrer(address,address)":"bbddaca3","unauthorizeOracle(address)":"76bba3be"},"id":38}