{"abi":[{"type":"constructor","inputs":[{"name":"root","type":"address","internalType":"address"}],"stateMutability":"nonpayable"},{"type":"function","name":"NULL_REFERRER","inputs":[],"outputs":[{"name":"","type":"address","internalType":"address"}],"stateMutability":"view"},{"type":"function","name":"addReferral","inputs":[{"name":"user","type":"address","internalType":"address"},{"name":"referrer","type":"address","internalType":"address"}],"outputs":[],"stateMutability":"nonpayable"},{"type":"function","name":"authorizeOracle","inputs":[{"name":"oracle","type":"address","internalType":"address"}],"outputs":[],"stateMutability":"nonpayable"},{"type":"function","name":"batchRegister","inputs":[{"name":"users","type":"address[]","internalType":"address[]"},{"name":"referrer","type":"address","internalType":"address"},{"name":"groupId","type":"bytes32","internalType":"bytes32"}],"outputs":[],"stateMutability":"nonpayable"},{"type":"function","name":"getAncestors","inputs":[{"name":"user","type":"address","internalType":"address"},{"name":"maxLevels","type":"uint256","internalType":"uint256"}],"outputs":[{"name":"","type":"address[]","internalType":"address[]"}],"stateMutability":"view"},{"type":"function","name":"getAncestors","inputs":[{"name":"","type":"address","internalType":"address"},{"name":"","type":"bytes32","internalType":"bytes32"},{"name":"","type":"uint256","internalType":"uint256"}],"outputs":[{"name":"","type":"address[]","internalType":"address[]"}],"stateMutability":"pure"},{"type":"function","name":"getAuthorizedOracles","inputs":[],"outputs":[{"name":"","type":"address[]","internalType":"address[]"}],"stateMutability":"view"},{"type":"function","name":"getChildren","inputs":[{"name":"referrer","type":"address","internalType":"address"},{"name":"","type":"bytes32","internalType":"bytes32"}],"outputs":[{"name":"","type":"address[]","internalType":"address[]"}],"stateMutability":"view"},{"type":"function","name":"getReferralChain","inputs":[{"name":"user","type":"address","internalType":"address"}],"outputs":[{"name":"","type":"address[]","internalType":"address[]"}],"stateMutability":"view"},{"type":"function","name":"getReferralDepth","inputs":[{"name":"user","type":"address","internalType":"address"}],"outputs":[{"name":"","type":"uint256","internalType":"uint256"}],"stateMutability":"view"},{"type":"function","name":"getReferrer","inputs":[{"name":"user","type":"address","internalType":"address"},{"name":"","type":"bytes32","internalType":"bytes32"}],"outputs":[{"name":"","type":"address","internalType":"address"}],"stateMutability":"view"},{"type":"function","name":"getReferrers","inputs":[{"name":"user","type":"address","internalType":"address"}],"outputs":[{"name":"","type":"address[]","internalType":"address[]"}],"stateMutability":"view"},{"type":"function","name":"getRoot","inputs":[],"outputs":[{"name":"","type":"address","internalType":"address"}],"stateMutability":"view"},{"type":"function","name":"isAuthorizedOracle","inputs":[{"name":"","type":"address","internalType":"address"}],"outputs":[{"name":"","type":"bool","internalType":"bool"}],"stateMutability":"pure"},{"type":"function","name":"isRegistered","inputs":[{"name":"user","type":"address","internalType":"address"},{"name":"","type":"bytes32","internalType":"bytes32"}],"outputs":[{"name":"","type":"bool","internalType":"bool"}],"stateMutability":"view"},{"type":"function","name":"isValidReferral","inputs":[{"name":"user","type":"address","internalType":"address"},{"name":"referrer","type":"address","internalType":"address"}],"outputs":[{"name":"","type":"bool","internalType":"bool"}],"stateMutability":"view"},{"type":"function","name":"register","inputs":[{"name":"user","type":"address","internalType":"address"},{"name":"referrer","type":"address","internalType":"address"},{"name":"","type":"bytes32","internalType":"bytes32"}],"outputs":[],"stateMutability":"nonpayable"},{"type":"function","name":"setReferrer","inputs":[{"name":"user","type":"address","internalType":"address"},{"name":"referrer","type":"address","internalType":"address"}],"outputs":[],"stateMutability":"nonpayable"},{"type":"function","name":"unauthorizeOracle","inputs":[{"name":"oracle","type":"address","internalType":"address"}],"outputs":[],"stateMutability":"nonpayable"},{"type":"event","name":"OracleAuthorized","inputs":[{"name":"oracle","type":"address","indexed":true,"internalType":"address"}],"anonymous":false},{"type":"event","name":"OracleUnauthorized","inputs":[{"name":"oracle","type":"address","indexed":true,"internalType":"address"}],"anonymous":false},{"type":"event","name":"UserRegistered","inputs":[{"name":"user","type":"address","indexed":true,"internalType":"address"},{"name":"referrer","type":"address","indexed":true,"internalType":"address"}],"anonymous":false},{"type":"error","name":"AlreadyRegistered","inputs":[]},{"type":"error","name":"CycleDetected","inputs":[]},{"type":"error","name":"InvalidReferrer","inputs":[]},{"type":"error","name":"UnauthorizedOracle","inputs":[]}],"bytecode":{"object":"0x60803460a457601f610b6338819003918201601f19168301916001600160401b0383118484101760a85780849260209460405283398101031260a457516001600160a01b0381169081900360a457600280546001600160a01b0319169190911790555f805260036020527f3617319a054d772f909f7c479a2cebe5066e836a939412e32403c99029b92eff805460ff19166001179055604051610aa690816100bd8239f35b5f80fd5b634e487b7160e01b5f52604160045260245ffdfe60806040526004361015610011575f80fd5b5f3560e01c80630a9b7ed5146108535780630b5c3f87146102895780630f13b763146107b057806349bcd248146107955780635ca1e1651461076d578063622be01c146107135780636667864d1461063f57806366695b1e146105c457806369b15fce146105715780636e138c84146104e857806376bba3be1461038c57806377ccfd4b1461034d578063829d1535146102d857806393cec3e21461028e578063bbddaca314610289578063bfe609da14610264578063d65ad69414610223578063df65845a146101485763e96dc26a146100ea575f80fd5b346101445760603660031901126101445761010361092c565b506040516101126020826109b6565b5f815261012c905f36602083013760405191829182610958565b0390f35b634e487b7160e01b5f52604160045260245ffd5b5f80fd5b346101445760203660031901126101445761016161092c565b6040519061017060c0836109b6565b6005825260a03660208401375f905b6001600160a01b031680151580610219575b156101cf575f908152602081905260409020546001600160a01b0316801561017f579080826101c36101c99386610a22565b52610a4a565b9061017f565b506101d9816109f0565b915f5b8281106101f1576040518061012c8682610958565b6001906001600160a01b036102068285610a22565b51166102128287610a22565b52016101dc565b5060058210610191565b34610144576040366003190112610144576001600160a01b0361024461092c565b165f525f602052602060018060a01b0360405f2054161515604051908152f35b346101445760203660031901126101445761027d61092c565b50602060405160018152f35b61099a565b346101445760403660031901126101445760206102a961092c565b6102b1610942565b6001600160a01b039182165f90815280845260409081902054905190831691909216148152f35b34610144576020366003190112610144576102f161092c565b5f905b6001600160a01b031680151580610343575b15610338575f908152602081905260409020546001600160a01b031680156102f4579061033290610a4a565b906102f4565b602082604051908152f35b50600a8210610306565b34610144576040366003190112610144576001600160a01b0361036e61092c565b165f525f602052602060018060a01b0360405f205416604051908152f35b34610144576020366003190112610144576001600160a01b036103ad61092c565b16805f52600360205260ff60405f2054166103c457005b5f818152600360205260408120805460ff191690555b60045490818110156104e157826103f082610a58565b905460039190911b1c6001600160a01b0316146104115760019150016103da565b5f1982019182116104cd5761044361042b61046793610a58565b905460039190911b1c6001600160a01b031691610a58565b81546001600160a01b0393841660039290921b91821b9390911b1916919091179055565b60045480156104b9575f190161047c81610a58565b81549060018060a01b039060031b1b191690556004555b7fdd4fdcea7474ec44ed60a0e33a8b3e1a80b4002026a6bc5b8e6e97bd883641335f80a2005b634e487b7160e01b5f52603160045260245ffd5b634e487b7160e01b5f52601160045260245ffd5b5050610493565b34610144575f3660031901126101445760405180602060045491828152019060045f527f8a35acfbc15ff81a39ae7d344fd709f28e8600b4aa8c65c6b64bfe7fe36bd19b905f5b8181106105525761012c85610546818703826109b6565b60405191829182610958565b82546001600160a01b031684526020909301926001928301920161052f565b34610144576060366003190112610144576105c261058d61092c565b610595610942565b6001600160a01b039182165f90815260208190526040902080546001600160a01b03191691909216179055565b005b34610144576040366003190112610144576001600160a01b036105e561092c565b165f52600160205260405f206040519081602082549182815201915f5260205f20905f5b8181106106205761012c85610546818703826109b6565b82546001600160a01b0316845260209093019260019283019201610609565b346101445760203660031901126101445761065861092c565b6040519061016061066981846109b6565b600a8352601f19013660208401375f905b6001600160a01b03169081151580610709575b156106be5780826101c36106a19386610a22565b5f91825260208290526040909120546001600160a01b031661067a565b90506106c9816109f0565b915f5b8281106106e1576040518061012c8682610958565b6001906001600160a01b036106f68285610a22565b51166107028287610a22565b52016106cc565b50600a811061068d565b346101445760603660031901126101445760043567ffffffffffffffff811161014457366023820112156101445780600401359067ffffffffffffffff821161014457602490369260051b010111610144576105c2610942565b34610144575f366003190112610144576002546040516001600160a01b039091168152602090f35b34610144575f36600319011261014457602060405160018152f35b34610144576020366003190112610144576107c961092c565b6001600160a01b0381165f8181526003602052604090205490919060ff16156107ee57005b815f52600360205260405f20600160ff1982541617905560045490680100000000000000008210156101305761044382600161082d9401600455610a58565b7f5a7a3f71a35f5e2589980d29d1c6d8c75e39657751190874081e55208bae24b75f80a2005b346101445760403660031901126101445761086c61092c565b60243590610879826109f0565b6001600160a01b039182165f908152602081905260408120549092165b6001600160a01b03169182151580610923575b156108da5780836101c36108bd9385610a22565b5f92835260208390526040909220546001600160a01b0316610896565b6108e3816109f0565b915f5b8281106108fb576040518061012c8682610958565b6001906001600160a01b036109108285610a22565b511661091c8287610a22565b52016108e6565b508381106108a9565b600435906001600160a01b038216820361014457565b602435906001600160a01b038216820361014457565b60206040818301928281528451809452019201905f5b81811061097b5750505090565b82516001600160a01b031684526020938401939092019160010161096e565b34610144576040366003190112610144576105c261058d61092c565b90601f8019910116810190811067ffffffffffffffff82111761013057604052565b67ffffffffffffffff81116101305760051b60200190565b906109fa826109d8565b610a0760405191826109b6565b8281528092610a18601f19916109d8565b0190602036910137565b8051821015610a365760209160051b010190565b634e487b7160e01b5f52603260045260245ffd5b5f1981146104cd5760010190565b600454811015610a365760045f5260205f2001905f9056fea2646970667358221220b97765884bb969a61e8f570134733623aa7103d76c9a06804cc834db4f70d66364736f6c634300081a0033","linkReferences":{}},"methodIdentifiers":{"NULL_REFERRER()":"49bcd248","addReferral(address,address)":"0b5c3f87","authorizeOracle(address)":"0f13b763","batchRegister(address[],address,bytes32)":"622be01c","getAncestors(address,bytes32,uint256)":"e96dc26a","getAncestors(address,uint256)":"0a9b7ed5","getAuthorizedOracles()":"6e138c84","getChildren(address,bytes32)":"66695b1e","getReferralChain(address)":"6667864d","getReferralDepth(address)":"829d1535","getReferrer(address,bytes32)":"77ccfd4b","getReferrers(address)":"df65845a","getRoot()":"5ca1e165","isAuthorizedOracle(address)":"bfe609da","isRegistered(address,bytes32)":"d65ad694","isValidReferral(address,address)":"93cec3e2","register(address,address,bytes32)":"69b15fce","setReferrer(address,address)":"bbddaca3","unauthorizeOracle(address)":"76bba3be"},"id":43}