{"abi":[{"type":"constructor","inputs":[{"name":"root","type":"address","internalType":"address"}],"stateMutability":"nonpayable"},{"type":"function","name":"addReferral","inputs":[{"name":"user","type":"address","internalType":"address"},{"name":"referrer","type":"address","internalType":"address"}],"outputs":[],"stateMutability":"nonpayable"},{"type":"function","name":"allowReferrer","inputs":[{"name":"referrer","type":"address","internalType":"address"}],"outputs":[],"stateMutability":"nonpayable"},{"type":"function","name":"batchRegister","inputs":[{"name":"users","type":"address[]","internalType":"address[]"},{"name":"referrer","type":"address","internalType":"address"},{"name":"groupId","type":"bytes32","internalType":"bytes32"}],"outputs":[],"stateMutability":"nonpayable"},{"type":"function","name":"disallowReferrer","inputs":[{"name":"referrer","type":"address","internalType":"address"}],"outputs":[],"stateMutability":"nonpayable"},{"type":"function","name":"getAncestors","inputs":[{"name":"user","type":"address","internalType":"address"},{"name":"maxLevels","type":"uint256","internalType":"uint256"}],"outputs":[{"name":"","type":"address[]","internalType":"address[]"}],"stateMutability":"view"},{"type":"function","name":"getAncestors","inputs":[{"name":"user","type":"address","internalType":"address"},{"name":"groupId","type":"bytes32","internalType":"bytes32"},{"name":"maxLevels","type":"uint256","internalType":"uint256"}],"outputs":[{"name":"","type":"address[]","internalType":"address[]"}],"stateMutability":"view"},{"type":"function","name":"getChildren","inputs":[{"name":"referrer","type":"address","internalType":"address"},{"name":"groupId","type":"bytes32","internalType":"bytes32"}],"outputs":[{"name":"","type":"address[]","internalType":"address[]"}],"stateMutability":"view"},{"type":"function","name":"getReferralChain","inputs":[{"name":"user","type":"address","internalType":"address"}],"outputs":[{"name":"","type":"address[]","internalType":"address[]"}],"stateMutability":"view"},{"type":"function","name":"getReferralDepth","inputs":[{"name":"user","type":"address","internalType":"address"}],"outputs":[{"name":"","type":"uint256","internalType":"uint256"}],"stateMutability":"view"},{"type":"function","name":"getReferrer","inputs":[{"name":"user","type":"address","internalType":"address"},{"name":"groupId","type":"bytes32","internalType":"bytes32"}],"outputs":[{"name":"","type":"address","internalType":"address"}],"stateMutability":"view"},{"type":"function","name":"getReferrers","inputs":[{"name":"user","type":"address","internalType":"address"}],"outputs":[{"name":"","type":"address[]","internalType":"address[]"}],"stateMutability":"view"},{"type":"function","name":"getRoot","inputs":[],"outputs":[{"name":"","type":"address","internalType":"address"}],"stateMutability":"view"},{"type":"function","name":"isAllowedReferrer","inputs":[{"name":"referrer","type":"address","internalType":"address"}],"outputs":[{"name":"","type":"bool","internalType":"bool"}],"stateMutability":"view"},{"type":"function","name":"isAllowlistEnabled","inputs":[],"outputs":[{"name":"","type":"bool","internalType":"bool"}],"stateMutability":"view"},{"type":"function","name":"isRegistered","inputs":[{"name":"user","type":"address","internalType":"address"},{"name":"groupId","type":"bytes32","internalType":"bytes32"}],"outputs":[{"name":"","type":"bool","internalType":"bool"}],"stateMutability":"view"},{"type":"function","name":"isValidReferral","inputs":[{"name":"user","type":"address","internalType":"address"},{"name":"referrer","type":"address","internalType":"address"}],"outputs":[{"name":"","type":"bool","internalType":"bool"}],"stateMutability":"view"},{"type":"function","name":"register","inputs":[{"name":"user","type":"address","internalType":"address"},{"name":"referrer","type":"address","internalType":"address"},{"name":"groupId","type":"bytes32","internalType":"bytes32"}],"outputs":[],"stateMutability":"nonpayable"},{"type":"function","name":"setAllowlistEnabled","inputs":[{"name":"enabled","type":"bool","internalType":"bool"}],"outputs":[],"stateMutability":"nonpayable"},{"type":"function","name":"setReferrer","inputs":[{"name":"user","type":"address","internalType":"address"},{"name":"referrer","type":"address","internalType":"address"}],"outputs":[],"stateMutability":"nonpayable"},{"type":"event","name":"ReferrerAllowed","inputs":[{"name":"referrer","type":"address","indexed":true,"internalType":"address"}],"anonymous":false},{"type":"event","name":"ReferrerDisallowed","inputs":[{"name":"referrer","type":"address","indexed":true,"internalType":"address"}],"anonymous":false},{"type":"event","name":"UserRegistered","inputs":[{"name":"user","type":"address","indexed":true,"internalType":"address"},{"name":"referrer","type":"address","indexed":true,"internalType":"address"}],"anonymous":false},{"type":"error","name":"AlreadyRegistered","inputs":[]},{"type":"error","name":"CycleDetected","inputs":[]},{"type":"error","name":"InvalidReferrer","inputs":[]},{"type":"error","name":"ReferrerNotAllowed","inputs":[]}],"bytecode":{"object":"0x6080604052348015600e575f80fd5b50604051610ba5380380610ba5833981016040819052602b916055565b600380546001600160a01b0390921661010002610100600160a81b03199092169190911790556080565b5f602082840312156064575f80fd5b81516001600160a01b03811681146079575f80fd5b9392505050565b610b188061008d5f395ff3fe608060405234801561000f575f80fd5b506004361061011c575f3560e01c806377ccfd4b116100a9578063d146fd1b1161006e578063d146fd1b1461033c578063d65ad69414610347578063d7644ba214610375578063df65845a14610396578063e96dc26a146103a9575f80fd5b806377ccfd4b14610292578063829d1535146102be57806393cec3e2146102df578063bbddaca314610149578063bcd5addb1461030e575f80fd5b8063622be01c116100ef578063622be01c146101e15780636667864d146101f557806366695b1e1461020857806369b15fce1461021b5780636dfce94c14610257575f80fd5b80630a9b7ed5146101205780630b5c3f87146101495780631736c59e146101865780635ca1e165146101b7575b5f80fd5b61013361012e3660046108c2565b6103cc565b60405161014091906108ea565b60405180910390f35b610184610157366004610935565b6001600160a01b039182165f90815260208190526040902080546001600160a01b03191691909216179055565b005b610184610194366004610966565b6001600160a01b03165f908152600260205260409020805460ff19166001179055565b60035461010090046001600160a01b03165b6040516001600160a01b039091168152602001610140565b6101846101ef366004610986565b50505050565b610133610203366004610966565b61054f565b6101336102163660046108c2565b610698565b610184610229366004610a0d565b506001600160a01b039182165f90815260208190526040902080546001600160a01b03191691909216179055565b610282610265366004610966565b6001600160a01b03165f9081526002602052604090205460ff1690565b6040519015158152602001610140565b6101c96102a03660046108c2565b506001600160a01b039081165f908152602081905260409020541690565b6102d16102cc366004610966565b61070c565b604051908152602001610140565b6102826102ed366004610935565b6001600160a01b039182165f90815260208190526040902054821691161490565b61018461031c366004610966565b6001600160a01b03165f908152600260205260409020805460ff19169055565b60035460ff16610282565b6102826103553660046108c2565b506001600160a01b039081165f9081526020819052604090205416151590565b610184610383366004610a47565b6003805460ff1916911515919091179055565b6101336103a4366004610966565b610767565b6101336103b7366004610a66565b5050604080515f815260208101909152919050565b60605f8267ffffffffffffffff8111156103e8576103e8610a96565b604051908082528060200260200182016040528015610411578160200160208202803683370190505b506001600160a01b038086165f9081526020819052604081205492935091165b6001600160a01b0381161580159061044857508482105b156104a8578083838151811061046057610460610aaa565b6001600160a01b03909216602092830291909101909101528161048281610abe565b6001600160a01b039283165f908152602081905260409020549093509091169050610431565b5f8267ffffffffffffffff8111156104c2576104c2610a96565b6040519080825280602002602001820160405280156104eb578160200160208202803683370190505b5090505f5b838110156105445784818151811061050a5761050a610aaa565b602002602001015182828151811061052457610524610aaa565b6001600160a01b03909216602092830291909101909101526001016104f0565b509695505050505050565b60408051600a80825261016082019092526060915f919060208201610140803683370190505090505f835b6001600160a01b038116158015906105925750600a82105b156105f257808383815181106105aa576105aa610aaa565b6001600160a01b0390921660209283029190910190910152816105cc81610abe565b6001600160a01b039283165f90815260208190526040902054909350909116905061057a565b5f8267ffffffffffffffff81111561060c5761060c610a96565b604051908082528060200260200182016040528015610635578160200160208202803683370190505b5090505f5b8381101561068e5784818151811061065457610654610aaa565b602002602001015182828151811061066e5761066e610aaa565b6001600160a01b039092166020928302919091019091015260010161063a565b5095945050505050565b6001600160a01b0382165f908152600160209081526040918290208054835181840281018401909452808452606093928301828280156106ff57602002820191905f5260205f20905b81546001600160a01b031681526001909101906020018083116106e1575b5050505050905092915050565b5f80825b6001600160a01b038116158015906107285750600a82105b15610760576001600160a01b039081165f9081526020819052604090205416801561075b578161075781610abe565b9250505b610710565b5092915050565b60408051600580825260c082019092526060915f91906020820160a0803683370190505090505f835b6001600160a01b038116158015906107a85750600582105b1561080b576001600160a01b039081165f9081526020819052604090205416801561080657808383815181106107e0576107e0610aaa565b6001600160a01b03909216602092830291909101909101528161080281610abe565b9250505b610790565b5f8267ffffffffffffffff81111561082557610825610a96565b60405190808252806020026020018201604052801561084e578160200160208202803683370190505b5090505f5b8381101561068e5784818151811061086d5761086d610aaa565b602002602001015182828151811061088757610887610aaa565b6001600160a01b0390921660209283029190910190910152600101610853565b80356001600160a01b03811681146108bd575f80fd5b919050565b5f80604083850312156108d3575f80fd5b6108dc836108a7565b946020939093013593505050565b602080825282518282018190525f918401906040840190835b8181101561092a5783516001600160a01b0316835260209384019390920191600101610903565b509095945050505050565b5f8060408385031215610946575f80fd5b61094f836108a7565b915061095d602084016108a7565b90509250929050565b5f60208284031215610976575f80fd5b61097f826108a7565b9392505050565b5f805f8060608587031215610999575f80fd5b843567ffffffffffffffff8111156109af575f80fd5b8501601f810187136109bf575f80fd5b803567ffffffffffffffff8111156109d5575f80fd5b8760208260051b84010111156109e9575f80fd5b6020918201955093506109fd9086016108a7565b9396929550929360400135925050565b5f805f60608486031215610a1f575f80fd5b610a28846108a7565b9250610a36602085016108a7565b929592945050506040919091013590565b5f60208284031215610a57575f80fd5b8135801515811461097f575f80fd5b5f805f60608486031215610a78575f80fd5b610a81846108a7565b95602085013595506040909401359392505050565b634e487b7160e01b5f52604160045260245ffd5b634e487b7160e01b5f52603260045260245ffd5b5f60018201610adb57634e487b7160e01b5f52601160045260245ffd5b506001019056fea26469706673582212201745e64f0bbfcdf8392891b54ddb0c197d2f5226f13a7533b5532c93a865186d64736f6c634300081a0033","linkReferences":{}},"methodIdentifiers":{"addReferral(address,address)":"0b5c3f87","allowReferrer(address)":"1736c59e","batchRegister(address[],address,bytes32)":"622be01c","disallowReferrer(address)":"bcd5addb","getAncestors(address,bytes32,uint256)":"e96dc26a","getAncestors(address,uint256)":"0a9b7ed5","getChildren(address,bytes32)":"66695b1e","getReferralChain(address)":"6667864d","getReferralDepth(address)":"829d1535","getReferrer(address,bytes32)":"77ccfd4b","getReferrers(address)":"df65845a","getRoot()":"5ca1e165","isAllowedReferrer(address)":"6dfce94c","isAllowlistEnabled()":"d146fd1b","isRegistered(address,bytes32)":"d65ad694","isValidReferral(address,address)":"93cec3e2","register(address,address,bytes32)":"69b15fce","setAllowlistEnabled(bool)":"d7644ba2","setReferrer(address,address)":"bbddaca3"},"id":40}