{"abi":[{"type":"constructor","inputs":[],"stateMutability":"nonpayable"},{"type":"function","name":"REFERRAL_ROOT","inputs":[],"outputs":[{"name":"","type":"address","internalType":"address"}],"stateMutability":"view"},{"type":"function","name":"addReferral","inputs":[{"name":"user","type":"address","internalType":"address"},{"name":"referrer","type":"address","internalType":"address"}],"outputs":[],"stateMutability":"nonpayable"},{"type":"function","name":"authorizeOracle","inputs":[{"name":"oracle","type":"address","internalType":"address"}],"outputs":[],"stateMutability":"nonpayable"},{"type":"function","name":"batchRegister","inputs":[{"name":"users","type":"address[]","internalType":"address[]"},{"name":"referrer","type":"address","internalType":"address"},{"name":"groupId","type":"bytes32","internalType":"bytes32"}],"outputs":[],"stateMutability":"nonpayable"},{"type":"function","name":"getAncestors","inputs":[{"name":"user","type":"address","internalType":"address"},{"name":"maxLevels","type":"uint256","internalType":"uint256"}],"outputs":[{"name":"","type":"address[]","internalType":"address[]"}],"stateMutability":"view"},{"type":"function","name":"getAncestors","inputs":[{"name":"","type":"address","internalType":"address"},{"name":"","type":"bytes32","internalType":"bytes32"},{"name":"","type":"uint256","internalType":"uint256"}],"outputs":[{"name":"","type":"address[]","internalType":"address[]"}],"stateMutability":"pure"},{"type":"function","name":"getAuthorizedOracles","inputs":[],"outputs":[{"name":"","type":"address[]","internalType":"address[]"}],"stateMutability":"view"},{"type":"function","name":"getChildren","inputs":[{"name":"referrer","type":"address","internalType":"address"},{"name":"","type":"bytes32","internalType":"bytes32"}],"outputs":[{"name":"","type":"address[]","internalType":"address[]"}],"stateMutability":"view"},{"type":"function","name":"getReferralChain","inputs":[{"name":"user","type":"address","internalType":"address"}],"outputs":[{"name":"","type":"address[]","internalType":"address[]"}],"stateMutability":"view"},{"type":"function","name":"getReferralDepth","inputs":[{"name":"user","type":"address","internalType":"address"}],"outputs":[{"name":"","type":"uint256","internalType":"uint256"}],"stateMutability":"view"},{"type":"function","name":"getReferrer","inputs":[{"name":"user","type":"address","internalType":"address"},{"name":"","type":"bytes32","internalType":"bytes32"}],"outputs":[{"name":"","type":"address","internalType":"address"}],"stateMutability":"view"},{"type":"function","name":"getReferrers","inputs":[{"name":"user","type":"address","internalType":"address"}],"outputs":[{"name":"","type":"address[]","internalType":"address[]"}],"stateMutability":"view"},{"type":"function","name":"isAuthorizedOracle","inputs":[{"name":"","type":"address","internalType":"address"}],"outputs":[{"name":"","type":"bool","internalType":"bool"}],"stateMutability":"pure"},{"type":"function","name":"isRegistered","inputs":[{"name":"user","type":"address","internalType":"address"},{"name":"","type":"bytes32","internalType":"bytes32"}],"outputs":[{"name":"","type":"bool","internalType":"bool"}],"stateMutability":"view"},{"type":"function","name":"isValidReferral","inputs":[{"name":"user","type":"address","internalType":"address"},{"name":"referrer","type":"address","internalType":"address"}],"outputs":[{"name":"","type":"bool","internalType":"bool"}],"stateMutability":"view"},{"type":"function","name":"register","inputs":[{"name":"user","type":"address","internalType":"address"},{"name":"referrer","type":"address","internalType":"address"},{"name":"","type":"bytes32","internalType":"bytes32"}],"outputs":[],"stateMutability":"nonpayable"},{"type":"function","name":"setReferrer","inputs":[{"name":"user","type":"address","internalType":"address"},{"name":"referrer","type":"address","internalType":"address"}],"outputs":[],"stateMutability":"nonpayable"},{"type":"function","name":"unauthorizeOracle","inputs":[{"name":"oracle","type":"address","internalType":"address"}],"outputs":[],"stateMutability":"nonpayable"},{"type":"event","name":"OracleAuthorized","inputs":[{"name":"oracle","type":"address","indexed":true,"internalType":"address"}],"anonymous":false},{"type":"event","name":"OracleUnauthorized","inputs":[{"name":"oracle","type":"address","indexed":true,"internalType":"address"}],"anonymous":false},{"type":"event","name":"UserRegistered","inputs":[{"name":"user","type":"address","indexed":true,"internalType":"address"},{"name":"referrer","type":"address","indexed":true,"internalType":"address"}],"anonymous":false},{"type":"error","name":"AlreadyRegistered","inputs":[]},{"type":"error","name":"CycleDetected","inputs":[]},{"type":"error","name":"InvalidReferrer","inputs":[]},{"type":"error","name":"UnauthorizedOracle","inputs":[]}],"bytecode":{"object":"0x608080604052346049575f805260026020527fac33ff75c19e70fe83507db0d683fd3465c996598dc972688b7ace676c89077b805460ff19166001179055610a73908161004e8239f35b5f80fdfe60806040526004361015610011575f80fd5b5f3560e01c80630a9b7ed5146108205780630b5c3f871461027e5780630f13b7631461077d578063622be01c146107235780636667864d1461064f57806366695b1e146105d457806369b15fce146105815780636e138c84146104f857806376bba3be1461039c57806377ccfd4b1461035d578063829d1535146102e857806393cec3e21461029e578063ba59475114610283578063bbddaca31461027e578063bfe609da14610259578063d65ad69414610218578063df65845a1461013d5763e96dc26a146100df575f80fd5b34610139576060366003190112610139576100f86108f9565b50604051610107602082610983565b5f8152610121905f36602083013760405191829182610925565b0390f35b634e487b7160e01b5f52604160045260245ffd5b5f80fd5b34610139576020366003190112610139576101566108f9565b6040519061016560c083610983565b6005825260a03660208401375f905b6001600160a01b03168015158061020e575b156101c4575f908152602081905260409020546001600160a01b03168015610174579080826101b86101be93866109ef565b52610a17565b90610174565b506101ce816109bd565b915f5b8281106101e657604051806101218682610925565b6001906001600160a01b036101fb82856109ef565b511661020782876109ef565b52016101d1565b5060058210610186565b34610139576040366003190112610139576001600160a01b036102396108f9565b165f525f602052602060018060a01b0360405f2054161515604051908152f35b34610139576020366003190112610139576102726108f9565b50602060405160018152f35b610967565b34610139575f36600319011261013957602060405160018152f35b346101395760403660031901126101395760206102b96108f9565b6102c161090f565b6001600160a01b039182165f90815280845260409081902054905190831691909216148152f35b34610139576020366003190112610139576103016108f9565b5f905b6001600160a01b031680151580610353575b15610348575f908152602081905260409020546001600160a01b03168015610304579061034290610a17565b90610304565b602082604051908152f35b50600a8210610316565b34610139576040366003190112610139576001600160a01b0361037e6108f9565b165f525f602052602060018060a01b0360405f205416604051908152f35b34610139576020366003190112610139576001600160a01b036103bd6108f9565b16805f52600260205260ff60405f2054166103d457005b5f818152600260205260408120805460ff191690555b60035490818110156104f1578261040082610a25565b905460039190911b1c6001600160a01b0316146104215760019150016103ea565b5f1982019182116104dd5761045361043b61047793610a25565b905460039190911b1c6001600160a01b031691610a25565b81546001600160a01b0393841660039290921b91821b9390911b1916919091179055565b60035480156104c9575f190161048c81610a25565b81546001600160a01b03600392831b1b1916909155555b7fdd4fdcea7474ec44ed60a0e33a8b3e1a80b4002026a6bc5b8e6e97bd883641335f80a2005b634e487b7160e01b5f52603160045260245ffd5b634e487b7160e01b5f52601160045260245ffd5b50506104a3565b34610139575f3660031901126101395760405180602060035491828152019060035f527fc2575a0e9e593c00f959f8c92f12db2869c3395a3b0502d05e2516446f71f85b905f5b818110610562576101218561055681870382610983565b60405191829182610925565b82546001600160a01b031684526020909301926001928301920161053f565b34610139576060366003190112610139576105d261059d6108f9565b6105a561090f565b6001600160a01b039182165f90815260208190526040902080546001600160a01b03191691909216179055565b005b34610139576040366003190112610139576001600160a01b036105f56108f9565b165f52600160205260405f206040519081602082549182815201915f5260205f20905f5b818110610630576101218561055681870382610983565b82546001600160a01b0316845260209093019260019283019201610619565b34610139576020366003190112610139576106686108f9565b604051906101606106798184610983565b600a8352601f19013660208401375f905b6001600160a01b03169081151580610719575b156106ce5780826101b86106b193866109ef565b5f91825260208290526040909120546001600160a01b031661068a565b90506106d9816109bd565b915f5b8281106106f157604051806101218682610925565b6001906001600160a01b0361070682856109ef565b511661071282876109ef565b52016106dc565b50600a811061069d565b346101395760603660031901126101395760043567ffffffffffffffff811161013957366023820112156101395780600401359067ffffffffffffffff821161013957602490369260051b010111610139576105d261090f565b34610139576020366003190112610139576107966108f9565b6001600160a01b0381165f8181526002602052604090205490919060ff16156107bb57005b815f52600260205260405f20600160ff198254161790556003549068010000000000000000821015610125576104538260016107fa9401600355610a25565b7f5a7a3f71a35f5e2589980d29d1c6d8c75e39657751190874081e55208bae24b75f80a2005b34610139576040366003190112610139576108396108f9565b60243590610846826109bd565b6001600160a01b039182165f908152602081905260408120549092165b6001600160a01b031691821515806108f0575b156108a75780836101b861088a93856109ef565b5f92835260208390526040909220546001600160a01b0316610863565b6108b0816109bd565b915f5b8281106108c857604051806101218682610925565b6001906001600160a01b036108dd82856109ef565b51166108e982876109ef565b52016108b3565b50838110610876565b600435906001600160a01b038216820361013957565b602435906001600160a01b038216820361013957565b60206040818301928281528451809452019201905f5b8181106109485750505090565b82516001600160a01b031684526020938401939092019160010161093b565b34610139576040366003190112610139576105d261059d6108f9565b90601f8019910116810190811067ffffffffffffffff82111761012557604052565b67ffffffffffffffff81116101255760051b60200190565b906109c7826109a5565b6109d46040519182610983565b82815280926109e5601f19916109a5565b0190602036910137565b8051821015610a035760209160051b010190565b634e487b7160e01b5f52603260045260245ffd5b5f1981146104dd5760010190565b600354811015610a035760035f5260205f2001905f9056fea2646970667358221220ff9aecd59378f49c71784ec8d19d7c4ad007bc36f319dab2b9b93b6cfab3058e64736f6c634300081a0033","linkReferences":{}},"methodIdentifiers":{"REFERRAL_ROOT()":"ba594751","addReferral(address,address)":"0b5c3f87","authorizeOracle(address)":"0f13b763","batchRegister(address[],address,bytes32)":"622be01c","getAncestors(address,bytes32,uint256)":"e96dc26a","getAncestors(address,uint256)":"0a9b7ed5","getAuthorizedOracles()":"6e138c84","getChildren(address,bytes32)":"66695b1e","getReferralChain(address)":"6667864d","getReferralDepth(address)":"829d1535","getReferrer(address,bytes32)":"77ccfd4b","getReferrers(address)":"df65845a","isAuthorizedOracle(address)":"bfe609da","isRegistered(address,bytes32)":"d65ad694","isValidReferral(address,address)":"93cec3e2","register(address,address,bytes32)":"69b15fce","setReferrer(address,address)":"bbddaca3","unauthorizeOracle(address)":"76bba3be"},"id":43}