{"abi":[{"type":"constructor","inputs":[{"name":"root","type":"address","internalType":"address"}],"stateMutability":"nonpayable"},{"type":"function","name":"addReferral","inputs":[{"name":"user","type":"address","internalType":"address"},{"name":"referrer","type":"address","internalType":"address"}],"outputs":[],"stateMutability":"nonpayable"},{"type":"function","name":"allowReferrer","inputs":[{"name":"referrer","type":"address","internalType":"address"}],"outputs":[],"stateMutability":"nonpayable"},{"type":"function","name":"authorizeOracle","inputs":[{"name":"oracle","type":"address","internalType":"address"}],"outputs":[],"stateMutability":"nonpayable"},{"type":"function","name":"batchRegister","inputs":[{"name":"users","type":"address[]","internalType":"address[]"},{"name":"referrer","type":"address","internalType":"address"},{"name":"groupId","type":"bytes32","internalType":"bytes32"}],"outputs":[],"stateMutability":"nonpayable"},{"type":"function","name":"disallowReferrer","inputs":[{"name":"referrer","type":"address","internalType":"address"}],"outputs":[],"stateMutability":"nonpayable"},{"type":"function","name":"getAncestors","inputs":[{"name":"user","type":"address","internalType":"address"},{"name":"maxLevels","type":"uint256","internalType":"uint256"}],"outputs":[{"name":"","type":"address[]","internalType":"address[]"}],"stateMutability":"view"},{"type":"function","name":"getAncestors","inputs":[{"name":"","type":"address","internalType":"address"},{"name":"","type":"bytes32","internalType":"bytes32"},{"name":"","type":"uint256","internalType":"uint256"}],"outputs":[{"name":"","type":"address[]","internalType":"address[]"}],"stateMutability":"pure"},{"type":"function","name":"getAuthorizedOracles","inputs":[],"outputs":[{"name":"","type":"address[]","internalType":"address[]"}],"stateMutability":"view"},{"type":"function","name":"getChildren","inputs":[{"name":"referrer","type":"address","internalType":"address"},{"name":"","type":"bytes32","internalType":"bytes32"}],"outputs":[{"name":"","type":"address[]","internalType":"address[]"}],"stateMutability":"view"},{"type":"function","name":"getReferralChain","inputs":[{"name":"user","type":"address","internalType":"address"}],"outputs":[{"name":"","type":"address[]","internalType":"address[]"}],"stateMutability":"view"},{"type":"function","name":"getReferralDepth","inputs":[{"name":"user","type":"address","internalType":"address"}],"outputs":[{"name":"","type":"uint256","internalType":"uint256"}],"stateMutability":"view"},{"type":"function","name":"getReferrer","inputs":[{"name":"user","type":"address","internalType":"address"},{"name":"","type":"bytes32","internalType":"bytes32"}],"outputs":[{"name":"","type":"address","internalType":"address"}],"stateMutability":"view"},{"type":"function","name":"getReferrers","inputs":[{"name":"user","type":"address","internalType":"address"}],"outputs":[{"name":"","type":"address[]","internalType":"address[]"}],"stateMutability":"view"},{"type":"function","name":"getRoot","inputs":[],"outputs":[{"name":"","type":"address","internalType":"address"}],"stateMutability":"view"},{"type":"function","name":"isAllowedReferrer","inputs":[{"name":"referrer","type":"address","internalType":"address"}],"outputs":[{"name":"","type":"bool","internalType":"bool"}],"stateMutability":"view"},{"type":"function","name":"isAllowlistEnabled","inputs":[],"outputs":[{"name":"","type":"bool","internalType":"bool"}],"stateMutability":"view"},{"type":"function","name":"isAuthorizedOracle","inputs":[{"name":"","type":"address","internalType":"address"}],"outputs":[{"name":"","type":"bool","internalType":"bool"}],"stateMutability":"pure"},{"type":"function","name":"isRegistered","inputs":[{"name":"user","type":"address","internalType":"address"},{"name":"","type":"bytes32","internalType":"bytes32"}],"outputs":[{"name":"","type":"bool","internalType":"bool"}],"stateMutability":"view"},{"type":"function","name":"isValidReferral","inputs":[{"name":"user","type":"address","internalType":"address"},{"name":"referrer","type":"address","internalType":"address"}],"outputs":[{"name":"","type":"bool","internalType":"bool"}],"stateMutability":"view"},{"type":"function","name":"register","inputs":[{"name":"user","type":"address","internalType":"address"},{"name":"referrer","type":"address","internalType":"address"},{"name":"","type":"bytes32","internalType":"bytes32"}],"outputs":[],"stateMutability":"nonpayable"},{"type":"function","name":"setAllowlistEnabled","inputs":[{"name":"enabled","type":"bool","internalType":"bool"}],"outputs":[],"stateMutability":"nonpayable"},{"type":"function","name":"setReferrer","inputs":[{"name":"user","type":"address","internalType":"address"},{"name":"referrer","type":"address","internalType":"address"}],"outputs":[],"stateMutability":"nonpayable"},{"type":"function","name":"unauthorizeOracle","inputs":[{"name":"oracle","type":"address","internalType":"address"}],"outputs":[],"stateMutability":"nonpayable"},{"type":"event","name":"OracleAuthorized","inputs":[{"name":"oracle","type":"address","indexed":true,"internalType":"address"}],"anonymous":false},{"type":"event","name":"OracleUnauthorized","inputs":[{"name":"oracle","type":"address","indexed":true,"internalType":"address"}],"anonymous":false},{"type":"event","name":"ReferrerAllowed","inputs":[{"name":"referrer","type":"address","indexed":true,"internalType":"address"}],"anonymous":false},{"type":"event","name":"ReferrerDisallowed","inputs":[{"name":"referrer","type":"address","indexed":true,"internalType":"address"}],"anonymous":false},{"type":"event","name":"UserRegistered","inputs":[{"name":"user","type":"address","indexed":true,"internalType":"address"},{"name":"referrer","type":"address","indexed":true,"internalType":"address"}],"anonymous":false},{"type":"error","name":"AlreadyRegistered","inputs":[]},{"type":"error","name":"CycleDetected","inputs":[]},{"type":"error","name":"InvalidReferrer","inputs":[]},{"type":"error","name":"ReferrerNotAllowed","inputs":[]},{"type":"error","name":"UnauthorizedOracle","inputs":[]}],"bytecode":{"object":"0x60803460b357601f610c8b38819003918201601f19168301916001600160401b0383118484101760b75780849260209460405283398101031260b357516001600160a01b038116810360b35760038054610100600160a81b03191660089290921b610100600160a81b03169190911790555f805260046020527f17ef568e3e12ab5b9c7254a8d58478811de00f9e6eb34345acd53bf8fd09d3ec805460ff19166001179055604051610bbf90816100cc8239f35b5f80fd5b634e487b7160e01b5f52604160045260245ffdfe60806040526004361015610011575f80fd5b5f3560e01c80630a9b7ed51461096c5780630b5c3f87146103405780630f13b763146108c95780631736c59e1461088d5780635ca1e16514610861578063622be01c146108075780636667864d1461073357806366695b1e146106b857806369b15fce146106655780636dfce94c146106285780636e138c841461059f57806376bba3be1461044357806377ccfd4b14610404578063829d15351461038f57806393cec3e214610345578063bbddaca314610340578063bcd5addb14610307578063bfe609da146102e2578063d146fd1b146102c0578063d65ad6941461027f578063d7644ba21461024f578063df65845a146101745763e96dc26a14610116575f80fd5b346101705760603660031901126101705761012f610a45565b5060405161013e602082610acf565b5f8152610158905f36602083013760405191829182610a71565b0390f35b634e487b7160e01b5f52604160045260245ffd5b5f80fd5b346101705760203660031901126101705761018d610a45565b6040519061019c60c083610acf565b6005825260a03660208401375f905b6001600160a01b031680151580610245575b156101fb575f908152602081905260409020546001600160a01b031680156101ab579080826101ef6101f59386610b3b565b52610b63565b906101ab565b5061020581610b09565b915f5b82811061021d57604051806101588682610a71565b6001906001600160a01b036102328285610b3b565b511661023e8287610b3b565b5201610208565b50600582106101bd565b34610170576020366003190112610170576004358015158091036101705760ff8019600354169116176003555f80f35b34610170576040366003190112610170576001600160a01b036102a0610a45565b165f525f602052602060018060a01b0360405f2054161515604051908152f35b34610170575f36600319011261017057602060ff600354166040519015158152f35b34610170576020366003190112610170576102fb610a45565b50602060405160018152f35b34610170576020366003190112610170576001600160a01b03610328610a45565b165f908152600260205260409020805460ff19169055005b610ab3565b34610170576040366003190112610170576020610360610a45565b610368610a5b565b6001600160a01b039182165f90815280845260409081902054905190831691909216148152f35b34610170576020366003190112610170576103a8610a45565b5f905b6001600160a01b0316801515806103fa575b156103ef575f908152602081905260409020546001600160a01b031680156103ab57906103e990610b63565b906103ab565b602082604051908152f35b50600a82106103bd565b34610170576040366003190112610170576001600160a01b03610425610a45565b165f525f602052602060018060a01b0360405f205416604051908152f35b34610170576020366003190112610170576001600160a01b03610464610a45565b16805f52600460205260ff60405f20541661047b57005b5f818152600460205260408120805460ff191690555b600554908181101561059857826104a782610b71565b905460039190911b1c6001600160a01b0316146104c8576001915001610491565b5f198201918211610584576104fa6104e261051e93610b71565b905460039190911b1c6001600160a01b031691610b71565b81546001600160a01b0393841660039290921b91821b9390911b1916919091179055565b6005548015610570575f190161053381610b71565b81549060018060a01b039060031b1b191690556005555b7fdd4fdcea7474ec44ed60a0e33a8b3e1a80b4002026a6bc5b8e6e97bd883641335f80a2005b634e487b7160e01b5f52603160045260245ffd5b634e487b7160e01b5f52601160045260245ffd5b505061054a565b34610170575f3660031901126101705760405180602060055491828152019060055f527f036b6384b5eca791c62761152d0c79bb0604c104a5fb6f4eb0703f3154bb3db0905f5b81811061060957610158856105fd81870382610acf565b60405191829182610a71565b82546001600160a01b03168452602090930192600192830192016105e6565b34610170576020366003190112610170576001600160a01b03610649610a45565b165f526002602052602060ff60405f2054166040519015158152f35b34610170576060366003190112610170576106b6610681610a45565b610689610a5b565b6001600160a01b039182165f90815260208190526040902080546001600160a01b03191691909216179055565b005b34610170576040366003190112610170576001600160a01b036106d9610a45565b165f52600160205260405f206040519081602082549182815201915f5260205f20905f5b81811061071457610158856105fd81870382610acf565b82546001600160a01b03168452602090930192600192830192016106fd565b346101705760203660031901126101705761074c610a45565b6040519061016061075d8184610acf565b600a8352601f19013660208401375f905b6001600160a01b031690811515806107fd575b156107b25780826101ef6107959386610b3b565b5f91825260208290526040909120546001600160a01b031661076e565b90506107bd81610b09565b915f5b8281106107d557604051806101588682610a71565b6001906001600160a01b036107ea8285610b3b565b51166107f68287610b3b565b52016107c0565b50600a8110610781565b346101705760603660031901126101705760043567ffffffffffffffff811161017057366023820112156101705780600401359067ffffffffffffffff821161017057602490369260051b010111610170576106b6610a5b565b34610170575f3660031901126101705760035460405160089190911c6001600160a01b03168152602090f35b34610170576020366003190112610170576001600160a01b036108ae610a45565b165f908152600260205260409020805460ff19166001179055005b34610170576020366003190112610170576108e2610a45565b6001600160a01b0381165f8181526004602052604090205490919060ff161561090757005b815f52600460205260405f20600160ff19825416179055600554906801000000000000000082101561015c576104fa8260016109469401600555610b71565b7f5a7a3f71a35f5e2589980d29d1c6d8c75e39657751190874081e55208bae24b75f80a2005b3461017057604036600319011261017057610985610a45565b6024359061099282610b09565b6001600160a01b039182165f908152602081905260408120549092165b6001600160a01b03169182151580610a3c575b156109f35780836101ef6109d69385610b3b565b5f92835260208390526040909220546001600160a01b03166109af565b6109fc81610b09565b915f5b828110610a1457604051806101588682610a71565b6001906001600160a01b03610a298285610b3b565b5116610a358287610b3b565b52016109ff565b508381106109c2565b600435906001600160a01b038216820361017057565b602435906001600160a01b038216820361017057565b60206040818301928281528451809452019201905f5b818110610a945750505090565b82516001600160a01b0316845260209384019390920191600101610a87565b34610170576040366003190112610170576106b6610681610a45565b90601f8019910116810190811067ffffffffffffffff82111761015c57604052565b67ffffffffffffffff811161015c5760051b60200190565b90610b1382610af1565b610b206040519182610acf565b8281528092610b31601f1991610af1565b0190602036910137565b8051821015610b4f5760209160051b010190565b634e487b7160e01b5f52603260045260245ffd5b5f1981146105845760010190565b600554811015610b4f5760055f5260205f2001905f9056fea26469706673582212204ce835bdfd60e90b1155af5b30ad98edc818da618335ae6b17c70c0381afa44764736f6c634300081a0033","linkReferences":{}},"methodIdentifiers":{"addReferral(address,address)":"0b5c3f87","allowReferrer(address)":"1736c59e","authorizeOracle(address)":"0f13b763","batchRegister(address[],address,bytes32)":"622be01c","disallowReferrer(address)":"bcd5addb","getAncestors(address,bytes32,uint256)":"e96dc26a","getAncestors(address,uint256)":"0a9b7ed5","getAuthorizedOracles()":"6e138c84","getChildren(address,bytes32)":"66695b1e","getReferralChain(address)":"6667864d","getReferralDepth(address)":"829d1535","getReferrer(address,bytes32)":"77ccfd4b","getReferrers(address)":"df65845a","getRoot()":"5ca1e165","isAllowedReferrer(address)":"6dfce94c","isAllowlistEnabled()":"d146fd1b","isAuthorizedOracle(address)":"bfe609da","isRegistered(address,bytes32)":"d65ad694","isValidReferral(address,address)":"93cec3e2","register(address,address,bytes32)":"69b15fce","setAllowlistEnabled(bool)":"d7644ba2","setReferrer(address,address)":"bbddaca3","unauthorizeOracle(address)":"76bba3be"},"id":40}