{"abi":[{"type":"constructor","inputs":[{"name":"root","type":"address","internalType":"address"}],"stateMutability":"nonpayable"},{"type":"function","name":"NULL_REFERRER","inputs":[],"outputs":[{"name":"","type":"address","internalType":"address"}],"stateMutability":"view"},{"type":"function","name":"addReferral","inputs":[{"name":"user","type":"address","internalType":"address"},{"name":"referrer","type":"address","internalType":"address"}],"outputs":[],"stateMutability":"nonpayable"},{"type":"function","name":"allowReferrer","inputs":[{"name":"referrer","type":"address","internalType":"address"}],"outputs":[],"stateMutability":"nonpayable"},{"type":"function","name":"authorizeOracle","inputs":[{"name":"oracle","type":"address","internalType":"address"}],"outputs":[],"stateMutability":"nonpayable"},{"type":"function","name":"batchRegister","inputs":[{"name":"users","type":"address[]","internalType":"address[]"},{"name":"referrer","type":"address","internalType":"address"},{"name":"groupId","type":"bytes32","internalType":"bytes32"}],"outputs":[],"stateMutability":"nonpayable"},{"type":"function","name":"disallowReferrer","inputs":[{"name":"referrer","type":"address","internalType":"address"}],"outputs":[],"stateMutability":"nonpayable"},{"type":"function","name":"getAncestors","inputs":[{"name":"user","type":"address","internalType":"address"},{"name":"maxLevels","type":"uint256","internalType":"uint256"}],"outputs":[{"name":"","type":"address[]","internalType":"address[]"}],"stateMutability":"view"},{"type":"function","name":"getAncestors","inputs":[{"name":"","type":"address","internalType":"address"},{"name":"","type":"bytes32","internalType":"bytes32"},{"name":"","type":"uint256","internalType":"uint256"}],"outputs":[{"name":"","type":"address[]","internalType":"address[]"}],"stateMutability":"pure"},{"type":"function","name":"getAuthorizedOracles","inputs":[],"outputs":[{"name":"","type":"address[]","internalType":"address[]"}],"stateMutability":"view"},{"type":"function","name":"getChildren","inputs":[{"name":"referrer","type":"address","internalType":"address"},{"name":"","type":"bytes32","internalType":"bytes32"}],"outputs":[{"name":"","type":"address[]","internalType":"address[]"}],"stateMutability":"view"},{"type":"function","name":"getReferralChain","inputs":[{"name":"user","type":"address","internalType":"address"}],"outputs":[{"name":"","type":"address[]","internalType":"address[]"}],"stateMutability":"view"},{"type":"function","name":"getReferralDepth","inputs":[{"name":"user","type":"address","internalType":"address"}],"outputs":[{"name":"","type":"uint256","internalType":"uint256"}],"stateMutability":"view"},{"type":"function","name":"getReferrer","inputs":[{"name":"user","type":"address","internalType":"address"},{"name":"","type":"bytes32","internalType":"bytes32"}],"outputs":[{"name":"","type":"address","internalType":"address"}],"stateMutability":"view"},{"type":"function","name":"getReferrers","inputs":[{"name":"user","type":"address","internalType":"address"}],"outputs":[{"name":"","type":"address[]","internalType":"address[]"}],"stateMutability":"view"},{"type":"function","name":"getRoot","inputs":[],"outputs":[{"name":"","type":"address","internalType":"address"}],"stateMutability":"view"},{"type":"function","name":"isAllowedReferrer","inputs":[{"name":"referrer","type":"address","internalType":"address"}],"outputs":[{"name":"","type":"bool","internalType":"bool"}],"stateMutability":"view"},{"type":"function","name":"isAllowlistEnabled","inputs":[],"outputs":[{"name":"","type":"bool","internalType":"bool"}],"stateMutability":"view"},{"type":"function","name":"isAuthorizedOracle","inputs":[{"name":"","type":"address","internalType":"address"}],"outputs":[{"name":"","type":"bool","internalType":"bool"}],"stateMutability":"pure"},{"type":"function","name":"isRegistered","inputs":[{"name":"user","type":"address","internalType":"address"},{"name":"","type":"bytes32","internalType":"bytes32"}],"outputs":[{"name":"","type":"bool","internalType":"bool"}],"stateMutability":"view"},{"type":"function","name":"isValidReferral","inputs":[{"name":"user","type":"address","internalType":"address"},{"name":"referrer","type":"address","internalType":"address"}],"outputs":[{"name":"","type":"bool","internalType":"bool"}],"stateMutability":"view"},{"type":"function","name":"register","inputs":[{"name":"user","type":"address","internalType":"address"},{"name":"referrer","type":"address","internalType":"address"},{"name":"","type":"bytes32","internalType":"bytes32"}],"outputs":[],"stateMutability":"nonpayable"},{"type":"function","name":"setAllowlistEnabled","inputs":[{"name":"enabled","type":"bool","internalType":"bool"}],"outputs":[],"stateMutability":"nonpayable"},{"type":"function","name":"setReferrer","inputs":[{"name":"user","type":"address","internalType":"address"},{"name":"referrer","type":"address","internalType":"address"}],"outputs":[],"stateMutability":"nonpayable"},{"type":"function","name":"unauthorizeOracle","inputs":[{"name":"oracle","type":"address","internalType":"address"}],"outputs":[],"stateMutability":"nonpayable"},{"type":"event","name":"OracleAuthorized","inputs":[{"name":"oracle","type":"address","indexed":true,"internalType":"address"}],"anonymous":false},{"type":"event","name":"OracleUnauthorized","inputs":[{"name":"oracle","type":"address","indexed":true,"internalType":"address"}],"anonymous":false},{"type":"event","name":"ReferrerAllowed","inputs":[{"name":"referrer","type":"address","indexed":true,"internalType":"address"}],"anonymous":false},{"type":"event","name":"ReferrerDisallowed","inputs":[{"name":"referrer","type":"address","indexed":true,"internalType":"address"}],"anonymous":false},{"type":"event","name":"UserRegistered","inputs":[{"name":"user","type":"address","indexed":true,"internalType":"address"},{"name":"referrer","type":"address","indexed":true,"internalType":"address"}],"anonymous":false},{"type":"error","name":"AlreadyRegistered","inputs":[]},{"type":"error","name":"CycleDetected","inputs":[]},{"type":"error","name":"InvalidReferrer","inputs":[]},{"type":"error","name":"ReferrerNotAllowed","inputs":[]},{"type":"error","name":"UnauthorizedOracle","inputs":[]}],"bytecode":{"object":"0x6080346100f757601f610cf538819003918201601f19168301916001600160401b038311848410176100fb578084926020946040528339810103126100f757516001600160a01b0381168082036100f75760038054610100600160a81b03191660089390931b610100600160a81b0316929092179091555f818152600260205260409020805460ff19166001908117909155146100da575b5f805260046020527f17ef568e3e12ab5b9c7254a8d58478811de00f9e6eb34345acd53bf8fd09d3ec805460ff19166001179055604051610be590816101108239f35b60015f52600260205260405f20600160ff19825416179055610097565b5f80fd5b634e487b7160e01b5f52604160045260245ffdfe60806040526004361015610011575f80fd5b5f3560e01c80630a9b7ed5146109925780630b5c3f871461034b5780630f13b763146108ef5780631736c59e146108b357806349bcd248146108985780635ca1e1651461086c578063622be01c146108125780636667864d1461073e57806366695b1e146106c357806369b15fce146106705780636dfce94c146106335780636e138c84146105aa57806376bba3be1461044e57806377ccfd4b1461040f578063829d15351461039a57806393cec3e214610350578063bbddaca31461034b578063bcd5addb14610312578063bfe609da146102ed578063d146fd1b146102cb578063d65ad6941461028a578063d7644ba21461025a578063df65845a1461017f5763e96dc26a14610121575f80fd5b3461017b57606036600319011261017b5761013a610a6b565b50604051610149602082610af5565b5f8152610163905f36602083013760405191829182610a97565b0390f35b634e487b7160e01b5f52604160045260245ffd5b5f80fd5b3461017b57602036600319011261017b57610198610a6b565b604051906101a760c083610af5565b6005825260a03660208401375f905b6001600160a01b031680151580610250575b15610206575f908152602081905260409020546001600160a01b031680156101b6579080826101fa6102009386610b61565b52610b89565b906101b6565b5061021081610b2f565b915f5b82811061022857604051806101638682610a97565b6001906001600160a01b0361023d8285610b61565b51166102498287610b61565b5201610213565b50600582106101c8565b3461017b57602036600319011261017b5760043580151580910361017b5760ff8019600354169116176003555f80f35b3461017b57604036600319011261017b576001600160a01b036102ab610a6b565b165f525f602052602060018060a01b0360405f2054161515604051908152f35b3461017b575f36600319011261017b57602060ff600354166040519015158152f35b3461017b57602036600319011261017b57610306610a6b565b50602060405160018152f35b3461017b57602036600319011261017b576001600160a01b03610333610a6b565b165f908152600260205260409020805460ff19169055005b610ad9565b3461017b57604036600319011261017b57602061036b610a6b565b610373610a81565b6001600160a01b039182165f90815280845260409081902054905190831691909216148152f35b3461017b57602036600319011261017b576103b3610a6b565b5f905b6001600160a01b031680151580610405575b156103fa575f908152602081905260409020546001600160a01b031680156103b657906103f490610b89565b906103b6565b602082604051908152f35b50600a82106103c8565b3461017b57604036600319011261017b576001600160a01b03610430610a6b565b165f525f602052602060018060a01b0360405f205416604051908152f35b3461017b57602036600319011261017b576001600160a01b0361046f610a6b565b16805f52600460205260ff60405f20541661048657005b5f818152600460205260408120805460ff191690555b60055490818110156105a357826104b282610b97565b905460039190911b1c6001600160a01b0316146104d357600191500161049c565b5f19820191821161058f576105056104ed61052993610b97565b905460039190911b1c6001600160a01b031691610b97565b81546001600160a01b0393841660039290921b91821b9390911b1916919091179055565b600554801561057b575f190161053e81610b97565b81549060018060a01b039060031b1b191690556005555b7fdd4fdcea7474ec44ed60a0e33a8b3e1a80b4002026a6bc5b8e6e97bd883641335f80a2005b634e487b7160e01b5f52603160045260245ffd5b634e487b7160e01b5f52601160045260245ffd5b5050610555565b3461017b575f36600319011261017b5760405180602060055491828152019060055f527f036b6384b5eca791c62761152d0c79bb0604c104a5fb6f4eb0703f3154bb3db0905f5b818110610614576101638561060881870382610af5565b60405191829182610a97565b82546001600160a01b03168452602090930192600192830192016105f1565b3461017b57602036600319011261017b576001600160a01b03610654610a6b565b165f526002602052602060ff60405f2054166040519015158152f35b3461017b57606036600319011261017b576106c161068c610a6b565b610694610a81565b6001600160a01b039182165f90815260208190526040902080546001600160a01b03191691909216179055565b005b3461017b57604036600319011261017b576001600160a01b036106e4610a6b565b165f52600160205260405f206040519081602082549182815201915f5260205f20905f5b81811061071f576101638561060881870382610af5565b82546001600160a01b0316845260209093019260019283019201610708565b3461017b57602036600319011261017b57610757610a6b565b604051906101606107688184610af5565b600a8352601f19013660208401375f905b6001600160a01b03169081151580610808575b156107bd5780826101fa6107a09386610b61565b5f91825260208290526040909120546001600160a01b0316610779565b90506107c881610b2f565b915f5b8281106107e057604051806101638682610a97565b6001906001600160a01b036107f58285610b61565b51166108018287610b61565b52016107cb565b50600a811061078c565b3461017b57606036600319011261017b5760043567ffffffffffffffff811161017b573660238201121561017b5780600401359067ffffffffffffffff821161017b57602490369260051b01011161017b576106c1610a81565b3461017b575f36600319011261017b5760035460405160089190911c6001600160a01b03168152602090f35b3461017b575f36600319011261017b57602060405160018152f35b3461017b57602036600319011261017b576001600160a01b036108d4610a6b565b165f908152600260205260409020805460ff19166001179055005b3461017b57602036600319011261017b57610908610a6b565b6001600160a01b0381165f8181526004602052604090205490919060ff161561092d57005b815f52600460205260405f20600160ff1982541617905560055490680100000000000000008210156101675761050582600161096c9401600555610b97565b7f5a7a3f71a35f5e2589980d29d1c6d8c75e39657751190874081e55208bae24b75f80a2005b3461017b57604036600319011261017b576109ab610a6b565b602435906109b882610b2f565b6001600160a01b039182165f908152602081905260408120549092165b6001600160a01b03169182151580610a62575b15610a195780836101fa6109fc9385610b61565b5f92835260208390526040909220546001600160a01b03166109d5565b610a2281610b2f565b915f5b828110610a3a57604051806101638682610a97565b6001906001600160a01b03610a4f8285610b61565b5116610a5b8287610b61565b5201610a25565b508381106109e8565b600435906001600160a01b038216820361017b57565b602435906001600160a01b038216820361017b57565b60206040818301928281528451809452019201905f5b818110610aba5750505090565b82516001600160a01b0316845260209384019390920191600101610aad565b3461017b57604036600319011261017b576106c161068c610a6b565b90601f8019910116810190811067ffffffffffffffff82111761016757604052565b67ffffffffffffffff81116101675760051b60200190565b90610b3982610b17565b610b466040519182610af5565b8281528092610b57601f1991610b17565b0190602036910137565b8051821015610b755760209160051b010190565b634e487b7160e01b5f52603260045260245ffd5b5f19811461058f5760010190565b600554811015610b755760055f5260205f2001905f9056fea2646970667358221220bae15629069cfba6b4337976e54b53c4ae79e4737d5a6e82e5b68ebd3bfdc5ad64736f6c634300081a0033","linkReferences":{}},"methodIdentifiers":{"NULL_REFERRER()":"49bcd248","addReferral(address,address)":"0b5c3f87","allowReferrer(address)":"1736c59e","authorizeOracle(address)":"0f13b763","batchRegister(address[],address,bytes32)":"622be01c","disallowReferrer(address)":"bcd5addb","getAncestors(address,bytes32,uint256)":"e96dc26a","getAncestors(address,uint256)":"0a9b7ed5","getAuthorizedOracles()":"6e138c84","getChildren(address,bytes32)":"66695b1e","getReferralChain(address)":"6667864d","getReferralDepth(address)":"829d1535","getReferrer(address,bytes32)":"77ccfd4b","getReferrers(address)":"df65845a","getRoot()":"5ca1e165","isAllowedReferrer(address)":"6dfce94c","isAllowlistEnabled()":"d146fd1b","isAuthorizedOracle(address)":"bfe609da","isRegistered(address,bytes32)":"d65ad694","isValidReferral(address,address)":"93cec3e2","register(address,address,bytes32)":"69b15fce","setAllowlistEnabled(bool)":"d7644ba2","setReferrer(address,address)":"bbddaca3","unauthorizeOracle(address)":"76bba3be"},"id":44}