{"abi":[{"type":"function","name":"calculateRewards","inputs":[{"name":"totalReward","type":"uint256","internalType":"uint256"},{"name":"numRecipients","type":"uint256","internalType":"uint256"}],"outputs":[{"name":"amounts","type":"uint256[]","internalType":"uint256[]"}],"stateMutability":"pure"}],"bytecode":{"object":"0x6080806040523460155761036c908161001a8239f35b5f80fdfe60806040526004361015610011575f80fd5b5f3560e01c6348a8870614610024575f80fd5b3461008757604036600319011261008757610043602435600435610133565b6040518091602082016020835281518091526020604084019201905f5b81811061006e575050500390f35b8251845285945060209384019390920191600101610060565b5f80fd5b6040519190601f01601f1916820167ffffffffffffffff8111838210176100b157604052565b634e487b7160e01b5f52604160045260245ffd5b67ffffffffffffffff81116100b15760051b60200190565b8051156100ea5760200190565b634e487b7160e01b5f52603260045260245ffd5b80518210156100ea5760209160051b010190565b9190820180921161011f57565b634e487b7160e01b5f52601160045260245ffd5b919091821561031f57600a8311610316575b60405190610140820182811067ffffffffffffffff8211176100b15760405261271082526117706020830152610e1060408301526108706060830152610510608083015261030960a08301526101d260c083015261011760e083015260a7610100830152606461012083015260405193610160850185811067ffffffffffffffff8211176100b1576040525f85526127106020860152613e806040860152614c9060608601526155006080860152615a1060a0860152615d1960c0860152615eeb60e08601526160026101008601526160a961012086015261610d610140860152610237610232826100c5565b61008b565b81815292601f19610247836100c5565b013660208601378395600b8310156100ea578260051b01515f8115905b8481106102c657505050505f905f905b8082106102a5575050810390811161011f5761029c6102a291610296846100dd565b51610112565b916100dd565b52565b90916102be6001916102b785886100fe565b5190610112565b920190610274565b600a8110156100ea578060051b8401519081870291878304148715171561011f57826103025783600192046102fb828a6100fe565b5201610264565b634e487b7160e01b5f52601260045260245ffd5b600a9250610145565b50905061032c602061008b565b5f81525f3681379056fea2646970667358221220f7b761de1dea25cdc51ed853dffb33e687e01c9cda079b6d211e2d7e5b7527da64736f6c634300081a0033","linkReferences":{}},"methodIdentifiers":{"calculateRewards(uint256,uint256)":"48a88706"},"id":33}