{"abi":[{"type":"function","name":"calculateRewards","inputs":[{"name":"totalReward","type":"uint256","internalType":"uint256"},{"name":"numRecipients","type":"uint256","internalType":"uint256"}],"outputs":[{"name":"amounts","type":"uint256[]","internalType":"uint256[]"}],"stateMutability":"pure"}],"bytecode":{"object":"0x60808060405234601557610357908161001a8239f35b5f80fdfe60806040526004361015610011575f80fd5b5f3560e01c6348a8870614610024575f80fd5b3461008757604036600319011261008757610043602435600435610105565b6040518091602082016020835281518091526020604084019201905f5b81811061006e575050500390f35b8251845285945060209384019390920191600101610060565b5f80fd5b6040519190601f01601f1916820167ffffffffffffffff8111838210176100b157604052565b634e487b7160e01b5f52604160045260245ffd5b67ffffffffffffffff81116100b15760051b60200190565b80518210156100f15760209160051b010190565b634e487b7160e01b5f52603260045260245ffd5b91811561030a57600a8211610301575b60405190610140820182811067ffffffffffffffff8211176100b15760405261271082526117706020830152610e1060408301526108706060830152610510608083015261030960a08301526101d260c083015261011760e083015260a7610100830152606461012083015260405190610160820182811067ffffffffffffffff8211176100b1576040525f82526127106020830152613e806040830152614c9060608301526155006080830152615a1060a0830152615d1960c0830152615eeb60e08301526160026101008301526160a961012083015261610d610140830152610207610202856100c5565b61008b565b84815292601f19610217866100c5565b013660208601378392600b8610156100f1578560051b01515f8115905b8781106102b157505050505f945f955b5f198601868111610275578710156102895761026087866100dd565b51810180911161027557600190960195610244565b634e487b7160e01b5f52601160045260245ffd5b90939295509390938303928311610275575f198101908111610275576102ae916100dd565b52565b600a8110156100f1578060051b84015190818a02918a8304148a15171561027557826102ed5783600192046102e6828a6100dd565b5201610234565b634e487b7160e01b5f52601260045260245ffd5b600a9150610115565b915050610317602061008b565b5f81525f3681379056fea26469706673582212206e4c39f64d4ebac92e9110ad2e7607d6eb898744478a8a20bd18451d41027c5d64736f6c634300081a0033","linkReferences":{}},"methodIdentifiers":{"calculateRewards(uint256,uint256)":"48a88706"},"id":34}